{
	"contract/Mytoken.sol": {
		"Mytoken2": {
			"abi": [
				{
					"inputs": [
						{
							"internalType": "uint256",
							"name": "initialSupply",
							"type": "uint256"
						}
					],
					"stateMutability": "nonpayable",
					"type": "constructor"
				},
				{
					"anonymous": false,
					"inputs": [
						{
							"indexed": true,
							"internalType": "address",
							"name": "owner",
							"type": "address"
						},
						{
							"indexed": true,
							"internalType": "address",
							"name": "spender",
							"type": "address"
						},
						{
							"indexed": false,
							"internalType": "uint256",
							"name": "amount",
							"type": "uint256"
						}
					],
					"name": "Approval",
					"type": "event"
				},
				{
					"anonymous": false,
					"inputs": [
						{
							"indexed": true,
							"internalType": "address",
							"name": "from",
							"type": "address"
						},
						{
							"indexed": true,
							"internalType": "address",
							"name": "to",
							"type": "address"
						},
						{
							"indexed": false,
							"internalType": "uint256",
							"name": "amount",
							"type": "uint256"
						}
					],
					"name": "Transfer",
					"type": "event"
				},
				{
					"inputs": [
						{
							"internalType": "address",
							"name": "owner",
							"type": "address"
						},
						{
							"internalType": "address",
							"name": "spender",
							"type": "address"
						}
					],
					"name": "allowanceOf",
					"outputs": [
						{
							"internalType": "uint256",
							"name": "",
							"type": "uint256"
						}
					],
					"stateMutability": "view",
					"type": "function"
				},
				{
					"inputs": [
						{
							"internalType": "address",
							"name": "spender",
							"type": "address"
						},
						{
							"internalType": "uint256",
							"name": "amount",
							"type": "uint256"
						}
					],
					"name": "approve",
					"outputs": [
						{
							"internalType": "bool",
							"name": "",
							"type": "bool"
						}
					],
					"stateMutability": "nonpayable",
					"type": "function"
				},
				{
					"inputs": [
						{
							"internalType": "address",
							"name": "account",
							"type": "address"
						}
					],
					"name": "balanceOf",
					"outputs": [
						{
							"internalType": "uint256",
							"name": "",
							"type": "uint256"
						}
					],
					"stateMutability": "view",
					"type": "function"
				},
				{
					"inputs": [],
					"name": "decimals",
					"outputs": [
						{
							"internalType": "uint8",
							"name": "",
							"type": "uint8"
						}
					],
					"stateMutability": "view",
					"type": "function"
				},
				{
					"inputs": [],
					"name": "name",
					"outputs": [
						{
							"internalType": "string",
							"name": "",
							"type": "string"
						}
					],
					"stateMutability": "view",
					"type": "function"
				},
				{
					"inputs": [],
					"name": "symbol",
					"outputs": [
						{
							"internalType": "string",
							"name": "",
							"type": "string"
						}
					],
					"stateMutability": "view",
					"type": "function"
				},
				{
					"inputs": [],
					"name": "totalSupply",
					"outputs": [
						{
							"internalType": "uint256",
							"name": "",
							"type": "uint256"
						}
					],
					"stateMutability": "view",
					"type": "function"
				},
				{
					"inputs": [
						{
							"internalType": "address",
							"name": "_to",
							"type": "address"
						},
						{
							"internalType": "uint256",
							"name": "amount",
							"type": "uint256"
						}
					],
					"name": "transfer",
					"outputs": [
						{
							"internalType": "bool",
							"name": "",
							"type": "bool"
						}
					],
					"stateMutability": "nonpayable",
					"type": "function"
				},
				{
					"inputs": [
						{
							"internalType": "address",
							"name": "from",
							"type": "address"
						},
						{
							"internalType": "address",
							"name": "to",
							"type": "address"
						},
						{
							"internalType": "uint256",
							"name": "amount",
							"type": "uint256"
						}
					],
					"name": "transferFrom",
					"outputs": [
						{
							"internalType": "bool",
							"name": "",
							"type": "bool"
						}
					],
					"stateMutability": "nonpayable",
					"type": "function"
				}
			],
			"devdoc": {
				"kind": "dev",
				"methods": {},
				"version": 1
			},
			"evm": {
				"assembly": "    /* \"contract/Mytoken.sol\":124:4596  contract Mytoken2 is ConText{... */\n  mstore(0x40, 0x80)\n    /* \"contract/Mytoken.sol\":647:873  constructor (uint256 initialSupply){... */\n  callvalue\n  dup1\n  iszero\n  tag_1\n  jumpi\n  0x00\n  dup1\n  revert\ntag_1:\n  pop\n  mload(0x40)\n  sub(codesize, bytecodeSize)\n  dup1\n  bytecodeSize\n  dup4\n  codecopy\n  dup2\n  dup2\n  add\n  0x40\n  mstore\n  dup2\n  add\n  swap1\n  tag_2\n  swap2\n  swap1\n  tag_3\n  jump\t// in\ntag_2:\n    /* \"contract/Mytoken.sol\":692:710  _name = \"universe\" */\n  mload(0x40)\n  dup1\n  0x40\n  add\n  0x40\n  mstore\n  dup1\n  0x08\n  dup2\n  mstore\n  0x20\n  add\n  0x756e697665727365000000000000000000000000000000000000000000000000\n  dup2\n  mstore\n  pop\n    /* \"contract/Mytoken.sol\":692:697  _name */\n  0x00\n    /* \"contract/Mytoken.sol\":692:710  _name = \"universe\" */\n  swap1\n  dup2\n  tag_6\n  swap2\n  swap1\n  tag_7\n  jump\t// in\ntag_6:\n  pop\n    /* \"contract/Mytoken.sol\":720:736  _symbol = \"UNIV\" */\n  mload(0x40)\n  dup1\n  0x40\n  add\n  0x40\n  mstore\n  dup1\n  0x04\n  dup2\n  mstore\n  0x20\n  add\n  0x554e495600000000000000000000000000000000000000000000000000000000\n  dup2\n  mstore\n  pop\n    /* \"contract/Mytoken.sol\":720:727  _symbol */\n  0x01\n    /* \"contract/Mytoken.sol\":720:736  _symbol = \"UNIV\" */\n  swap1\n  dup2\n  tag_8\n  swap2\n  swap1\n  tag_7\n  jump\t// in\ntag_8:\n  pop\n    /* \"contract/Mytoken.sol\":758:760  18 */\n  0x12\n    /* \"contract/Mytoken.sol\":746:755  _decimals */\n  0x02\n  0x00\n    /* \"contract/Mytoken.sol\":746:760  _decimals = 18 */\n  0x0100\n  exp\n  dup2\n  sload\n  dup2\n  0xff\n  mul\n  not\n  and\n  swap1\n  dup4\n  0xff\n  and\n  mul\n  or\n  swap1\n  sstore\n  pop\n    /* \"contract/Mytoken.sol\":802:865  _mint(_msgSender(), initialSupply * (10 ** uint256(_decimals))) */\n  tag_9\n    /* \"contract/Mytoken.sol\":808:820  _msgSender() */\n  tag_10\n    /* \"contract/Mytoken.sol\":808:818  _msgSender */\n  shl(0x20, tag_11)\n    /* \"contract/Mytoken.sol\":808:820  _msgSender() */\n  0x20\n  shr\n  jump\t// in\ntag_10:\n    /* \"contract/Mytoken.sol\":853:862  _decimals */\n  0x02\n  0x00\n  swap1\n  sload\n  swap1\n  0x0100\n  exp\n  swap1\n  div\n  0xff\n  and\n    /* \"contract/Mytoken.sol\":845:863  uint256(_decimals) */\n  0xff\n  and\n    /* \"contract/Mytoken.sol\":839:841  10 */\n  0x0a\n    /* \"contract/Mytoken.sol\":839:863  10 ** uint256(_decimals) */\n  tag_12\n  swap2\n  swap1\n  tag_13\n  jump\t// in\ntag_12:\n    /* \"contract/Mytoken.sol\":822:835  initialSupply */\n  dup4\n    /* \"contract/Mytoken.sol\":822:864  initialSupply * (10 ** uint256(_decimals)) */\n  tag_14\n  swap2\n  swap1\n  tag_15\n  jump\t// in\ntag_14:\n    /* \"contract/Mytoken.sol\":802:807  _mint */\n  shl(0x20, tag_16)\n    /* \"contract/Mytoken.sol\":802:865  _mint(_msgSender(), initialSupply * (10 ** uint256(_decimals))) */\n  0x20\n  shr\n  jump\t// in\ntag_9:\n    /* \"contract/Mytoken.sol\":647:873  constructor (uint256 initialSupply){... */\n  pop\n    /* \"contract/Mytoken.sol\":124:4596  contract Mytoken2 is ConText{... */\n  jump(tag_17)\n    /* \"contract/ConText.sol\":84:172  function _msgSender() internal view returns(address){... */\ntag_11:\n    /* \"contract/ConText.sol\":128:135  address */\n  0x00\n    /* \"contract/ConText.sol\":154:164  msg.sender */\n  caller\n    /* \"contract/ConText.sol\":147:164  return msg.sender */\n  swap1\n  pop\n    /* \"contract/ConText.sol\":84:172  function _msgSender() internal view returns(address){... */\n  swap1\n  jump\t// out\n    /* \"contract/Mytoken.sol\":3021:3363  function _mint(address account, uint256 amount) internal {... */\ntag_16:\n    /* \"contract/Mytoken.sol\":3115:3116  0 */\n  0x00\n    /* \"contract/Mytoken.sol\":3096:3117  account != address(0) */\n  0xffffffffffffffffffffffffffffffffffffffff\n  and\n    /* \"contract/Mytoken.sol\":3096:3103  account */\n  dup3\n    /* \"contract/Mytoken.sol\":3096:3117  account != address(0) */\n  0xffffffffffffffffffffffffffffffffffffffff\n  and\n  sub\n    /* \"contract/Mytoken.sol\":3088:3152  require(account != address(0),\"ERC20: mint to the zero address\") */\n  tag_20\n  jumpi\n  mload(0x40)\n  0x08c379a000000000000000000000000000000000000000000000000000000000\n  dup2\n  mstore\n  0x04\n  add\n  tag_21\n  swap1\n  tag_22\n  jump\t// in\ntag_21:\n  mload(0x40)\n  dup1\n  swap2\n  sub\n  swap1\n  revert\ntag_20:\n    /* \"contract/Mytoken.sol\":3213:3219  amount */\n  dup1\n    /* \"contract/Mytoken.sol\":3197:3209  _totalSupply */\n  0x03\n  0x00\n    /* \"contract/Mytoken.sol\":3197:3219  _totalSupply += amount */\n  dup3\n  dup3\n  sload\n  tag_23\n  swap2\n  swap1\n  tag_24\n  jump\t// in\ntag_23:\n  swap3\n  pop\n  pop\n  dup2\n  swap1\n  sstore\n  pop\n    /* \"contract/Mytoken.sol\":3296:3302  amount */\n  dup1\n    /* \"contract/Mytoken.sol\":3275:3283  _balance */\n  0x04\n    /* \"contract/Mytoken.sol\":3275:3292  _balance[account] */\n  0x00\n    /* \"contract/Mytoken.sol\":3284:3291  account */\n  dup5\n    /* \"contract/Mytoken.sol\":3275:3292  _balance[account] */\n  0xffffffffffffffffffffffffffffffffffffffff\n  and\n  0xffffffffffffffffffffffffffffffffffffffff\n  and\n  dup2\n  mstore\n  0x20\n  add\n  swap1\n  dup2\n  mstore\n  0x20\n  add\n  0x00\n  keccak256\n  0x00\n    /* \"contract/Mytoken.sol\":3275:3302  _balance[account] += amount */\n  dup3\n  dup3\n  sload\n  tag_25\n  swap2\n  swap1\n  tag_24\n  jump\t// in\ntag_25:\n  swap3\n  pop\n  pop\n  dup2\n  swap1\n  sstore\n  pop\n    /* \"contract/Mytoken.sol\":3339:3346  account */\n  dup2\n    /* \"contract/Mytoken.sol\":3318:3355  Transfer(address(0), account, amount) */\n  0xffffffffffffffffffffffffffffffffffffffff\n  and\n    /* \"contract/Mytoken.sol\":3335:3336  0 */\n  0x00\n    /* \"contract/Mytoken.sol\":3318:3355  Transfer(address(0), account, amount) */\n  0xffffffffffffffffffffffffffffffffffffffff\n  and\n  0xddf252ad1be2c89b69c2b068fc378daa952ba7f163c4a11628f55a4df523b3ef\n    /* \"contract/Mytoken.sol\":3348:3354  amount */\n  dup4\n    /* \"contract/Mytoken.sol\":3318:3355  Transfer(address(0), account, amount) */\n  mload(0x40)\n  tag_26\n  swap2\n  swap1\n  tag_27\n  jump\t// in\ntag_26:\n  mload(0x40)\n  dup1\n  swap2\n  sub\n  swap1\n  log3\n    /* \"contract/Mytoken.sol\":3021:3363  function _mint(address account, uint256 amount) internal {... */\n  pop\n  pop\n  jump\t// out\n    /* \"#utility.yul\":88:205   */\ntag_29:\n    /* \"#utility.yul\":197:198   */\n  0x00\n    /* \"#utility.yul\":194:195   */\n  dup1\n    /* \"#utility.yul\":187:199   */\n  revert\n    /* \"#utility.yul\":334:411   */\ntag_31:\n    /* \"#utility.yul\":371:378   */\n  0x00\n    /* \"#utility.yul\":400:405   */\n  dup2\n    /* \"#utility.yul\":389:405   */\n  swap1\n  pop\n    /* \"#utility.yul\":334:411   */\n  swap2\n  swap1\n  pop\n  jump\t// out\n    /* \"#utility.yul\":417:539   */\ntag_32:\n    /* \"#utility.yul\":490:514   */\n  tag_67\n    /* \"#utility.yul\":508:513   */\n  dup2\n    /* \"#utility.yul\":490:514   */\n  tag_31\n  jump\t// in\ntag_67:\n    /* \"#utility.yul\":483:488   */\n  dup2\n    /* \"#utility.yul\":480:515   */\n  eq\n    /* \"#utility.yul\":470:533   */\n  tag_68\n  jumpi\n    /* \"#utility.yul\":529:530   */\n  0x00\n    /* \"#utility.yul\":526:527   */\n  dup1\n    /* \"#utility.yul\":519:531   */\n  revert\n    /* \"#utility.yul\":470:533   */\ntag_68:\n    /* \"#utility.yul\":417:539   */\n  pop\n  jump\t// out\n    /* \"#utility.yul\":545:688   */\ntag_33:\n    /* \"#utility.yul\":602:607   */\n  0x00\n    /* \"#utility.yul\":633:639   */\n  dup2\n    /* \"#utility.yul\":627:640   */\n  mload\n    /* \"#utility.yul\":618:640   */\n  swap1\n  pop\n    /* \"#utility.yul\":649:682   */\n  tag_70\n    /* \"#utility.yul\":676:681   */\n  dup2\n    /* \"#utility.yul\":649:682   */\n  tag_32\n  jump\t// in\ntag_70:\n    /* \"#utility.yul\":545:688   */\n  swap3\n  swap2\n  pop\n  pop\n  jump\t// out\n    /* \"#utility.yul\":694:1045   */\ntag_3:\n    /* \"#utility.yul\":764:770   */\n  0x00\n    /* \"#utility.yul\":813:815   */\n  0x20\n    /* \"#utility.yul\":801:810   */\n  dup3\n    /* \"#utility.yul\":792:799   */\n  dup5\n    /* \"#utility.yul\":788:811   */\n  sub\n    /* \"#utility.yul\":784:816   */\n  slt\n    /* \"#utility.yul\":781:900   */\n  iszero\n  tag_72\n  jumpi\n    /* \"#utility.yul\":819:898   */\n  tag_73\n  tag_29\n  jump\t// in\ntag_73:\n    /* \"#utility.yul\":781:900   */\ntag_72:\n    /* \"#utility.yul\":939:940   */\n  0x00\n    /* \"#utility.yul\":964:1028   */\n  tag_74\n    /* \"#utility.yul\":1020:1027   */\n  dup5\n    /* \"#utility.yul\":1011:1017   */\n  dup3\n    /* \"#utility.yul\":1000:1009   */\n  dup6\n    /* \"#utility.yul\":996:1018   */\n  add\n    /* \"#utility.yul\":964:1028   */\n  tag_33\n  jump\t// in\ntag_74:\n    /* \"#utility.yul\":954:1028   */\n  swap2\n  pop\n    /* \"#utility.yul\":910:1038   */\n  pop\n    /* \"#utility.yul\":694:1045   */\n  swap3\n  swap2\n  pop\n  pop\n  jump\t// out\n    /* \"#utility.yul\":1051:1150   */\ntag_34:\n    /* \"#utility.yul\":1103:1109   */\n  0x00\n    /* \"#utility.yul\":1137:1142   */\n  dup2\n    /* \"#utility.yul\":1131:1143   */\n  mload\n    /* \"#utility.yul\":1121:1143   */\n  swap1\n  pop\n    /* \"#utility.yul\":1051:1150   */\n  swap2\n  swap1\n  pop\n  jump\t// out\n    /* \"#utility.yul\":1156:1336   */\ntag_35:\n    /* \"#utility.yul\":1204:1281   */\n  0x4e487b7100000000000000000000000000000000000000000000000000000000\n    /* \"#utility.yul\":1201:1202   */\n  0x00\n    /* \"#utility.yul\":1194:1282   */\n  mstore\n    /* \"#utility.yul\":1301:1305   */\n  0x41\n    /* \"#utility.yul\":1298:1299   */\n  0x04\n    /* \"#utility.yul\":1291:1306   */\n  mstore\n    /* \"#utility.yul\":1325:1329   */\n  0x24\n    /* \"#utility.yul\":1322:1323   */\n  0x00\n    /* \"#utility.yul\":1315:1330   */\n  revert\n    /* \"#utility.yul\":1342:1522   */\ntag_36:\n    /* \"#utility.yul\":1390:1467   */\n  0x4e487b7100000000000000000000000000000000000000000000000000000000\n    /* \"#utility.yul\":1387:1388   */\n  0x00\n    /* \"#utility.yul\":1380:1468   */\n  mstore\n    /* \"#utility.yul\":1487:1491   */\n  0x22\n    /* \"#utility.yul\":1484:1485   */\n  0x04\n    /* \"#utility.yul\":1477:1492   */\n  mstore\n    /* \"#utility.yul\":1511:1515   */\n  0x24\n    /* \"#utility.yul\":1508:1509   */\n  0x00\n    /* \"#utility.yul\":1501:1516   */\n  revert\n    /* \"#utility.yul\":1528:1848   */\ntag_37:\n    /* \"#utility.yul\":1572:1578   */\n  0x00\n    /* \"#utility.yul\":1609:1610   */\n  0x02\n    /* \"#utility.yul\":1603:1607   */\n  dup3\n    /* \"#utility.yul\":1599:1611   */\n  div\n    /* \"#utility.yul\":1589:1611   */\n  swap1\n  pop\n    /* \"#utility.yul\":1656:1657   */\n  0x01\n    /* \"#utility.yul\":1650:1654   */\n  dup3\n    /* \"#utility.yul\":1646:1658   */\n  and\n    /* \"#utility.yul\":1677:1695   */\n  dup1\n    /* \"#utility.yul\":1667:1748   */\n  tag_79\n  jumpi\n    /* \"#utility.yul\":1733:1737   */\n  0x7f\n    /* \"#utility.yul\":1725:1731   */\n  dup3\n    /* \"#utility.yul\":1721:1738   */\n  and\n    /* \"#utility.yul\":1711:1738   */\n  swap2\n  pop\n    /* \"#utility.yul\":1667:1748   */\ntag_79:\n    /* \"#utility.yul\":1795:1797   */\n  0x20\n    /* \"#utility.yul\":1787:1793   */\n  dup3\n    /* \"#utility.yul\":1784:1798   */\n  lt\n    /* \"#utility.yul\":1764:1782   */\n  dup2\n    /* \"#utility.yul\":1761:1799   */\n  sub\n    /* \"#utility.yul\":1758:1842   */\n  tag_80\n  jumpi\n    /* \"#utility.yul\":1814:1832   */\n  tag_81\n  tag_36\n  jump\t// in\ntag_81:\n    /* \"#utility.yul\":1758:1842   */\ntag_80:\n    /* \"#utility.yul\":1579:1848   */\n  pop\n    /* \"#utility.yul\":1528:1848   */\n  swap2\n  swap1\n  pop\n  jump\t// out\n    /* \"#utility.yul\":1854:1995   */\ntag_38:\n    /* \"#utility.yul\":1903:1907   */\n  0x00\n    /* \"#utility.yul\":1926:1929   */\n  dup2\n    /* \"#utility.yul\":1918:1929   */\n  swap1\n  pop\n    /* \"#utility.yul\":1949:1952   */\n  dup2\n    /* \"#utility.yul\":1946:1947   */\n  0x00\n    /* \"#utility.yul\":1939:1953   */\n  mstore\n    /* \"#utility.yul\":1983:1987   */\n  0x20\n    /* \"#utility.yul\":1980:1981   */\n  0x00\n    /* \"#utility.yul\":1970:1988   */\n  keccak256\n    /* \"#utility.yul\":1962:1988   */\n  swap1\n  pop\n    /* \"#utility.yul\":1854:1995   */\n  swap2\n  swap1\n  pop\n  jump\t// out\n    /* \"#utility.yul\":2001:2094   */\ntag_39:\n    /* \"#utility.yul\":2038:2044   */\n  0x00\n    /* \"#utility.yul\":2085:2087   */\n  0x20\n    /* \"#utility.yul\":2080:2082   */\n  0x1f\n    /* \"#utility.yul\":2073:2078   */\n  dup4\n    /* \"#utility.yul\":2069:2083   */\n  add\n    /* \"#utility.yul\":2065:2088   */\n  div\n    /* \"#utility.yul\":2055:2088   */\n  swap1\n  pop\n    /* \"#utility.yul\":2001:2094   */\n  swap2\n  swap1\n  pop\n  jump\t// out\n    /* \"#utility.yul\":2100:2207   */\ntag_40:\n    /* \"#utility.yul\":2144:2152   */\n  0x00\n    /* \"#utility.yul\":2194:2199   */\n  dup3\n    /* \"#utility.yul\":2188:2192   */\n  dup3\n    /* \"#utility.yul\":2184:2200   */\n  shl\n    /* \"#utility.yul\":2163:2200   */\n  swap1\n  pop\n    /* \"#utility.yul\":2100:2207   */\n  swap3\n  swap2\n  pop\n  pop\n  jump\t// out\n    /* \"#utility.yul\":2213:2606   */\ntag_41:\n    /* \"#utility.yul\":2282:2288   */\n  0x00\n    /* \"#utility.yul\":2332:2333   */\n  0x08\n    /* \"#utility.yul\":2320:2330   */\n  dup4\n    /* \"#utility.yul\":2316:2334   */\n  mul\n    /* \"#utility.yul\":2355:2452   */\n  tag_86\n    /* \"#utility.yul\":2385:2451   */\n  0xffffffffffffffffffffffffffffffffffffffffffffffffffffffffffffffff\n    /* \"#utility.yul\":2374:2383   */\n  dup3\n    /* \"#utility.yul\":2355:2452   */\n  tag_40\n  jump\t// in\ntag_86:\n    /* \"#utility.yul\":2473:2512   */\n  tag_87\n    /* \"#utility.yul\":2503:2511   */\n  dup7\n    /* \"#utility.yul\":2492:2501   */\n  dup4\n    /* \"#utility.yul\":2473:2512   */\n  tag_40\n  jump\t// in\ntag_87:\n    /* \"#utility.yul\":2461:2512   */\n  swap6\n  pop\n    /* \"#utility.yul\":2545:2549   */\n  dup1\n    /* \"#utility.yul\":2541:2550   */\n  not\n    /* \"#utility.yul\":2534:2539   */\n  dup5\n    /* \"#utility.yul\":2530:2551   */\n  and\n    /* \"#utility.yul\":2521:2551   */\n  swap4\n  pop\n    /* \"#utility.yul\":2594:2598   */\n  dup1\n    /* \"#utility.yul\":2584:2592   */\n  dup7\n    /* \"#utility.yul\":2580:2599   */\n  and\n    /* \"#utility.yul\":2573:2578   */\n  dup5\n    /* \"#utility.yul\":2570:2600   */\n  or\n    /* \"#utility.yul\":2560:2600   */\n  swap3\n  pop\n    /* \"#utility.yul\":2289:2606   */\n  pop\n  pop\n    /* \"#utility.yul\":2213:2606   */\n  swap4\n  swap3\n  pop\n  pop\n  pop\n  jump\t// out\n    /* \"#utility.yul\":2612:2672   */\ntag_42:\n    /* \"#utility.yul\":2640:2643   */\n  0x00\n    /* \"#utility.yul\":2661:2666   */\n  dup2\n    /* \"#utility.yul\":2654:2666   */\n  swap1\n  pop\n    /* \"#utility.yul\":2612:2672   */\n  swap2\n  swap1\n  pop\n  jump\t// out\n    /* \"#utility.yul\":2678:2820   */\ntag_43:\n    /* \"#utility.yul\":2728:2737   */\n  0x00\n    /* \"#utility.yul\":2761:2814   */\n  tag_90\n    /* \"#utility.yul\":2779:2813   */\n  tag_91\n    /* \"#utility.yul\":2788:2812   */\n  tag_92\n    /* \"#utility.yul\":2806:2811   */\n  dup5\n    /* \"#utility.yul\":2788:2812   */\n  tag_31\n  jump\t// in\ntag_92:\n    /* \"#utility.yul\":2779:2813   */\n  tag_42\n  jump\t// in\ntag_91:\n    /* \"#utility.yul\":2761:2814   */\n  tag_31\n  jump\t// in\ntag_90:\n    /* \"#utility.yul\":2748:2814   */\n  swap1\n  pop\n    /* \"#utility.yul\":2678:2820   */\n  swap2\n  swap1\n  pop\n  jump\t// out\n    /* \"#utility.yul\":2826:2901   */\ntag_44:\n    /* \"#utility.yul\":2869:2872   */\n  0x00\n    /* \"#utility.yul\":2890:2895   */\n  dup2\n    /* \"#utility.yul\":2883:2895   */\n  swap1\n  pop\n    /* \"#utility.yul\":2826:2901   */\n  swap2\n  swap1\n  pop\n  jump\t// out\n    /* \"#utility.yul\":2907:3176   */\ntag_45:\n    /* \"#utility.yul\":3017:3056   */\n  tag_95\n    /* \"#utility.yul\":3048:3055   */\n  dup4\n    /* \"#utility.yul\":3017:3056   */\n  tag_43\n  jump\t// in\ntag_95:\n    /* \"#utility.yul\":3078:3169   */\n  tag_96\n    /* \"#utility.yul\":3127:3168   */\n  tag_97\n    /* \"#utility.yul\":3151:3167   */\n  dup3\n    /* \"#utility.yul\":3127:3168   */\n  tag_44\n  jump\t// in\ntag_97:\n    /* \"#utility.yul\":3119:3125   */\n  dup5\n    /* \"#utility.yul\":3112:3116   */\n  dup5\n    /* \"#utility.yul\":3106:3117   */\n  sload\n    /* \"#utility.yul\":3078:3169   */\n  tag_41\n  jump\t// in\ntag_96:\n    /* \"#utility.yul\":3072:3076   */\n  dup3\n    /* \"#utility.yul\":3065:3170   */\n  sstore\n    /* \"#utility.yul\":2983:3176   */\n  pop\n    /* \"#utility.yul\":2907:3176   */\n  pop\n  pop\n  pop\n  jump\t// out\n    /* \"#utility.yul\":3182:3255   */\ntag_46:\n    /* \"#utility.yul\":3227:3230   */\n  0x00\n    /* \"#utility.yul\":3182:3255   */\n  swap1\n  jump\t// out\n    /* \"#utility.yul\":3261:3450   */\ntag_47:\n    /* \"#utility.yul\":3338:3370   */\n  tag_100\n  tag_46\n  jump\t// in\ntag_100:\n    /* \"#utility.yul\":3379:3444   */\n  tag_101\n    /* \"#utility.yul\":3437:3443   */\n  dup2\n    /* \"#utility.yul\":3429:3435   */\n  dup5\n    /* \"#utility.yul\":3423:3427   */\n  dup5\n    /* \"#utility.yul\":3379:3444   */\n  tag_45\n  jump\t// in\ntag_101:\n    /* \"#utility.yul\":3314:3450   */\n  pop\n    /* \"#utility.yul\":3261:3450   */\n  pop\n  pop\n  jump\t// out\n    /* \"#utility.yul\":3456:3642   */\ntag_48:\n    /* \"#utility.yul\":3516:3636   */\ntag_103:\n    /* \"#utility.yul\":3533:3536   */\n  dup2\n    /* \"#utility.yul\":3526:3531   */\n  dup2\n    /* \"#utility.yul\":3523:3537   */\n  lt\n    /* \"#utility.yul\":3516:3636   */\n  iszero\n  tag_105\n  jumpi\n    /* \"#utility.yul\":3587:3626   */\n  tag_106\n    /* \"#utility.yul\":3624:3625   */\n  0x00\n    /* \"#utility.yul\":3617:3622   */\n  dup3\n    /* \"#utility.yul\":3587:3626   */\n  tag_47\n  jump\t// in\ntag_106:\n    /* \"#utility.yul\":3560:3561   */\n  0x01\n    /* \"#utility.yul\":3553:3558   */\n  dup2\n    /* \"#utility.yul\":3549:3562   */\n  add\n    /* \"#utility.yul\":3540:3562   */\n  swap1\n  pop\n    /* \"#utility.yul\":3516:3636   */\n  jump(tag_103)\ntag_105:\n    /* \"#utility.yul\":3456:3642   */\n  pop\n  pop\n  jump\t// out\n    /* \"#utility.yul\":3648:4191   */\ntag_49:\n    /* \"#utility.yul\":3749:3751   */\n  0x1f\n    /* \"#utility.yul\":3744:3747   */\n  dup3\n    /* \"#utility.yul\":3741:3752   */\n  gt\n    /* \"#utility.yul\":3738:4184   */\n  iszero\n  tag_108\n  jumpi\n    /* \"#utility.yul\":3783:3821   */\n  tag_109\n    /* \"#utility.yul\":3815:3820   */\n  dup2\n    /* \"#utility.yul\":3783:3821   */\n  tag_38\n  jump\t// in\ntag_109:\n    /* \"#utility.yul\":3867:3896   */\n  tag_110\n    /* \"#utility.yul\":3885:3895   */\n  dup5\n    /* \"#utility.yul\":3867:3896   */\n  tag_39\n  jump\t// in\ntag_110:\n    /* \"#utility.yul\":3857:3865   */\n  dup2\n    /* \"#utility.yul\":3853:3897   */\n  add\n    /* \"#utility.yul\":4050:4052   */\n  0x20\n    /* \"#utility.yul\":4038:4048   */\n  dup6\n    /* \"#utility.yul\":4035:4053   */\n  lt\n    /* \"#utility.yul\":4032:4081   */\n  iszero\n  tag_111\n  jumpi\n    /* \"#utility.yul\":4071:4079   */\n  dup2\n    /* \"#utility.yul\":4056:4079   */\n  swap1\n  pop\n    /* \"#utility.yul\":4032:4081   */\ntag_111:\n    /* \"#utility.yul\":4094:4174   */\n  tag_112\n    /* \"#utility.yul\":4150:4172   */\n  tag_113\n    /* \"#utility.yul\":4168:4171   */\n  dup6\n    /* \"#utility.yul\":4150:4172   */\n  tag_39\n  jump\t// in\ntag_113:\n    /* \"#utility.yul\":4140:4148   */\n  dup4\n    /* \"#utility.yul\":4136:4173   */\n  add\n    /* \"#utility.yul\":4123:4134   */\n  dup3\n    /* \"#utility.yul\":4094:4174   */\n  tag_48\n  jump\t// in\ntag_112:\n    /* \"#utility.yul\":3753:4184   */\n  pop\n  pop\n    /* \"#utility.yul\":3738:4184   */\ntag_108:\n    /* \"#utility.yul\":3648:4191   */\n  pop\n  pop\n  pop\n  jump\t// out\n    /* \"#utility.yul\":4197:4314   */\ntag_50:\n    /* \"#utility.yul\":4251:4259   */\n  0x00\n    /* \"#utility.yul\":4301:4306   */\n  dup3\n    /* \"#utility.yul\":4295:4299   */\n  dup3\n    /* \"#utility.yul\":4291:4307   */\n  shr\n    /* \"#utility.yul\":4270:4307   */\n  swap1\n  pop\n    /* \"#utility.yul\":4197:4314   */\n  swap3\n  swap2\n  pop\n  pop\n  jump\t// out\n    /* \"#utility.yul\":4320:4489   */\ntag_51:\n    /* \"#utility.yul\":4364:4370   */\n  0x00\n    /* \"#utility.yul\":4397:4448   */\n  tag_116\n    /* \"#utility.yul\":4445:4446   */\n  0x00\n    /* \"#utility.yul\":4441:4447   */\n  not\n    /* \"#utility.yul\":4433:4438   */\n  dup5\n    /* \"#utility.yul\":4430:4431   */\n  0x08\n    /* \"#utility.yul\":4426:4439   */\n  mul\n    /* \"#utility.yul\":4397:4448   */\n  tag_50\n  jump\t// in\ntag_116:\n    /* \"#utility.yul\":4393:4449   */\n  not\n    /* \"#utility.yul\":4478:4482   */\n  dup1\n    /* \"#utility.yul\":4472:4476   */\n  dup4\n    /* \"#utility.yul\":4468:4483   */\n  and\n    /* \"#utility.yul\":4458:4483   */\n  swap2\n  pop\n    /* \"#utility.yul\":4371:4489   */\n  pop\n    /* \"#utility.yul\":4320:4489   */\n  swap3\n  swap2\n  pop\n  pop\n  jump\t// out\n    /* \"#utility.yul\":4494:4789   */\ntag_52:\n    /* \"#utility.yul\":4570:4574   */\n  0x00\n    /* \"#utility.yul\":4716:4745   */\n  tag_118\n    /* \"#utility.yul\":4741:4744   */\n  dup4\n    /* \"#utility.yul\":4735:4739   */\n  dup4\n    /* \"#utility.yul\":4716:4745   */\n  tag_51\n  jump\t// in\ntag_118:\n    /* \"#utility.yul\":4708:4745   */\n  swap2\n  pop\n    /* \"#utility.yul\":4778:4781   */\n  dup3\n    /* \"#utility.yul\":4775:4776   */\n  0x02\n    /* \"#utility.yul\":4771:4782   */\n  mul\n    /* \"#utility.yul\":4765:4769   */\n  dup3\n    /* \"#utility.yul\":4762:4783   */\n  or\n    /* \"#utility.yul\":4754:4783   */\n  swap1\n  pop\n    /* \"#utility.yul\":4494:4789   */\n  swap3\n  swap2\n  pop\n  pop\n  jump\t// out\n    /* \"#utility.yul\":4794:6189   */\ntag_7:\n    /* \"#utility.yul\":4911:4948   */\n  tag_120\n    /* \"#utility.yul\":4944:4947   */\n  dup3\n    /* \"#utility.yul\":4911:4948   */\n  tag_34\n  jump\t// in\ntag_120:\n    /* \"#utility.yul\":5013:5031   */\n  0xffffffffffffffff\n    /* \"#utility.yul\":5005:5011   */\n  dup2\n    /* \"#utility.yul\":5002:5032   */\n  gt\n    /* \"#utility.yul\":4999:5055   */\n  iszero\n  tag_121\n  jumpi\n    /* \"#utility.yul\":5035:5053   */\n  tag_122\n  tag_35\n  jump\t// in\ntag_122:\n    /* \"#utility.yul\":4999:5055   */\ntag_121:\n    /* \"#utility.yul\":5079:5117   */\n  tag_123\n    /* \"#utility.yul\":5111:5115   */\n  dup3\n    /* \"#utility.yul\":5105:5116   */\n  sload\n    /* \"#utility.yul\":5079:5117   */\n  tag_37\n  jump\t// in\ntag_123:\n    /* \"#utility.yul\":5164:5231   */\n  tag_124\n    /* \"#utility.yul\":5224:5230   */\n  dup3\n    /* \"#utility.yul\":5216:5222   */\n  dup3\n    /* \"#utility.yul\":5210:5214   */\n  dup6\n    /* \"#utility.yul\":5164:5231   */\n  tag_49\n  jump\t// in\ntag_124:\n    /* \"#utility.yul\":5258:5259   */\n  0x00\n    /* \"#utility.yul\":5282:5286   */\n  0x20\n    /* \"#utility.yul\":5269:5286   */\n  swap1\n  pop\n    /* \"#utility.yul\":5314:5316   */\n  0x1f\n    /* \"#utility.yul\":5306:5312   */\n  dup4\n    /* \"#utility.yul\":5303:5317   */\n  gt\n    /* \"#utility.yul\":5331:5332   */\n  0x01\n    /* \"#utility.yul\":5326:5944   */\n  dup2\n  eq\n  tag_126\n  jumpi\n    /* \"#utility.yul\":5988:5989   */\n  0x00\n    /* \"#utility.yul\":6005:6011   */\n  dup5\n    /* \"#utility.yul\":6002:6079   */\n  iszero\n  tag_127\n  jumpi\n    /* \"#utility.yul\":6054:6063   */\n  dup3\n    /* \"#utility.yul\":6049:6052   */\n  dup8\n    /* \"#utility.yul\":6045:6064   */\n  add\n    /* \"#utility.yul\":6039:6065   */\n  mload\n    /* \"#utility.yul\":6030:6065   */\n  swap1\n  pop\n    /* \"#utility.yul\":6002:6079   */\ntag_127:\n    /* \"#utility.yul\":6105:6172   */\n  tag_128\n    /* \"#utility.yul\":6165:6171   */\n  dup6\n    /* \"#utility.yul\":6158:6163   */\n  dup3\n    /* \"#utility.yul\":6105:6172   */\n  tag_52\n  jump\t// in\ntag_128:\n    /* \"#utility.yul\":6099:6103   */\n  dup7\n    /* \"#utility.yul\":6092:6173   */\n  sstore\n    /* \"#utility.yul\":5961:6183   */\n  pop\n    /* \"#utility.yul\":5296:6183   */\n  jump(tag_125)\n    /* \"#utility.yul\":5326:5944   */\ntag_126:\n    /* \"#utility.yul\":5378:5382   */\n  0x1f\n    /* \"#utility.yul\":5374:5383   */\n  not\n    /* \"#utility.yul\":5366:5372   */\n  dup5\n    /* \"#utility.yul\":5362:5384   */\n  and\n    /* \"#utility.yul\":5412:5449   */\n  tag_129\n    /* \"#utility.yul\":5444:5448   */\n  dup7\n    /* \"#utility.yul\":5412:5449   */\n  tag_38\n  jump\t// in\ntag_129:\n    /* \"#utility.yul\":5471:5472   */\n  0x00\n    /* \"#utility.yul\":5485:5693   */\ntag_130:\n    /* \"#utility.yul\":5499:5506   */\n  dup3\n    /* \"#utility.yul\":5496:5497   */\n  dup2\n    /* \"#utility.yul\":5493:5507   */\n  lt\n    /* \"#utility.yul\":5485:5693   */\n  iszero\n  tag_132\n  jumpi\n    /* \"#utility.yul\":5578:5587   */\n  dup5\n    /* \"#utility.yul\":5573:5576   */\n  dup10\n    /* \"#utility.yul\":5569:5588   */\n  add\n    /* \"#utility.yul\":5563:5589   */\n  mload\n    /* \"#utility.yul\":5555:5561   */\n  dup3\n    /* \"#utility.yul\":5548:5590   */\n  sstore\n    /* \"#utility.yul\":5629:5630   */\n  0x01\n    /* \"#utility.yul\":5621:5627   */\n  dup3\n    /* \"#utility.yul\":5617:5631   */\n  add\n    /* \"#utility.yul\":5607:5631   */\n  swap2\n  pop\n    /* \"#utility.yul\":5676:5678   */\n  0x20\n    /* \"#utility.yul\":5665:5674   */\n  dup6\n    /* \"#utility.yul\":5661:5679   */\n  add\n    /* \"#utility.yul\":5648:5679   */\n  swap5\n  pop\n    /* \"#utility.yul\":5522:5526   */\n  0x20\n    /* \"#utility.yul\":5519:5520   */\n  dup2\n    /* \"#utility.yul\":5515:5527   */\n  add\n    /* \"#utility.yul\":5510:5527   */\n  swap1\n  pop\n    /* \"#utility.yul\":5485:5693   */\n  jump(tag_130)\ntag_132:\n    /* \"#utility.yul\":5721:5727   */\n  dup7\n    /* \"#utility.yul\":5712:5719   */\n  dup4\n    /* \"#utility.yul\":5709:5728   */\n  lt\n    /* \"#utility.yul\":5706:5885   */\n  iszero\n  tag_133\n  jumpi\n    /* \"#utility.yul\":5779:5788   */\n  dup5\n    /* \"#utility.yul\":5774:5777   */\n  dup10\n    /* \"#utility.yul\":5770:5789   */\n  add\n    /* \"#utility.yul\":5764:5790   */\n  mload\n    /* \"#utility.yul\":5822:5870   */\n  tag_134\n    /* \"#utility.yul\":5864:5868   */\n  0x1f\n    /* \"#utility.yul\":5856:5862   */\n  dup10\n    /* \"#utility.yul\":5852:5869   */\n  and\n    /* \"#utility.yul\":5841:5850   */\n  dup3\n    /* \"#utility.yul\":5822:5870   */\n  tag_51\n  jump\t// in\ntag_134:\n    /* \"#utility.yul\":5814:5820   */\n  dup4\n    /* \"#utility.yul\":5807:5871   */\n  sstore\n    /* \"#utility.yul\":5729:5885   */\n  pop\n    /* \"#utility.yul\":5706:5885   */\ntag_133:\n    /* \"#utility.yul\":5931:5932   */\n  0x01\n    /* \"#utility.yul\":5927:5928   */\n  0x02\n    /* \"#utility.yul\":5919:5925   */\n  dup9\n    /* \"#utility.yul\":5915:5929   */\n  mul\n    /* \"#utility.yul\":5911:5933   */\n  add\n    /* \"#utility.yul\":5905:5909   */\n  dup9\n    /* \"#utility.yul\":5898:5934   */\n  sstore\n    /* \"#utility.yul\":5333:5944   */\n  pop\n  pop\n  pop\n    /* \"#utility.yul\":5296:6183   */\ntag_125:\n  pop\n    /* \"#utility.yul\":4886:6189   */\n  pop\n  pop\n  pop\n    /* \"#utility.yul\":4794:6189   */\n  pop\n  pop\n  jump\t// out\n    /* \"#utility.yul\":6195:6375   */\ntag_53:\n    /* \"#utility.yul\":6243:6320   */\n  0x4e487b7100000000000000000000000000000000000000000000000000000000\n    /* \"#utility.yul\":6240:6241   */\n  0x00\n    /* \"#utility.yul\":6233:6321   */\n  mstore\n    /* \"#utility.yul\":6340:6344   */\n  0x11\n    /* \"#utility.yul\":6337:6338   */\n  0x04\n    /* \"#utility.yul\":6330:6345   */\n  mstore\n    /* \"#utility.yul\":6364:6368   */\n  0x24\n    /* \"#utility.yul\":6361:6362   */\n  0x00\n    /* \"#utility.yul\":6354:6369   */\n  revert\n    /* \"#utility.yul\":6381:6483   */\ntag_54:\n    /* \"#utility.yul\":6423:6431   */\n  0x00\n    /* \"#utility.yul\":6470:6475   */\n  dup2\n    /* \"#utility.yul\":6467:6468   */\n  0x01\n    /* \"#utility.yul\":6463:6476   */\n  shr\n    /* \"#utility.yul\":6442:6476   */\n  swap1\n  pop\n    /* \"#utility.yul\":6381:6483   */\n  swap2\n  swap1\n  pop\n  jump\t// out\n    /* \"#utility.yul\":6489:7337   */\ntag_55:\n    /* \"#utility.yul\":6550:6555   */\n  0x00\n    /* \"#utility.yul\":6557:6561   */\n  dup1\n    /* \"#utility.yul\":6581:6587   */\n  dup3\n    /* \"#utility.yul\":6572:6587   */\n  swap2\n  pop\n    /* \"#utility.yul\":6605:6610   */\n  dup4\n    /* \"#utility.yul\":6596:6610   */\n  swap1\n  pop\n    /* \"#utility.yul\":6619:7331   */\ntag_138:\n    /* \"#utility.yul\":6640:6641   */\n  0x01\n    /* \"#utility.yul\":6630:6638   */\n  dup6\n    /* \"#utility.yul\":6627:6642   */\n  gt\n    /* \"#utility.yul\":6619:7331   */\n  iszero\n  tag_140\n  jumpi\n    /* \"#utility.yul\":6735:6739   */\n  dup1\n    /* \"#utility.yul\":6730:6733   */\n  dup7\n    /* \"#utility.yul\":6726:6740   */\n  div\n    /* \"#utility.yul\":6720:6724   */\n  dup2\n    /* \"#utility.yul\":6717:6741   */\n  gt\n    /* \"#utility.yul\":6714:6764   */\n  iszero\n  tag_141\n  jumpi\n    /* \"#utility.yul\":6744:6762   */\n  tag_142\n  tag_53\n  jump\t// in\ntag_142:\n    /* \"#utility.yul\":6714:6764   */\ntag_141:\n    /* \"#utility.yul\":6794:6795   */\n  0x01\n    /* \"#utility.yul\":6784:6792   */\n  dup6\n    /* \"#utility.yul\":6780:6796   */\n  and\n    /* \"#utility.yul\":6777:7228   */\n  iszero\n  tag_143\n  jumpi\n    /* \"#utility.yul\":7209:7213   */\n  dup1\n    /* \"#utility.yul\":7202:7207   */\n  dup3\n    /* \"#utility.yul\":7198:7214   */\n  mul\n    /* \"#utility.yul\":7189:7214   */\n  swap2\n  pop\n    /* \"#utility.yul\":6777:7228   */\ntag_143:\n    /* \"#utility.yul\":7259:7263   */\n  dup1\n    /* \"#utility.yul\":7253:7257   */\n  dup2\n    /* \"#utility.yul\":7249:7264   */\n  mul\n    /* \"#utility.yul\":7241:7264   */\n  swap1\n  pop\n    /* \"#utility.yul\":7289:7321   */\n  tag_144\n    /* \"#utility.yul\":7312:7320   */\n  dup6\n    /* \"#utility.yul\":7289:7321   */\n  tag_54\n  jump\t// in\ntag_144:\n    /* \"#utility.yul\":7277:7321   */\n  swap5\n  pop\n    /* \"#utility.yul\":6619:7331   */\n  jump(tag_138)\ntag_140:\n    /* \"#utility.yul\":6489:7337   */\n  swap5\n  pop\n  swap5\n  swap3\n  pop\n  pop\n  pop\n  jump\t// out\n    /* \"#utility.yul\":7343:8416   */\ntag_56:\n    /* \"#utility.yul\":7397:7402   */\n  0x00\n    /* \"#utility.yul\":7588:7596   */\n  dup3\n    /* \"#utility.yul\":7578:7618   */\n  tag_146\n  jumpi\n    /* \"#utility.yul\":7609:7610   */\n  0x01\n    /* \"#utility.yul\":7600:7610   */\n  swap1\n  pop\n    /* \"#utility.yul\":7611:7616   */\n  jump(tag_145)\n    /* \"#utility.yul\":7578:7618   */\ntag_146:\n    /* \"#utility.yul\":7637:7641   */\n  dup2\n    /* \"#utility.yul\":7627:7663   */\n  tag_147\n  jumpi\n    /* \"#utility.yul\":7654:7655   */\n  0x00\n    /* \"#utility.yul\":7645:7655   */\n  swap1\n  pop\n    /* \"#utility.yul\":7656:7661   */\n  jump(tag_145)\n    /* \"#utility.yul\":7627:7663   */\ntag_147:\n    /* \"#utility.yul\":7723:7727   */\n  dup2\n    /* \"#utility.yul\":7771:7772   */\n  0x01\n    /* \"#utility.yul\":7766:7793   */\n  dup2\n  eq\n  tag_149\n  jumpi\n    /* \"#utility.yul\":7807:7808   */\n  0x02\n    /* \"#utility.yul\":7802:7993   */\n  dup2\n  eq\n  tag_150\n  jumpi\n    /* \"#utility.yul\":7716:7993   */\n  jump(tag_148)\n    /* \"#utility.yul\":7766:7793   */\ntag_149:\n    /* \"#utility.yul\":7784:7785   */\n  0x01\n    /* \"#utility.yul\":7775:7785   */\n  swap2\n  pop\n    /* \"#utility.yul\":7786:7791   */\n  pop\n  jump(tag_145)\n    /* \"#utility.yul\":7802:7993   */\ntag_150:\n    /* \"#utility.yul\":7847:7850   */\n  0xff\n    /* \"#utility.yul\":7837:7845   */\n  dup5\n    /* \"#utility.yul\":7834:7851   */\n  gt\n    /* \"#utility.yul\":7831:7874   */\n  iszero\n  tag_151\n  jumpi\n    /* \"#utility.yul\":7854:7872   */\n  tag_152\n  tag_53\n  jump\t// in\ntag_152:\n    /* \"#utility.yul\":7831:7874   */\ntag_151:\n    /* \"#utility.yul\":7903:7911   */\n  dup4\n    /* \"#utility.yul\":7900:7901   */\n  0x02\n    /* \"#utility.yul\":7896:7912   */\n  exp\n    /* \"#utility.yul\":7887:7912   */\n  swap2\n  pop\n    /* \"#utility.yul\":7938:7941   */\n  dup5\n    /* \"#utility.yul\":7931:7936   */\n  dup3\n    /* \"#utility.yul\":7928:7942   */\n  gt\n    /* \"#utility.yul\":7925:7965   */\n  iszero\n  tag_153\n  jumpi\n    /* \"#utility.yul\":7945:7963   */\n  tag_154\n  tag_53\n  jump\t// in\ntag_154:\n    /* \"#utility.yul\":7925:7965   */\ntag_153:\n    /* \"#utility.yul\":7978:7983   */\n  pop\n  jump(tag_145)\n    /* \"#utility.yul\":7716:7993   */\ntag_148:\n  pop\n    /* \"#utility.yul\":8102:8104   */\n  0x20\n    /* \"#utility.yul\":8092:8100   */\n  dup4\n    /* \"#utility.yul\":8089:8105   */\n  lt\n    /* \"#utility.yul\":8083:8086   */\n  0x0133\n    /* \"#utility.yul\":8077:8081   */\n  dup4\n    /* \"#utility.yul\":8074:8087   */\n  lt\n    /* \"#utility.yul\":8070:8106   */\n  and\n    /* \"#utility.yul\":8052:8054   */\n  0x4e\n    /* \"#utility.yul\":8042:8050   */\n  dup5\n    /* \"#utility.yul\":8039:8055   */\n  lt\n    /* \"#utility.yul\":8034:8036   */\n  0x0b\n    /* \"#utility.yul\":8028:8032   */\n  dup5\n    /* \"#utility.yul\":8025:8037   */\n  lt\n    /* \"#utility.yul\":8021:8056   */\n  and\n    /* \"#utility.yul\":8005:8116   */\n  or\n    /* \"#utility.yul\":8002:8248   */\n  iszero\n  tag_155\n  jumpi\n    /* \"#utility.yul\":8158:8166   */\n  dup3\n    /* \"#utility.yul\":8152:8156   */\n  dup3\n    /* \"#utility.yul\":8148:8167   */\n  exp\n    /* \"#utility.yul\":8139:8167   */\n  swap1\n  pop\n    /* \"#utility.yul\":8193:8196   */\n  dup4\n    /* \"#utility.yul\":8186:8191   */\n  dup2\n    /* \"#utility.yul\":8183:8197   */\n  gt\n    /* \"#utility.yul\":8180:8220   */\n  iszero\n  tag_156\n  jumpi\n    /* \"#utility.yul\":8200:8218   */\n  tag_157\n  tag_53\n  jump\t// in\ntag_157:\n    /* \"#utility.yul\":8180:8220   */\ntag_156:\n    /* \"#utility.yul\":8233:8238   */\n  jump(tag_145)\n    /* \"#utility.yul\":8002:8248   */\ntag_155:\n    /* \"#utility.yul\":8273:8315   */\n  tag_158\n    /* \"#utility.yul\":8311:8314   */\n  dup5\n    /* \"#utility.yul\":8301:8309   */\n  dup5\n    /* \"#utility.yul\":8295:8299   */\n  dup5\n    /* \"#utility.yul\":8292:8293   */\n  0x01\n    /* \"#utility.yul\":8273:8315   */\n  tag_55\n  jump\t// in\ntag_158:\n    /* \"#utility.yul\":8258:8315   */\n  swap3\n  pop\n  swap1\n  pop\n    /* \"#utility.yul\":8347:8351   */\n  dup2\n    /* \"#utility.yul\":8342:8345   */\n  dup5\n    /* \"#utility.yul\":8338:8352   */\n  div\n    /* \"#utility.yul\":8331:8336   */\n  dup2\n    /* \"#utility.yul\":8328:8353   */\n  gt\n    /* \"#utility.yul\":8325:8376   */\n  iszero\n  tag_159\n  jumpi\n    /* \"#utility.yul\":8356:8374   */\n  tag_160\n  tag_53\n  jump\t// in\ntag_160:\n    /* \"#utility.yul\":8325:8376   */\ntag_159:\n    /* \"#utility.yul\":8405:8409   */\n  dup2\n    /* \"#utility.yul\":8398:8403   */\n  dup2\n    /* \"#utility.yul\":8394:8410   */\n  mul\n    /* \"#utility.yul\":8385:8410   */\n  swap1\n  pop\n    /* \"#utility.yul\":7343:8416   */\ntag_145:\n  swap4\n  swap3\n  pop\n  pop\n  pop\n  jump\t// out\n    /* \"#utility.yul\":8422:8707   */\ntag_13:\n    /* \"#utility.yul\":8482:8487   */\n  0x00\n    /* \"#utility.yul\":8506:8529   */\n  tag_162\n    /* \"#utility.yul\":8524:8528   */\n  dup3\n    /* \"#utility.yul\":8506:8529   */\n  tag_31\n  jump\t// in\ntag_162:\n    /* \"#utility.yul\":8498:8529   */\n  swap2\n  pop\n    /* \"#utility.yul\":8550:8577   */\n  tag_163\n    /* \"#utility.yul\":8568:8576   */\n  dup4\n    /* \"#utility.yul\":8550:8577   */\n  tag_31\n  jump\t// in\ntag_163:\n    /* \"#utility.yul\":8538:8577   */\n  swap3\n  pop\n    /* \"#utility.yul\":8596:8700   */\n  tag_164\n    /* \"#utility.yul\":8633:8699   */\n  0xffffffffffffffffffffffffffffffffffffffffffffffffffffffffffffffff\n    /* \"#utility.yul\":8623:8631   */\n  dup5\n    /* \"#utility.yul\":8617:8621   */\n  dup5\n    /* \"#utility.yul\":8596:8700   */\n  tag_56\n  jump\t// in\ntag_164:\n    /* \"#utility.yul\":8587:8700   */\n  swap1\n  pop\n    /* \"#utility.yul\":8422:8707   */\n  swap3\n  swap2\n  pop\n  pop\n  jump\t// out\n    /* \"#utility.yul\":8713:9123   */\ntag_15:\n    /* \"#utility.yul\":8753:8760   */\n  0x00\n    /* \"#utility.yul\":8776:8796   */\n  tag_166\n    /* \"#utility.yul\":8794:8795   */\n  dup3\n    /* \"#utility.yul\":8776:8796   */\n  tag_31\n  jump\t// in\ntag_166:\n    /* \"#utility.yul\":8771:8796   */\n  swap2\n  pop\n    /* \"#utility.yul\":8810:8830   */\n  tag_167\n    /* \"#utility.yul\":8828:8829   */\n  dup4\n    /* \"#utility.yul\":8810:8830   */\n  tag_31\n  jump\t// in\ntag_167:\n    /* \"#utility.yul\":8805:8830   */\n  swap3\n  pop\n    /* \"#utility.yul\":8865:8866   */\n  dup3\n    /* \"#utility.yul\":8862:8863   */\n  dup3\n    /* \"#utility.yul\":8858:8867   */\n  mul\n    /* \"#utility.yul\":8887:8917   */\n  tag_168\n    /* \"#utility.yul\":8905:8916   */\n  dup2\n    /* \"#utility.yul\":8887:8917   */\n  tag_31\n  jump\t// in\ntag_168:\n    /* \"#utility.yul\":8876:8917   */\n  swap2\n  pop\n    /* \"#utility.yul\":9066:9067   */\n  dup3\n    /* \"#utility.yul\":9057:9064   */\n  dup3\n    /* \"#utility.yul\":9053:9068   */\n  div\n    /* \"#utility.yul\":9050:9051   */\n  dup5\n    /* \"#utility.yul\":9047:9069   */\n  eq\n    /* \"#utility.yul\":9027:9028   */\n  dup4\n    /* \"#utility.yul\":9020:9029   */\n  iszero\n    /* \"#utility.yul\":9000:9083   */\n  or\n    /* \"#utility.yul\":8977:9116   */\n  tag_169\n  jumpi\n    /* \"#utility.yul\":9096:9114   */\n  tag_170\n  tag_53\n  jump\t// in\ntag_170:\n    /* \"#utility.yul\":8977:9116   */\ntag_169:\n    /* \"#utility.yul\":8761:9123   */\n  pop\n    /* \"#utility.yul\":8713:9123   */\n  swap3\n  swap2\n  pop\n  pop\n  jump\t// out\n    /* \"#utility.yul\":9129:9298   */\ntag_57:\n    /* \"#utility.yul\":9213:9224   */\n  0x00\n    /* \"#utility.yul\":9247:9253   */\n  dup3\n    /* \"#utility.yul\":9242:9245   */\n  dup3\n    /* \"#utility.yul\":9235:9254   */\n  mstore\n    /* \"#utility.yul\":9287:9291   */\n  0x20\n    /* \"#utility.yul\":9282:9285   */\n  dup3\n    /* \"#utility.yul\":9278:9292   */\n  add\n    /* \"#utility.yul\":9263:9292   */\n  swap1\n  pop\n    /* \"#utility.yul\":9129:9298   */\n  swap3\n  swap2\n  pop\n  pop\n  jump\t// out\n    /* \"#utility.yul\":9304:9485   */\ntag_58:\n    /* \"#utility.yul\":9444:9477   */\n  0x45524332303a206d696e7420746f20746865207a65726f206164647265737300\n    /* \"#utility.yul\":9440:9441   */\n  0x00\n    /* \"#utility.yul\":9432:9438   */\n  dup3\n    /* \"#utility.yul\":9428:9442   */\n  add\n    /* \"#utility.yul\":9421:9478   */\n  mstore\n    /* \"#utility.yul\":9304:9485   */\n  pop\n  jump\t// out\n    /* \"#utility.yul\":9491:9857   */\ntag_59:\n    /* \"#utility.yul\":9633:9636   */\n  0x00\n    /* \"#utility.yul\":9654:9721   */\n  tag_174\n    /* \"#utility.yul\":9718:9720   */\n  0x1f\n    /* \"#utility.yul\":9713:9716   */\n  dup4\n    /* \"#utility.yul\":9654:9721   */\n  tag_57\n  jump\t// in\ntag_174:\n    /* \"#utility.yul\":9647:9721   */\n  swap2\n  pop\n    /* \"#utility.yul\":9730:9823   */\n  tag_175\n    /* \"#utility.yul\":9819:9822   */\n  dup3\n    /* \"#utility.yul\":9730:9823   */\n  tag_58\n  jump\t// in\ntag_175:\n    /* \"#utility.yul\":9848:9850   */\n  0x20\n    /* \"#utility.yul\":9843:9846   */\n  dup3\n    /* \"#utility.yul\":9839:9851   */\n  add\n    /* \"#utility.yul\":9832:9851   */\n  swap1\n  pop\n    /* \"#utility.yul\":9491:9857   */\n  swap2\n  swap1\n  pop\n  jump\t// out\n    /* \"#utility.yul\":9863:10282   */\ntag_22:\n    /* \"#utility.yul\":10029:10033   */\n  0x00\n    /* \"#utility.yul\":10067:10069   */\n  0x20\n    /* \"#utility.yul\":10056:10065   */\n  dup3\n    /* \"#utility.yul\":10052:10070   */\n  add\n    /* \"#utility.yul\":10044:10070   */\n  swap1\n  pop\n    /* \"#utility.yul\":10116:10125   */\n  dup2\n    /* \"#utility.yul\":10110:10114   */\n  dup2\n    /* \"#utility.yul\":10106:10126   */\n  sub\n    /* \"#utility.yul\":10102:10103   */\n  0x00\n    /* \"#utility.yul\":10091:10100   */\n  dup4\n    /* \"#utility.yul\":10087:10104   */\n  add\n    /* \"#utility.yul\":10080:10127   */\n  mstore\n    /* \"#utility.yul\":10144:10275   */\n  tag_177\n    /* \"#utility.yul\":10270:10274   */\n  dup2\n    /* \"#utility.yul\":10144:10275   */\n  tag_59\n  jump\t// in\ntag_177:\n    /* \"#utility.yul\":10136:10275   */\n  swap1\n  pop\n    /* \"#utility.yul\":9863:10282   */\n  swap2\n  swap1\n  pop\n  jump\t// out\n    /* \"#utility.yul\":10288:10479   */\ntag_24:\n    /* \"#utility.yul\":10328:10331   */\n  0x00\n    /* \"#utility.yul\":10347:10367   */\n  tag_179\n    /* \"#utility.yul\":10365:10366   */\n  dup3\n    /* \"#utility.yul\":10347:10367   */\n  tag_31\n  jump\t// in\ntag_179:\n    /* \"#utility.yul\":10342:10367   */\n  swap2\n  pop\n    /* \"#utility.yul\":10381:10401   */\n  tag_180\n    /* \"#utility.yul\":10399:10400   */\n  dup4\n    /* \"#utility.yul\":10381:10401   */\n  tag_31\n  jump\t// in\ntag_180:\n    /* \"#utility.yul\":10376:10401   */\n  swap3\n  pop\n    /* \"#utility.yul\":10424:10425   */\n  dup3\n    /* \"#utility.yul\":10421:10422   */\n  dup3\n    /* \"#utility.yul\":10417:10426   */\n  add\n    /* \"#utility.yul\":10410:10426   */\n  swap1\n  pop\n    /* \"#utility.yul\":10445:10448   */\n  dup1\n    /* \"#utility.yul\":10442:10443   */\n  dup3\n    /* \"#utility.yul\":10439:10449   */\n  gt\n    /* \"#utility.yul\":10436:10472   */\n  iszero\n  tag_181\n  jumpi\n    /* \"#utility.yul\":10452:10470   */\n  tag_182\n  tag_53\n  jump\t// in\ntag_182:\n    /* \"#utility.yul\":10436:10472   */\ntag_181:\n    /* \"#utility.yul\":10288:10479   */\n  swap3\n  swap2\n  pop\n  pop\n  jump\t// out\n    /* \"#utility.yul\":10485:10603   */\ntag_60:\n    /* \"#utility.yul\":10572:10596   */\n  tag_184\n    /* \"#utility.yul\":10590:10595   */\n  dup2\n    /* \"#utility.yul\":10572:10596   */\n  tag_31\n  jump\t// in\ntag_184:\n    /* \"#utility.yul\":10567:10570   */\n  dup3\n    /* \"#utility.yul\":10560:10597   */\n  mstore\n    /* \"#utility.yul\":10485:10603   */\n  pop\n  pop\n  jump\t// out\n    /* \"#utility.yul\":10609:10831   */\ntag_27:\n    /* \"#utility.yul\":10702:10706   */\n  0x00\n    /* \"#utility.yul\":10740:10742   */\n  0x20\n    /* \"#utility.yul\":10729:10738   */\n  dup3\n    /* \"#utility.yul\":10725:10743   */\n  add\n    /* \"#utility.yul\":10717:10743   */\n  swap1\n  pop\n    /* \"#utility.yul\":10753:10824   */\n  tag_186\n    /* \"#utility.yul\":10821:10822   */\n  0x00\n    /* \"#utility.yul\":10810:10819   */\n  dup4\n    /* \"#utility.yul\":10806:10823   */\n  add\n    /* \"#utility.yul\":10797:10803   */\n  dup5\n    /* \"#utility.yul\":10753:10824   */\n  tag_60\n  jump\t// in\ntag_186:\n    /* \"#utility.yul\":10609:10831   */\n  swap3\n  swap2\n  pop\n  pop\n  jump\t// out\n    /* \"contract/Mytoken.sol\":124:4596  contract Mytoken2 is ConText{... */\ntag_17:\n  dataSize(sub_0)\n  dup1\n  dataOffset(sub_0)\n  0x00\n  codecopy\n  0x00\n  return\nstop\n\nsub_0: assembly {\n        /* \"contract/Mytoken.sol\":124:4596  contract Mytoken2 is ConText{... */\n      mstore(0x40, 0x80)\n      callvalue\n      dup1\n      iszero\n      tag_1\n      jumpi\n      0x00\n      dup1\n      revert\n    tag_1:\n      pop\n      jumpi(tag_2, lt(calldatasize, 0x04))\n      shr(0xe0, calldataload(0x00))\n      dup1\n      0x23b872dd\n      gt\n      tag_12\n      jumpi\n      dup1\n      0x23b872dd\n      eq\n      tag_7\n      jumpi\n      dup1\n      0x313ce567\n      eq\n      tag_8\n      jumpi\n      dup1\n      0x70a08231\n      eq\n      tag_9\n      jumpi\n      dup1\n      0x95d89b41\n      eq\n      tag_10\n      jumpi\n      dup1\n      0xa9059cbb\n      eq\n      tag_11\n      jumpi\n      jump(tag_2)\n    tag_12:\n      dup1\n      0x06fdde03\n      eq\n      tag_3\n      jumpi\n      dup1\n      0x095ea7b3\n      eq\n      tag_4\n      jumpi\n      dup1\n      0x18160ddd\n      eq\n      tag_5\n      jumpi\n      dup1\n      0x1a46ec82\n      eq\n      tag_6\n      jumpi\n    tag_2:\n      0x00\n      dup1\n      revert\n        /* \"contract/Mytoken.sol\":939:1021  function name() public view returns (string memory){... */\n    tag_3:\n      tag_13\n      tag_14\n      jump\t// in\n    tag_13:\n      mload(0x40)\n      tag_15\n      swap2\n      swap1\n      tag_16\n      jump\t// in\n    tag_15:\n      mload(0x40)\n      dup1\n      swap2\n      sub\n      swap1\n      return\n        /* \"contract/Mytoken.sol\":2052:2383  function approve(address spender, uint256 amount) public returns (bool){... */\n    tag_4:\n      tag_17\n      0x04\n      dup1\n      calldatasize\n      sub\n      dup2\n      add\n      swap1\n      tag_18\n      swap2\n      swap1\n      tag_19\n      jump\t// in\n    tag_18:\n      tag_20\n      jump\t// in\n    tag_17:\n      mload(0x40)\n      tag_21\n      swap2\n      swap1\n      tag_22\n      jump\t// in\n    tag_21:\n      mload(0x40)\n      dup1\n      swap2\n      sub\n      swap1\n      return\n        /* \"contract/Mytoken.sol\":1326:1417  function totalSupply() public view returns (uint256){... */\n    tag_5:\n      tag_23\n      tag_24\n      jump\t// in\n    tag_23:\n      mload(0x40)\n      tag_25\n      swap2\n      swap1\n      tag_26\n      jump\t// in\n    tag_25:\n      mload(0x40)\n      dup1\n      swap2\n      sub\n      swap1\n      return\n        /* \"contract/Mytoken.sol\":1633:1767  function allowanceOf(address owner,address spender) public view returns(uint256){... */\n    tag_6:\n      tag_27\n      0x04\n      dup1\n      calldatasize\n      sub\n      dup2\n      add\n      swap1\n      tag_28\n      swap2\n      swap1\n      tag_29\n      jump\t// in\n    tag_28:\n      tag_30\n      jump\t// in\n    tag_27:\n      mload(0x40)\n      tag_31\n      swap2\n      swap1\n      tag_26\n      jump\t// in\n    tag_31:\n      mload(0x40)\n      dup1\n      swap2\n      sub\n      swap1\n      return\n        /* \"contract/Mytoken.sol\":2417:2799  function transferFrom(address from, address to, uint256 amount) public returns (bool){... */\n    tag_7:\n      tag_32\n      0x04\n      dup1\n      calldatasize\n      sub\n      dup2\n      add\n      swap1\n      tag_33\n      swap2\n      swap1\n      tag_34\n      jump\t// in\n    tag_33:\n      tag_35\n      jump\t// in\n    tag_32:\n      mload(0x40)\n      tag_36\n      swap2\n      swap1\n      tag_22\n      jump\t// in\n    tag_36:\n      mload(0x40)\n      dup1\n      swap2\n      sub\n      swap1\n      return\n        /* \"contract/Mytoken.sol\":1201:1284  function decimals() public view returns (uint8){... */\n    tag_8:\n      tag_37\n      tag_38\n      jump\t// in\n    tag_37:\n      mload(0x40)\n      tag_39\n      swap2\n      swap1\n      tag_40\n      jump\t// in\n    tag_39:\n      mload(0x40)\n      dup1\n      swap2\n      sub\n      swap1\n      return\n        /* \"contract/Mytoken.sol\":1468:1577  function balanceOf(address account) public view returns (uint256){... */\n    tag_9:\n      tag_41\n      0x04\n      dup1\n      calldatasize\n      sub\n      dup2\n      add\n      swap1\n      tag_42\n      swap2\n      swap1\n      tag_43\n      jump\t// in\n    tag_42:\n      tag_44\n      jump\t// in\n    tag_41:\n      mload(0x40)\n      tag_45\n      swap2\n      swap1\n      tag_26\n      jump\t// in\n    tag_45:\n      mload(0x40)\n      dup1\n      swap2\n      sub\n      swap1\n      return\n        /* \"contract/Mytoken.sol\":1058:1146  function symbol() public view returns (string memory){... */\n    tag_10:\n      tag_46\n      tag_47\n      jump\t// in\n    tag_46:\n      mload(0x40)\n      tag_48\n      swap2\n      swap1\n      tag_16\n      jump\t// in\n    tag_48:\n      mload(0x40)\n      dup1\n      swap2\n      sub\n      swap1\n      return\n        /* \"contract/Mytoken.sol\":1818:2018  function transfer(address _to, uint256 amount) public returns (bool){... */\n    tag_11:\n      tag_49\n      0x04\n      dup1\n      calldatasize\n      sub\n      dup2\n      add\n      swap1\n      tag_50\n      swap2\n      swap1\n      tag_19\n      jump\t// in\n    tag_50:\n      tag_51\n      jump\t// in\n    tag_49:\n      mload(0x40)\n      tag_52\n      swap2\n      swap1\n      tag_22\n      jump\t// in\n    tag_52:\n      mload(0x40)\n      dup1\n      swap2\n      sub\n      swap1\n      return\n        /* \"contract/Mytoken.sol\":939:1021  function name() public view returns (string memory){... */\n    tag_14:\n        /* \"contract/Mytoken.sol\":976:989  string memory */\n      0x60\n        /* \"contract/Mytoken.sol\":1008:1013  _name */\n      0x00\n        /* \"contract/Mytoken.sol\":1001:1013  return _name */\n      dup1\n      sload\n      tag_54\n      swap1\n      tag_55\n      jump\t// in\n    tag_54:\n      dup1\n      0x1f\n      add\n      0x20\n      dup1\n      swap2\n      div\n      mul\n      0x20\n      add\n      mload(0x40)\n      swap1\n      dup2\n      add\n      0x40\n      mstore\n      dup1\n      swap3\n      swap2\n      swap1\n      dup2\n      dup2\n      mstore\n      0x20\n      add\n      dup3\n      dup1\n      sload\n      tag_56\n      swap1\n      tag_55\n      jump\t// in\n    tag_56:\n      dup1\n      iszero\n      tag_57\n      jumpi\n      dup1\n      0x1f\n      lt\n      tag_58\n      jumpi\n      0x0100\n      dup1\n      dup4\n      sload\n      div\n      mul\n      dup4\n      mstore\n      swap2\n      0x20\n      add\n      swap2\n      jump(tag_57)\n    tag_58:\n      dup3\n      add\n      swap2\n      swap1\n      0x00\n      mstore\n      keccak256(0x00, 0x20)\n      swap1\n    tag_59:\n      dup2\n      sload\n      dup2\n      mstore\n      swap1\n      0x01\n      add\n      swap1\n      0x20\n      add\n      dup1\n      dup4\n      gt\n      tag_59\n      jumpi\n      dup3\n      swap1\n      sub\n      0x1f\n      and\n      dup3\n      add\n      swap2\n    tag_57:\n      pop\n      pop\n      pop\n      pop\n      pop\n      swap1\n      pop\n        /* \"contract/Mytoken.sol\":939:1021  function name() public view returns (string memory){... */\n      swap1\n      jump\t// out\n        /* \"contract/Mytoken.sol\":2052:2383  function approve(address spender, uint256 amount) public returns (bool){... */\n    tag_20:\n        /* \"contract/Mytoken.sol\":2118:2122  bool */\n      0x00\n        /* \"contract/Mytoken.sol\":2187:2200  address owner */\n      dup1\n        /* \"contract/Mytoken.sol\":2203:2215  _msgSender() */\n      tag_61\n        /* \"contract/Mytoken.sol\":2203:2213  _msgSender */\n      tag_62\n        /* \"contract/Mytoken.sol\":2203:2215  _msgSender() */\n      jump\t// in\n    tag_61:\n        /* \"contract/Mytoken.sol\":2187:2215  address owner = _msgSender() */\n      swap1\n      pop\n        /* \"contract/Mytoken.sol\":2322:2352  _approve(owner,spender,amount) */\n      tag_63\n        /* \"contract/Mytoken.sol\":2331:2336  owner */\n      dup2\n        /* \"contract/Mytoken.sol\":2337:2344  spender */\n      dup6\n        /* \"contract/Mytoken.sol\":2345:2351  amount */\n      dup6\n        /* \"contract/Mytoken.sol\":2322:2330  _approve */\n      tag_64\n        /* \"contract/Mytoken.sol\":2322:2352  _approve(owner,spender,amount) */\n      jump\t// in\n    tag_63:\n        /* \"contract/Mytoken.sol\":2371:2375  true */\n      0x01\n        /* \"contract/Mytoken.sol\":2363:2375  return  true */\n      swap2\n      pop\n      pop\n        /* \"contract/Mytoken.sol\":2052:2383  function approve(address spender, uint256 amount) public returns (bool){... */\n      swap3\n      swap2\n      pop\n      pop\n      jump\t// out\n        /* \"contract/Mytoken.sol\":1326:1417  function totalSupply() public view returns (uint256){... */\n    tag_24:\n        /* \"contract/Mytoken.sol\":1370:1377  uint256 */\n      0x00\n        /* \"contract/Mytoken.sol\":1396:1408  _totalSupply */\n      sload(0x03)\n        /* \"contract/Mytoken.sol\":1389:1408  return _totalSupply */\n      swap1\n      pop\n        /* \"contract/Mytoken.sol\":1326:1417  function totalSupply() public view returns (uint256){... */\n      swap1\n      jump\t// out\n        /* \"contract/Mytoken.sol\":1633:1767  function allowanceOf(address owner,address spender) public view returns(uint256){... */\n    tag_30:\n        /* \"contract/Mytoken.sol\":1705:1712  uint256 */\n      0x00\n        /* \"contract/Mytoken.sol\":1732:1742  _allowance */\n      0x05\n        /* \"contract/Mytoken.sol\":1732:1749  _allowance[owner] */\n      0x00\n        /* \"contract/Mytoken.sol\":1743:1748  owner */\n      dup5\n        /* \"contract/Mytoken.sol\":1732:1749  _allowance[owner] */\n      0xffffffffffffffffffffffffffffffffffffffff\n      and\n      0xffffffffffffffffffffffffffffffffffffffff\n      and\n      dup2\n      mstore\n      0x20\n      add\n      swap1\n      dup2\n      mstore\n      0x20\n      add\n      0x00\n      keccak256\n        /* \"contract/Mytoken.sol\":1732:1758  _allowance[owner][spender] */\n      0x00\n        /* \"contract/Mytoken.sol\":1750:1757  spender */\n      dup4\n        /* \"contract/Mytoken.sol\":1732:1758  _allowance[owner][spender] */\n      0xffffffffffffffffffffffffffffffffffffffff\n      and\n      0xffffffffffffffffffffffffffffffffffffffff\n      and\n      dup2\n      mstore\n      0x20\n      add\n      swap1\n      dup2\n      mstore\n      0x20\n      add\n      0x00\n      keccak256\n      sload\n        /* \"contract/Mytoken.sol\":1724:1758  return  _allowance[owner][spender] */\n      swap1\n      pop\n        /* \"contract/Mytoken.sol\":1633:1767  function allowanceOf(address owner,address spender) public view returns(uint256){... */\n      swap3\n      swap2\n      pop\n      pop\n      jump\t// out\n        /* \"contract/Mytoken.sol\":2417:2799  function transferFrom(address from, address to, uint256 amount) public returns (bool){... */\n    tag_35:\n        /* \"contract/Mytoken.sol\":2497:2501  bool */\n      0x00\n        /* \"contract/Mytoken.sol\":2513:2526  address owner */\n      dup1\n        /* \"contract/Mytoken.sol\":2529:2541  _msgSender() */\n      tag_68\n        /* \"contract/Mytoken.sol\":2529:2539  _msgSender */\n      tag_62\n        /* \"contract/Mytoken.sol\":2529:2541  _msgSender() */\n      jump\t// in\n    tag_68:\n        /* \"contract/Mytoken.sol\":2513:2541  address owner = _msgSender() */\n      swap1\n      pop\n        /* \"contract/Mytoken.sol\":2590:2626  _spendAllowance(from, owner, amount) */\n      tag_69\n        /* \"contract/Mytoken.sol\":2606:2610  from */\n      dup6\n        /* \"contract/Mytoken.sol\":2612:2617  owner */\n      dup3\n        /* \"contract/Mytoken.sol\":2619:2625  amount */\n      dup6\n        /* \"contract/Mytoken.sol\":2590:2605  _spendAllowance */\n      tag_70\n        /* \"contract/Mytoken.sol\":2590:2626  _spendAllowance(from, owner, amount) */\n      jump\t// in\n    tag_69:\n        /* \"contract/Mytoken.sol\":2741:2768  _transfer(from, to, amount) */\n      tag_71\n        /* \"contract/Mytoken.sol\":2751:2755  from */\n      dup6\n        /* \"contract/Mytoken.sol\":2757:2759  to */\n      dup6\n        /* \"contract/Mytoken.sol\":2761:2767  amount */\n      dup6\n        /* \"contract/Mytoken.sol\":2741:2750  _transfer */\n      tag_72\n        /* \"contract/Mytoken.sol\":2741:2768  _transfer(from, to, amount) */\n      jump\t// in\n    tag_71:\n        /* \"contract/Mytoken.sol\":2787:2791  true */\n      0x01\n        /* \"contract/Mytoken.sol\":2779:2791  return  true */\n      swap2\n      pop\n      pop\n        /* \"contract/Mytoken.sol\":2417:2799  function transferFrom(address from, address to, uint256 amount) public returns (bool){... */\n      swap4\n      swap3\n      pop\n      pop\n      pop\n      jump\t// out\n        /* \"contract/Mytoken.sol\":1201:1284  function decimals() public view returns (uint8){... */\n    tag_38:\n        /* \"contract/Mytoken.sol\":1242:1247  uint8 */\n      0x00\n        /* \"contract/Mytoken.sol\":1266:1275  _decimals */\n      0x02\n      0x00\n      swap1\n      sload\n      swap1\n      0x0100\n      exp\n      swap1\n      div\n      0xff\n      and\n        /* \"contract/Mytoken.sol\":1259:1275  return _decimals */\n      swap1\n      pop\n        /* \"contract/Mytoken.sol\":1201:1284  function decimals() public view returns (uint8){... */\n      swap1\n      jump\t// out\n        /* \"contract/Mytoken.sol\":1468:1577  function balanceOf(address account) public view returns (uint256){... */\n    tag_44:\n        /* \"contract/Mytoken.sol\":1525:1532  uint256 */\n      0x00\n        /* \"contract/Mytoken.sol\":1551:1559  _balance */\n      0x04\n        /* \"contract/Mytoken.sol\":1551:1568  _balance[account] */\n      0x00\n        /* \"contract/Mytoken.sol\":1560:1567  account */\n      dup4\n        /* \"contract/Mytoken.sol\":1551:1568  _balance[account] */\n      0xffffffffffffffffffffffffffffffffffffffff\n      and\n      0xffffffffffffffffffffffffffffffffffffffff\n      and\n      dup2\n      mstore\n      0x20\n      add\n      swap1\n      dup2\n      mstore\n      0x20\n      add\n      0x00\n      keccak256\n      sload\n        /* \"contract/Mytoken.sol\":1544:1568  return _balance[account] */\n      swap1\n      pop\n        /* \"contract/Mytoken.sol\":1468:1577  function balanceOf(address account) public view returns (uint256){... */\n      swap2\n      swap1\n      pop\n      jump\t// out\n        /* \"contract/Mytoken.sol\":1058:1146  function symbol() public view returns (string memory){... */\n    tag_47:\n        /* \"contract/Mytoken.sol\":1097:1110  string memory */\n      0x60\n        /* \"contract/Mytoken.sol\":1130:1137  _symbol */\n      0x01\n        /* \"contract/Mytoken.sol\":1122:1137  return  _symbol */\n      dup1\n      sload\n      tag_76\n      swap1\n      tag_55\n      jump\t// in\n    tag_76:\n      dup1\n      0x1f\n      add\n      0x20\n      dup1\n      swap2\n      div\n      mul\n      0x20\n      add\n      mload(0x40)\n      swap1\n      dup2\n      add\n      0x40\n      mstore\n      dup1\n      swap3\n      swap2\n      swap1\n      dup2\n      dup2\n      mstore\n      0x20\n      add\n      dup3\n      dup1\n      sload\n      tag_77\n      swap1\n      tag_55\n      jump\t// in\n    tag_77:\n      dup1\n      iszero\n      tag_78\n      jumpi\n      dup1\n      0x1f\n      lt\n      tag_79\n      jumpi\n      0x0100\n      dup1\n      dup4\n      sload\n      div\n      mul\n      dup4\n      mstore\n      swap2\n      0x20\n      add\n      swap2\n      jump(tag_78)\n    tag_79:\n      dup3\n      add\n      swap2\n      swap1\n      0x00\n      mstore\n      keccak256(0x00, 0x20)\n      swap1\n    tag_80:\n      dup2\n      sload\n      dup2\n      mstore\n      swap1\n      0x01\n      add\n      swap1\n      0x20\n      add\n      dup1\n      dup4\n      gt\n      tag_80\n      jumpi\n      dup3\n      swap1\n      sub\n      0x1f\n      and\n      dup3\n      add\n      swap2\n    tag_78:\n      pop\n      pop\n      pop\n      pop\n      pop\n      swap1\n      pop\n        /* \"contract/Mytoken.sol\":1058:1146  function symbol() public view returns (string memory){... */\n      swap1\n      jump\t// out\n        /* \"contract/Mytoken.sol\":1818:2018  function transfer(address _to, uint256 amount) public returns (bool){... */\n    tag_51:\n        /* \"contract/Mytoken.sol\":1881:1885  bool */\n      0x00\n        /* \"contract/Mytoken.sol\":1897:1910  address owner */\n      dup1\n        /* \"contract/Mytoken.sol\":1913:1925  _msgSender() */\n      tag_82\n        /* \"contract/Mytoken.sol\":1913:1923  _msgSender */\n      tag_62\n        /* \"contract/Mytoken.sol\":1913:1925  _msgSender() */\n      jump\t// in\n    tag_82:\n        /* \"contract/Mytoken.sol\":1897:1925  address owner = _msgSender() */\n      swap1\n      pop\n        /* \"contract/Mytoken.sol\":1960:1987  _transfer(owner,_to,amount) */\n      tag_83\n        /* \"contract/Mytoken.sol\":1970:1975  owner */\n      dup2\n        /* \"contract/Mytoken.sol\":1976:1979  _to */\n      dup6\n        /* \"contract/Mytoken.sol\":1980:1986  amount */\n      dup6\n        /* \"contract/Mytoken.sol\":1960:1969  _transfer */\n      tag_72\n        /* \"contract/Mytoken.sol\":1960:1987  _transfer(owner,_to,amount) */\n      jump\t// in\n    tag_83:\n        /* \"contract/Mytoken.sol\":2006:2010  true */\n      0x01\n        /* \"contract/Mytoken.sol\":1998:2010  return  true */\n      swap2\n      pop\n      pop\n        /* \"contract/Mytoken.sol\":1818:2018  function transfer(address _to, uint256 amount) public returns (bool){... */\n      swap3\n      swap2\n      pop\n      pop\n      jump\t// out\n        /* \"contract/ConText.sol\":84:172  function _msgSender() internal view returns(address){... */\n    tag_62:\n        /* \"contract/ConText.sol\":128:135  address */\n      0x00\n        /* \"contract/ConText.sol\":154:164  msg.sender */\n      caller\n        /* \"contract/ConText.sol\":147:164  return msg.sender */\n      swap1\n      pop\n        /* \"contract/ConText.sol\":84:172  function _msgSender() internal view returns(address){... */\n      swap1\n      jump\t// out\n        /* \"contract/Mytoken.sol\":3832:4190  function _approve(address owner,address spender,uint256 amount) internal {... */\n    tag_64:\n        /* \"contract/Mytoken.sol\":3941:3942  0 */\n      0x00\n        /* \"contract/Mytoken.sol\":3924:3943  owner != address(0) */\n      0xffffffffffffffffffffffffffffffffffffffff\n      and\n        /* \"contract/Mytoken.sol\":3924:3929  owner */\n      dup4\n        /* \"contract/Mytoken.sol\":3924:3943  owner != address(0) */\n      0xffffffffffffffffffffffffffffffffffffffff\n      and\n      sub\n        /* \"contract/Mytoken.sol\":3916:3983  require(owner != address(0),\"ERC20: approve form the zero address\") */\n      tag_86\n      jumpi\n      mload(0x40)\n      0x08c379a000000000000000000000000000000000000000000000000000000000\n      dup2\n      mstore\n      0x04\n      add\n      tag_87\n      swap1\n      tag_88\n      jump\t// in\n    tag_87:\n      mload(0x40)\n      dup1\n      swap2\n      sub\n      swap1\n      revert\n    tag_86:\n        /* \"contract/Mytoken.sol\":4021:4022  0 */\n      0x00\n        /* \"contract/Mytoken.sol\":4002:4023  spender != address(0) */\n      0xffffffffffffffffffffffffffffffffffffffff\n      and\n        /* \"contract/Mytoken.sol\":4002:4009  spender */\n      dup3\n        /* \"contract/Mytoken.sol\":4002:4023  spender != address(0) */\n      0xffffffffffffffffffffffffffffffffffffffff\n      and\n      sub\n        /* \"contract/Mytoken.sol\":3994:4063  require(spender != address(0),\"ERC20: spender form the zero address\") */\n      tag_89\n      jumpi\n      mload(0x40)\n      0x08c379a000000000000000000000000000000000000000000000000000000000\n      dup2\n      mstore\n      0x04\n      add\n      tag_90\n      swap1\n      tag_91\n      jump\t// in\n    tag_90:\n      mload(0x40)\n      dup1\n      swap2\n      sub\n      swap1\n      revert\n    tag_89:\n        /* \"contract/Mytoken.sol\":4127:4133  amount */\n      dup1\n        /* \"contract/Mytoken.sol\":4098:4108  _allowance */\n      0x05\n        /* \"contract/Mytoken.sol\":4098:4115  _allowance[owner] */\n      0x00\n        /* \"contract/Mytoken.sol\":4109:4114  owner */\n      dup6\n        /* \"contract/Mytoken.sol\":4098:4115  _allowance[owner] */\n      0xffffffffffffffffffffffffffffffffffffffff\n      and\n      0xffffffffffffffffffffffffffffffffffffffff\n      and\n      dup2\n      mstore\n      0x20\n      add\n      swap1\n      dup2\n      mstore\n      0x20\n      add\n      0x00\n      keccak256\n        /* \"contract/Mytoken.sol\":4098:4124  _allowance[owner][spender] */\n      0x00\n        /* \"contract/Mytoken.sol\":4116:4123  spender */\n      dup5\n        /* \"contract/Mytoken.sol\":4098:4124  _allowance[owner][spender] */\n      0xffffffffffffffffffffffffffffffffffffffff\n      and\n      0xffffffffffffffffffffffffffffffffffffffff\n      and\n      dup2\n      mstore\n      0x20\n      add\n      swap1\n      dup2\n      mstore\n      0x20\n      add\n      0x00\n      keccak256\n        /* \"contract/Mytoken.sol\":4098:4133  _allowance[owner][spender] = amount */\n      dup2\n      swap1\n      sstore\n      pop\n        /* \"contract/Mytoken.sol\":4165:4172  spender */\n      dup2\n        /* \"contract/Mytoken.sol\":4149:4182  Approval(owner, spender, amount ) */\n      0xffffffffffffffffffffffffffffffffffffffff\n      and\n        /* \"contract/Mytoken.sol\":4158:4163  owner */\n      dup4\n        /* \"contract/Mytoken.sol\":4149:4182  Approval(owner, spender, amount ) */\n      0xffffffffffffffffffffffffffffffffffffffff\n      and\n      0x8c5be1e5ebec7d5bd14f71427d1e84f3dd0314c0f7b2291e5b200ac8c7c3b925\n        /* \"contract/Mytoken.sol\":4174:4180  amount */\n      dup4\n        /* \"contract/Mytoken.sol\":4149:4182  Approval(owner, spender, amount ) */\n      mload(0x40)\n      tag_92\n      swap2\n      swap1\n      tag_26\n      jump\t// in\n    tag_92:\n      mload(0x40)\n      dup1\n      swap2\n      sub\n      swap1\n      log3\n        /* \"contract/Mytoken.sol\":3832:4190  function _approve(address owner,address spender,uint256 amount) internal {... */\n      pop\n      pop\n      pop\n      jump\t// out\n        /* \"contract/Mytoken.sol\":4198:4585  function _spendAllowance(address owner,address spender,uint256 amount) internal {... */\n    tag_70:\n        /* \"contract/Mytoken.sol\":4289:4313  uint256 currentAllowance */\n      0x00\n        /* \"contract/Mytoken.sol\":4316:4343  allowanceOf(owner, spender) */\n      tag_94\n        /* \"contract/Mytoken.sol\":4328:4333  owner */\n      dup5\n        /* \"contract/Mytoken.sol\":4335:4342  spender */\n      dup5\n        /* \"contract/Mytoken.sol\":4316:4327  allowanceOf */\n      tag_30\n        /* \"contract/Mytoken.sol\":4316:4343  allowanceOf(owner, spender) */\n      jump\t// in\n    tag_94:\n        /* \"contract/Mytoken.sol\":4289:4343  uint256 currentAllowance = allowanceOf(owner, spender) */\n      swap1\n      pop\n        /* \"contract/Mytoken.sol\":4377:4394  type(uint256).max */\n      0xffffffffffffffffffffffffffffffffffffffffffffffffffffffffffffffff\n        /* \"contract/Mytoken.sol\":4357:4373  currentAllowance */\n      dup2\n        /* \"contract/Mytoken.sol\":4357:4394  currentAllowance <= type(uint256).max */\n      gt\n        /* \"contract/Mytoken.sol\":4354:4578  if(currentAllowance <= type(uint256).max){... */\n      tag_95\n      jumpi\n        /* \"contract/Mytoken.sol\":4438:4444  amount */\n      dup2\n        /* \"contract/Mytoken.sol\":4418:4434  currentAllowance */\n      dup2\n        /* \"contract/Mytoken.sol\":4418:4444  currentAllowance >= amount */\n      lt\n      iszero\n        /* \"contract/Mytoken.sol\":4410:4487  require(currentAllowance >= amount, \"ERC20: transfer amount exceeds balance\") */\n      tag_96\n      jumpi\n      mload(0x40)\n      0x08c379a000000000000000000000000000000000000000000000000000000000\n      dup2\n      mstore\n      0x04\n      add\n      tag_97\n      swap1\n      tag_98\n      jump\t// in\n    tag_97:\n      mload(0x40)\n      dup1\n      swap2\n      sub\n      swap1\n      revert\n    tag_96:\n        /* \"contract/Mytoken.sol\":4503:4552  _approve(owner,spender,currentAllowance - amount) */\n      tag_99\n        /* \"contract/Mytoken.sol\":4512:4517  owner */\n      dup5\n        /* \"contract/Mytoken.sol\":4518:4525  spender */\n      dup5\n        /* \"contract/Mytoken.sol\":4545:4551  amount */\n      dup5\n        /* \"contract/Mytoken.sol\":4526:4542  currentAllowance */\n      dup5\n        /* \"contract/Mytoken.sol\":4526:4551  currentAllowance - amount */\n      tag_100\n      swap2\n      swap1\n      tag_101\n      jump\t// in\n    tag_100:\n        /* \"contract/Mytoken.sol\":4503:4511  _approve */\n      tag_64\n        /* \"contract/Mytoken.sol\":4503:4552  _approve(owner,spender,currentAllowance - amount) */\n      jump\t// in\n    tag_99:\n        /* \"contract/Mytoken.sol\":4354:4578  if(currentAllowance <= type(uint256).max){... */\n    tag_95:\n        /* \"contract/Mytoken.sol\":4278:4585  {... */\n      pop\n        /* \"contract/Mytoken.sol\":4198:4585  function _spendAllowance(address owner,address spender,uint256 amount) internal {... */\n      pop\n      pop\n      pop\n      jump\t// out\n        /* \"contract/Mytoken.sol\":3371:3824  function _transfer(address from,address to,uint256 amount) internal {... */\n    tag_72:\n        /* \"contract/Mytoken.sol\":3474:3475  0 */\n      0x00\n        /* \"contract/Mytoken.sol\":3458:3476  from != address(0) */\n      0xffffffffffffffffffffffffffffffffffffffff\n      and\n        /* \"contract/Mytoken.sol\":3458:3462  from */\n      dup4\n        /* \"contract/Mytoken.sol\":3458:3476  from != address(0) */\n      0xffffffffffffffffffffffffffffffffffffffff\n      and\n      sub\n        /* \"contract/Mytoken.sol\":3450:3517  require(from != address(0),\"ERC20: transfer from the zero address\") */\n      tag_103\n      jumpi\n      mload(0x40)\n      0x08c379a000000000000000000000000000000000000000000000000000000000\n      dup2\n      mstore\n      0x04\n      add\n      tag_104\n      swap1\n      tag_105\n      jump\t// in\n    tag_104:\n      mload(0x40)\n      dup1\n      swap2\n      sub\n      swap1\n      revert\n    tag_103:\n        /* \"contract/Mytoken.sol\":3550:3551  0 */\n      0x00\n        /* \"contract/Mytoken.sol\":3536:3552  to != address(0) */\n      0xffffffffffffffffffffffffffffffffffffffff\n      and\n        /* \"contract/Mytoken.sol\":3536:3538  to */\n      dup3\n        /* \"contract/Mytoken.sol\":3536:3552  to != address(0) */\n      0xffffffffffffffffffffffffffffffffffffffff\n      and\n      sub\n        /* \"contract/Mytoken.sol\":3528:3591  require(to != address(0),\"ERC20: transfer to the zero address\") */\n      tag_106\n      jumpi\n      mload(0x40)\n      0x08c379a000000000000000000000000000000000000000000000000000000000\n      dup2\n      mstore\n      0x04\n      add\n      tag_107\n      swap1\n      tag_108\n      jump\t// in\n    tag_107:\n      mload(0x40)\n      dup1\n      swap2\n      sub\n      swap1\n      revert\n    tag_106:\n        /* \"contract/Mytoken.sol\":3628:3634  amount */\n      dup1\n        /* \"contract/Mytoken.sol\":3610:3618  _balance */\n      0x04\n        /* \"contract/Mytoken.sol\":3610:3624  _balance[from] */\n      0x00\n        /* \"contract/Mytoken.sol\":3619:3623  from */\n      dup6\n        /* \"contract/Mytoken.sol\":3610:3624  _balance[from] */\n      0xffffffffffffffffffffffffffffffffffffffff\n      and\n      0xffffffffffffffffffffffffffffffffffffffff\n      and\n      dup2\n      mstore\n      0x20\n      add\n      swap1\n      dup2\n      mstore\n      0x20\n      add\n      0x00\n      keccak256\n      sload\n        /* \"contract/Mytoken.sol\":3610:3634  _balance[from] >= amount */\n      lt\n      iszero\n        /* \"contract/Mytoken.sol\":3602:3676  require(_balance[from] >= amount,\"ERC20: transfer amount exceeds balance\") */\n      tag_109\n      jumpi\n      mload(0x40)\n      0x08c379a000000000000000000000000000000000000000000000000000000000\n      dup2\n      mstore\n      0x04\n      add\n      tag_110\n      swap1\n      tag_98\n      jump\t// in\n    tag_110:\n      mload(0x40)\n      dup1\n      swap2\n      sub\n      swap1\n      revert\n    tag_109:\n        /* \"contract/Mytoken.sol\":3715:3721  amount */\n      dup1\n        /* \"contract/Mytoken.sol\":3697:3705  _balance */\n      0x04\n        /* \"contract/Mytoken.sol\":3697:3711  _balance[from] */\n      0x00\n        /* \"contract/Mytoken.sol\":3706:3710  from */\n      dup6\n        /* \"contract/Mytoken.sol\":3697:3711  _balance[from] */\n      0xffffffffffffffffffffffffffffffffffffffff\n      and\n      0xffffffffffffffffffffffffffffffffffffffff\n      and\n      dup2\n      mstore\n      0x20\n      add\n      swap1\n      dup2\n      mstore\n      0x20\n      add\n      0x00\n      keccak256\n      0x00\n        /* \"contract/Mytoken.sol\":3697:3721  _balance[from] -= amount */\n      dup3\n      dup3\n      sload\n      tag_111\n      swap2\n      swap1\n      tag_101\n      jump\t// in\n    tag_111:\n      swap3\n      pop\n      pop\n      dup2\n      swap1\n      sstore\n      pop\n        /* \"contract/Mytoken.sol\":3748:3754  amount */\n      dup1\n        /* \"contract/Mytoken.sol\":3732:3740  _balance */\n      0x04\n        /* \"contract/Mytoken.sol\":3732:3744  _balance[to] */\n      0x00\n        /* \"contract/Mytoken.sol\":3741:3743  to */\n      dup5\n        /* \"contract/Mytoken.sol\":3732:3744  _balance[to] */\n      0xffffffffffffffffffffffffffffffffffffffff\n      and\n      0xffffffffffffffffffffffffffffffffffffffff\n      and\n      dup2\n      mstore\n      0x20\n      add\n      swap1\n      dup2\n      mstore\n      0x20\n      add\n      0x00\n      keccak256\n      0x00\n        /* \"contract/Mytoken.sol\":3732:3754  _balance[to] += amount */\n      dup3\n      dup3\n      sload\n      tag_112\n      swap2\n      swap1\n      tag_113\n      jump\t// in\n    tag_112:\n      swap3\n      pop\n      pop\n      dup2\n      swap1\n      sstore\n      pop\n        /* \"contract/Mytoken.sol\":3796:3798  to */\n      dup2\n        /* \"contract/Mytoken.sol\":3782:3806  Transfer(from,to,amount) */\n      0xffffffffffffffffffffffffffffffffffffffff\n      and\n        /* \"contract/Mytoken.sol\":3791:3795  from */\n      dup4\n        /* \"contract/Mytoken.sol\":3782:3806  Transfer(from,to,amount) */\n      0xffffffffffffffffffffffffffffffffffffffff\n      and\n      0xddf252ad1be2c89b69c2b068fc378daa952ba7f163c4a11628f55a4df523b3ef\n        /* \"contract/Mytoken.sol\":3799:3805  amount */\n      dup4\n        /* \"contract/Mytoken.sol\":3782:3806  Transfer(from,to,amount) */\n      mload(0x40)\n      tag_114\n      swap2\n      swap1\n      tag_26\n      jump\t// in\n    tag_114:\n      mload(0x40)\n      dup1\n      swap2\n      sub\n      swap1\n      log3\n        /* \"contract/Mytoken.sol\":3371:3824  function _transfer(address from,address to,uint256 amount) internal {... */\n      pop\n      pop\n      pop\n      jump\t// out\n        /* \"#utility.yul\":7:106   */\n    tag_115:\n        /* \"#utility.yul\":59:65   */\n      0x00\n        /* \"#utility.yul\":93:98   */\n      dup2\n        /* \"#utility.yul\":87:99   */\n      mload\n        /* \"#utility.yul\":77:99   */\n      swap1\n      pop\n        /* \"#utility.yul\":7:106   */\n      swap2\n      swap1\n      pop\n      jump\t// out\n        /* \"#utility.yul\":112:281   */\n    tag_116:\n        /* \"#utility.yul\":196:207   */\n      0x00\n        /* \"#utility.yul\":230:236   */\n      dup3\n        /* \"#utility.yul\":225:228   */\n      dup3\n        /* \"#utility.yul\":218:237   */\n      mstore\n        /* \"#utility.yul\":270:274   */\n      0x20\n        /* \"#utility.yul\":265:268   */\n      dup3\n        /* \"#utility.yul\":261:275   */\n      add\n        /* \"#utility.yul\":246:275   */\n      swap1\n      pop\n        /* \"#utility.yul\":112:281   */\n      swap3\n      swap2\n      pop\n      pop\n      jump\t// out\n        /* \"#utility.yul\":287:426   */\n    tag_117:\n        /* \"#utility.yul\":376:382   */\n      dup3\n        /* \"#utility.yul\":371:374   */\n      dup2\n        /* \"#utility.yul\":366:369   */\n      dup4\n        /* \"#utility.yul\":360:383   */\n      mcopy\n        /* \"#utility.yul\":417:418   */\n      0x00\n        /* \"#utility.yul\":408:414   */\n      dup4\n        /* \"#utility.yul\":403:406   */\n      dup4\n        /* \"#utility.yul\":399:415   */\n      add\n        /* \"#utility.yul\":392:419   */\n      mstore\n        /* \"#utility.yul\":287:426   */\n      pop\n      pop\n      pop\n      jump\t// out\n        /* \"#utility.yul\":432:534   */\n    tag_118:\n        /* \"#utility.yul\":473:479   */\n      0x00\n        /* \"#utility.yul\":524:526   */\n      0x1f\n        /* \"#utility.yul\":520:527   */\n      not\n        /* \"#utility.yul\":515:517   */\n      0x1f\n        /* \"#utility.yul\":508:513   */\n      dup4\n        /* \"#utility.yul\":504:518   */\n      add\n        /* \"#utility.yul\":500:528   */\n      and\n        /* \"#utility.yul\":490:528   */\n      swap1\n      pop\n        /* \"#utility.yul\":432:534   */\n      swap2\n      swap1\n      pop\n      jump\t// out\n        /* \"#utility.yul\":540:917   */\n    tag_119:\n        /* \"#utility.yul\":628:631   */\n      0x00\n        /* \"#utility.yul\":656:695   */\n      tag_153\n        /* \"#utility.yul\":689:694   */\n      dup3\n        /* \"#utility.yul\":656:695   */\n      tag_115\n      jump\t// in\n    tag_153:\n        /* \"#utility.yul\":711:782   */\n      tag_154\n        /* \"#utility.yul\":775:781   */\n      dup2\n        /* \"#utility.yul\":770:773   */\n      dup6\n        /* \"#utility.yul\":711:782   */\n      tag_116\n      jump\t// in\n    tag_154:\n        /* \"#utility.yul\":704:782   */\n      swap4\n      pop\n        /* \"#utility.yul\":791:856   */\n      tag_155\n        /* \"#utility.yul\":849:855   */\n      dup2\n        /* \"#utility.yul\":844:847   */\n      dup6\n        /* \"#utility.yul\":837:841   */\n      0x20\n        /* \"#utility.yul\":830:835   */\n      dup7\n        /* \"#utility.yul\":826:842   */\n      add\n        /* \"#utility.yul\":791:856   */\n      tag_117\n      jump\t// in\n    tag_155:\n        /* \"#utility.yul\":881:910   */\n      tag_156\n        /* \"#utility.yul\":903:909   */\n      dup2\n        /* \"#utility.yul\":881:910   */\n      tag_118\n      jump\t// in\n    tag_156:\n        /* \"#utility.yul\":876:879   */\n      dup5\n        /* \"#utility.yul\":872:911   */\n      add\n        /* \"#utility.yul\":865:911   */\n      swap2\n      pop\n        /* \"#utility.yul\":632:917   */\n      pop\n        /* \"#utility.yul\":540:917   */\n      swap3\n      swap2\n      pop\n      pop\n      jump\t// out\n        /* \"#utility.yul\":923:1236   */\n    tag_16:\n        /* \"#utility.yul\":1036:1040   */\n      0x00\n        /* \"#utility.yul\":1074:1076   */\n      0x20\n        /* \"#utility.yul\":1063:1072   */\n      dup3\n        /* \"#utility.yul\":1059:1077   */\n      add\n        /* \"#utility.yul\":1051:1077   */\n      swap1\n      pop\n        /* \"#utility.yul\":1123:1132   */\n      dup2\n        /* \"#utility.yul\":1117:1121   */\n      dup2\n        /* \"#utility.yul\":1113:1133   */\n      sub\n        /* \"#utility.yul\":1109:1110   */\n      0x00\n        /* \"#utility.yul\":1098:1107   */\n      dup4\n        /* \"#utility.yul\":1094:1111   */\n      add\n        /* \"#utility.yul\":1087:1134   */\n      mstore\n        /* \"#utility.yul\":1151:1229   */\n      tag_158\n        /* \"#utility.yul\":1224:1228   */\n      dup2\n        /* \"#utility.yul\":1215:1221   */\n      dup5\n        /* \"#utility.yul\":1151:1229   */\n      tag_119\n      jump\t// in\n    tag_158:\n        /* \"#utility.yul\":1143:1229   */\n      swap1\n      pop\n        /* \"#utility.yul\":923:1236   */\n      swap3\n      swap2\n      pop\n      pop\n      jump\t// out\n        /* \"#utility.yul\":1323:1440   */\n    tag_121:\n        /* \"#utility.yul\":1432:1433   */\n      0x00\n        /* \"#utility.yul\":1429:1430   */\n      dup1\n        /* \"#utility.yul\":1422:1434   */\n      revert\n        /* \"#utility.yul\":1569:1695   */\n    tag_123:\n        /* \"#utility.yul\":1606:1613   */\n      0x00\n        /* \"#utility.yul\":1646:1688   */\n      0xffffffffffffffffffffffffffffffffffffffff\n        /* \"#utility.yul\":1639:1644   */\n      dup3\n        /* \"#utility.yul\":1635:1689   */\n      and\n        /* \"#utility.yul\":1624:1689   */\n      swap1\n      pop\n        /* \"#utility.yul\":1569:1695   */\n      swap2\n      swap1\n      pop\n      jump\t// out\n        /* \"#utility.yul\":1701:1797   */\n    tag_124:\n        /* \"#utility.yul\":1738:1745   */\n      0x00\n        /* \"#utility.yul\":1767:1791   */\n      tag_164\n        /* \"#utility.yul\":1785:1790   */\n      dup3\n        /* \"#utility.yul\":1767:1791   */\n      tag_123\n      jump\t// in\n    tag_164:\n        /* \"#utility.yul\":1756:1791   */\n      swap1\n      pop\n        /* \"#utility.yul\":1701:1797   */\n      swap2\n      swap1\n      pop\n      jump\t// out\n        /* \"#utility.yul\":1803:1925   */\n    tag_125:\n        /* \"#utility.yul\":1876:1900   */\n      tag_166\n        /* \"#utility.yul\":1894:1899   */\n      dup2\n        /* \"#utility.yul\":1876:1900   */\n      tag_124\n      jump\t// in\n    tag_166:\n        /* \"#utility.yul\":1869:1874   */\n      dup2\n        /* \"#utility.yul\":1866:1901   */\n      eq\n        /* \"#utility.yul\":1856:1919   */\n      tag_167\n      jumpi\n        /* \"#utility.yul\":1915:1916   */\n      0x00\n        /* \"#utility.yul\":1912:1913   */\n      dup1\n        /* \"#utility.yul\":1905:1917   */\n      revert\n        /* \"#utility.yul\":1856:1919   */\n    tag_167:\n        /* \"#utility.yul\":1803:1925   */\n      pop\n      jump\t// out\n        /* \"#utility.yul\":1931:2070   */\n    tag_126:\n        /* \"#utility.yul\":1977:1982   */\n      0x00\n        /* \"#utility.yul\":2015:2021   */\n      dup2\n        /* \"#utility.yul\":2002:2022   */\n      calldataload\n        /* \"#utility.yul\":1993:2022   */\n      swap1\n      pop\n        /* \"#utility.yul\":2031:2064   */\n      tag_169\n        /* \"#utility.yul\":2058:2063   */\n      dup2\n        /* \"#utility.yul\":2031:2064   */\n      tag_125\n      jump\t// in\n    tag_169:\n        /* \"#utility.yul\":1931:2070   */\n      swap3\n      swap2\n      pop\n      pop\n      jump\t// out\n        /* \"#utility.yul\":2076:2153   */\n    tag_127:\n        /* \"#utility.yul\":2113:2120   */\n      0x00\n        /* \"#utility.yul\":2142:2147   */\n      dup2\n        /* \"#utility.yul\":2131:2147   */\n      swap1\n      pop\n        /* \"#utility.yul\":2076:2153   */\n      swap2\n      swap1\n      pop\n      jump\t// out\n        /* \"#utility.yul\":2159:2281   */\n    tag_128:\n        /* \"#utility.yul\":2232:2256   */\n      tag_172\n        /* \"#utility.yul\":2250:2255   */\n      dup2\n        /* \"#utility.yul\":2232:2256   */\n      tag_127\n      jump\t// in\n    tag_172:\n        /* \"#utility.yul\":2225:2230   */\n      dup2\n        /* \"#utility.yul\":2222:2257   */\n      eq\n        /* \"#utility.yul\":2212:2275   */\n      tag_173\n      jumpi\n        /* \"#utility.yul\":2271:2272   */\n      0x00\n        /* \"#utility.yul\":2268:2269   */\n      dup1\n        /* \"#utility.yul\":2261:2273   */\n      revert\n        /* \"#utility.yul\":2212:2275   */\n    tag_173:\n        /* \"#utility.yul\":2159:2281   */\n      pop\n      jump\t// out\n        /* \"#utility.yul\":2287:2426   */\n    tag_129:\n        /* \"#utility.yul\":2333:2338   */\n      0x00\n        /* \"#utility.yul\":2371:2377   */\n      dup2\n        /* \"#utility.yul\":2358:2378   */\n      calldataload\n        /* \"#utility.yul\":2349:2378   */\n      swap1\n      pop\n        /* \"#utility.yul\":2387:2420   */\n      tag_175\n        /* \"#utility.yul\":2414:2419   */\n      dup2\n        /* \"#utility.yul\":2387:2420   */\n      tag_128\n      jump\t// in\n    tag_175:\n        /* \"#utility.yul\":2287:2426   */\n      swap3\n      swap2\n      pop\n      pop\n      jump\t// out\n        /* \"#utility.yul\":2432:2906   */\n    tag_19:\n        /* \"#utility.yul\":2500:2506   */\n      0x00\n        /* \"#utility.yul\":2508:2514   */\n      dup1\n        /* \"#utility.yul\":2557:2559   */\n      0x40\n        /* \"#utility.yul\":2545:2554   */\n      dup4\n        /* \"#utility.yul\":2536:2543   */\n      dup6\n        /* \"#utility.yul\":2532:2555   */\n      sub\n        /* \"#utility.yul\":2528:2560   */\n      slt\n        /* \"#utility.yul\":2525:2644   */\n      iszero\n      tag_177\n      jumpi\n        /* \"#utility.yul\":2563:2642   */\n      tag_178\n      tag_121\n      jump\t// in\n    tag_178:\n        /* \"#utility.yul\":2525:2644   */\n    tag_177:\n        /* \"#utility.yul\":2683:2684   */\n      0x00\n        /* \"#utility.yul\":2708:2761   */\n      tag_179\n        /* \"#utility.yul\":2753:2760   */\n      dup6\n        /* \"#utility.yul\":2744:2750   */\n      dup3\n        /* \"#utility.yul\":2733:2742   */\n      dup7\n        /* \"#utility.yul\":2729:2751   */\n      add\n        /* \"#utility.yul\":2708:2761   */\n      tag_126\n      jump\t// in\n    tag_179:\n        /* \"#utility.yul\":2698:2761   */\n      swap3\n      pop\n        /* \"#utility.yul\":2654:2771   */\n      pop\n        /* \"#utility.yul\":2810:2812   */\n      0x20\n        /* \"#utility.yul\":2836:2889   */\n      tag_180\n        /* \"#utility.yul\":2881:2888   */\n      dup6\n        /* \"#utility.yul\":2872:2878   */\n      dup3\n        /* \"#utility.yul\":2861:2870   */\n      dup7\n        /* \"#utility.yul\":2857:2879   */\n      add\n        /* \"#utility.yul\":2836:2889   */\n      tag_129\n      jump\t// in\n    tag_180:\n        /* \"#utility.yul\":2826:2889   */\n      swap2\n      pop\n        /* \"#utility.yul\":2781:2899   */\n      pop\n        /* \"#utility.yul\":2432:2906   */\n      swap3\n      pop\n      swap3\n      swap1\n      pop\n      jump\t// out\n        /* \"#utility.yul\":2912:3002   */\n    tag_130:\n        /* \"#utility.yul\":2946:2953   */\n      0x00\n        /* \"#utility.yul\":2989:2994   */\n      dup2\n        /* \"#utility.yul\":2982:2995   */\n      iszero\n        /* \"#utility.yul\":2975:2996   */\n      iszero\n        /* \"#utility.yul\":2964:2996   */\n      swap1\n      pop\n        /* \"#utility.yul\":2912:3002   */\n      swap2\n      swap1\n      pop\n      jump\t// out\n        /* \"#utility.yul\":3008:3117   */\n    tag_131:\n        /* \"#utility.yul\":3089:3110   */\n      tag_183\n        /* \"#utility.yul\":3104:3109   */\n      dup2\n        /* \"#utility.yul\":3089:3110   */\n      tag_130\n      jump\t// in\n    tag_183:\n        /* \"#utility.yul\":3084:3087   */\n      dup3\n        /* \"#utility.yul\":3077:3111   */\n      mstore\n        /* \"#utility.yul\":3008:3117   */\n      pop\n      pop\n      jump\t// out\n        /* \"#utility.yul\":3123:3333   */\n    tag_22:\n        /* \"#utility.yul\":3210:3214   */\n      0x00\n        /* \"#utility.yul\":3248:3250   */\n      0x20\n        /* \"#utility.yul\":3237:3246   */\n      dup3\n        /* \"#utility.yul\":3233:3251   */\n      add\n        /* \"#utility.yul\":3225:3251   */\n      swap1\n      pop\n        /* \"#utility.yul\":3261:3326   */\n      tag_185\n        /* \"#utility.yul\":3323:3324   */\n      0x00\n        /* \"#utility.yul\":3312:3321   */\n      dup4\n        /* \"#utility.yul\":3308:3325   */\n      add\n        /* \"#utility.yul\":3299:3305   */\n      dup5\n        /* \"#utility.yul\":3261:3326   */\n      tag_131\n      jump\t// in\n    tag_185:\n        /* \"#utility.yul\":3123:3333   */\n      swap3\n      swap2\n      pop\n      pop\n      jump\t// out\n        /* \"#utility.yul\":3339:3457   */\n    tag_132:\n        /* \"#utility.yul\":3426:3450   */\n      tag_187\n        /* \"#utility.yul\":3444:3449   */\n      dup2\n        /* \"#utility.yul\":3426:3450   */\n      tag_127\n      jump\t// in\n    tag_187:\n        /* \"#utility.yul\":3421:3424   */\n      dup3\n        /* \"#utility.yul\":3414:3451   */\n      mstore\n        /* \"#utility.yul\":3339:3457   */\n      pop\n      pop\n      jump\t// out\n        /* \"#utility.yul\":3463:3685   */\n    tag_26:\n        /* \"#utility.yul\":3556:3560   */\n      0x00\n        /* \"#utility.yul\":3594:3596   */\n      0x20\n        /* \"#utility.yul\":3583:3592   */\n      dup3\n        /* \"#utility.yul\":3579:3597   */\n      add\n        /* \"#utility.yul\":3571:3597   */\n      swap1\n      pop\n        /* \"#utility.yul\":3607:3678   */\n      tag_189\n        /* \"#utility.yul\":3675:3676   */\n      0x00\n        /* \"#utility.yul\":3664:3673   */\n      dup4\n        /* \"#utility.yul\":3660:3677   */\n      add\n        /* \"#utility.yul\":3651:3657   */\n      dup5\n        /* \"#utility.yul\":3607:3678   */\n      tag_132\n      jump\t// in\n    tag_189:\n        /* \"#utility.yul\":3463:3685   */\n      swap3\n      swap2\n      pop\n      pop\n      jump\t// out\n        /* \"#utility.yul\":3691:4165   */\n    tag_29:\n        /* \"#utility.yul\":3759:3765   */\n      0x00\n        /* \"#utility.yul\":3767:3773   */\n      dup1\n        /* \"#utility.yul\":3816:3818   */\n      0x40\n        /* \"#utility.yul\":3804:3813   */\n      dup4\n        /* \"#utility.yul\":3795:3802   */\n      dup6\n        /* \"#utility.yul\":3791:3814   */\n      sub\n        /* \"#utility.yul\":3787:3819   */\n      slt\n        /* \"#utility.yul\":3784:3903   */\n      iszero\n      tag_191\n      jumpi\n        /* \"#utility.yul\":3822:3901   */\n      tag_192\n      tag_121\n      jump\t// in\n    tag_192:\n        /* \"#utility.yul\":3784:3903   */\n    tag_191:\n        /* \"#utility.yul\":3942:3943   */\n      0x00\n        /* \"#utility.yul\":3967:4020   */\n      tag_193\n        /* \"#utility.yul\":4012:4019   */\n      dup6\n        /* \"#utility.yul\":4003:4009   */\n      dup3\n        /* \"#utility.yul\":3992:4001   */\n      dup7\n        /* \"#utility.yul\":3988:4010   */\n      add\n        /* \"#utility.yul\":3967:4020   */\n      tag_126\n      jump\t// in\n    tag_193:\n        /* \"#utility.yul\":3957:4020   */\n      swap3\n      pop\n        /* \"#utility.yul\":3913:4030   */\n      pop\n        /* \"#utility.yul\":4069:4071   */\n      0x20\n        /* \"#utility.yul\":4095:4148   */\n      tag_194\n        /* \"#utility.yul\":4140:4147   */\n      dup6\n        /* \"#utility.yul\":4131:4137   */\n      dup3\n        /* \"#utility.yul\":4120:4129   */\n      dup7\n        /* \"#utility.yul\":4116:4138   */\n      add\n        /* \"#utility.yul\":4095:4148   */\n      tag_126\n      jump\t// in\n    tag_194:\n        /* \"#utility.yul\":4085:4148   */\n      swap2\n      pop\n        /* \"#utility.yul\":4040:4158   */\n      pop\n        /* \"#utility.yul\":3691:4165   */\n      swap3\n      pop\n      swap3\n      swap1\n      pop\n      jump\t// out\n        /* \"#utility.yul\":4171:4790   */\n    tag_34:\n        /* \"#utility.yul\":4248:4254   */\n      0x00\n        /* \"#utility.yul\":4256:4262   */\n      dup1\n        /* \"#utility.yul\":4264:4270   */\n      0x00\n        /* \"#utility.yul\":4313:4315   */\n      0x60\n        /* \"#utility.yul\":4301:4310   */\n      dup5\n        /* \"#utility.yul\":4292:4299   */\n      dup7\n        /* \"#utility.yul\":4288:4311   */\n      sub\n        /* \"#utility.yul\":4284:4316   */\n      slt\n        /* \"#utility.yul\":4281:4400   */\n      iszero\n      tag_196\n      jumpi\n        /* \"#utility.yul\":4319:4398   */\n      tag_197\n      tag_121\n      jump\t// in\n    tag_197:\n        /* \"#utility.yul\":4281:4400   */\n    tag_196:\n        /* \"#utility.yul\":4439:4440   */\n      0x00\n        /* \"#utility.yul\":4464:4517   */\n      tag_198\n        /* \"#utility.yul\":4509:4516   */\n      dup7\n        /* \"#utility.yul\":4500:4506   */\n      dup3\n        /* \"#utility.yul\":4489:4498   */\n      dup8\n        /* \"#utility.yul\":4485:4507   */\n      add\n        /* \"#utility.yul\":4464:4517   */\n      tag_126\n      jump\t// in\n    tag_198:\n        /* \"#utility.yul\":4454:4517   */\n      swap4\n      pop\n        /* \"#utility.yul\":4410:4527   */\n      pop\n        /* \"#utility.yul\":4566:4568   */\n      0x20\n        /* \"#utility.yul\":4592:4645   */\n      tag_199\n        /* \"#utility.yul\":4637:4644   */\n      dup7\n        /* \"#utility.yul\":4628:4634   */\n      dup3\n        /* \"#utility.yul\":4617:4626   */\n      dup8\n        /* \"#utility.yul\":4613:4635   */\n      add\n        /* \"#utility.yul\":4592:4645   */\n      tag_126\n      jump\t// in\n    tag_199:\n        /* \"#utility.yul\":4582:4645   */\n      swap3\n      pop\n        /* \"#utility.yul\":4537:4655   */\n      pop\n        /* \"#utility.yul\":4694:4696   */\n      0x40\n        /* \"#utility.yul\":4720:4773   */\n      tag_200\n        /* \"#utility.yul\":4765:4772   */\n      dup7\n        /* \"#utility.yul\":4756:4762   */\n      dup3\n        /* \"#utility.yul\":4745:4754   */\n      dup8\n        /* \"#utility.yul\":4741:4763   */\n      add\n        /* \"#utility.yul\":4720:4773   */\n      tag_129\n      jump\t// in\n    tag_200:\n        /* \"#utility.yul\":4710:4773   */\n      swap2\n      pop\n        /* \"#utility.yul\":4665:4783   */\n      pop\n        /* \"#utility.yul\":4171:4790   */\n      swap3\n      pop\n      swap3\n      pop\n      swap3\n      jump\t// out\n        /* \"#utility.yul\":4796:4882   */\n    tag_133:\n        /* \"#utility.yul\":4831:4838   */\n      0x00\n        /* \"#utility.yul\":4871:4875   */\n      0xff\n        /* \"#utility.yul\":4864:4869   */\n      dup3\n        /* \"#utility.yul\":4860:4876   */\n      and\n        /* \"#utility.yul\":4849:4876   */\n      swap1\n      pop\n        /* \"#utility.yul\":4796:4882   */\n      swap2\n      swap1\n      pop\n      jump\t// out\n        /* \"#utility.yul\":4888:5000   */\n    tag_134:\n        /* \"#utility.yul\":4971:4993   */\n      tag_203\n        /* \"#utility.yul\":4987:4992   */\n      dup2\n        /* \"#utility.yul\":4971:4993   */\n      tag_133\n      jump\t// in\n    tag_203:\n        /* \"#utility.yul\":4966:4969   */\n      dup3\n        /* \"#utility.yul\":4959:4994   */\n      mstore\n        /* \"#utility.yul\":4888:5000   */\n      pop\n      pop\n      jump\t// out\n        /* \"#utility.yul\":5006:5220   */\n    tag_40:\n        /* \"#utility.yul\":5095:5099   */\n      0x00\n        /* \"#utility.yul\":5133:5135   */\n      0x20\n        /* \"#utility.yul\":5122:5131   */\n      dup3\n        /* \"#utility.yul\":5118:5136   */\n      add\n        /* \"#utility.yul\":5110:5136   */\n      swap1\n      pop\n        /* \"#utility.yul\":5146:5213   */\n      tag_205\n        /* \"#utility.yul\":5210:5211   */\n      0x00\n        /* \"#utility.yul\":5199:5208   */\n      dup4\n        /* \"#utility.yul\":5195:5212   */\n      add\n        /* \"#utility.yul\":5186:5192   */\n      dup5\n        /* \"#utility.yul\":5146:5213   */\n      tag_134\n      jump\t// in\n    tag_205:\n        /* \"#utility.yul\":5006:5220   */\n      swap3\n      swap2\n      pop\n      pop\n      jump\t// out\n        /* \"#utility.yul\":5226:5555   */\n    tag_43:\n        /* \"#utility.yul\":5285:5291   */\n      0x00\n        /* \"#utility.yul\":5334:5336   */\n      0x20\n        /* \"#utility.yul\":5322:5331   */\n      dup3\n        /* \"#utility.yul\":5313:5320   */\n      dup5\n        /* \"#utility.yul\":5309:5332   */\n      sub\n        /* \"#utility.yul\":5305:5337   */\n      slt\n        /* \"#utility.yul\":5302:5421   */\n      iszero\n      tag_207\n      jumpi\n        /* \"#utility.yul\":5340:5419   */\n      tag_208\n      tag_121\n      jump\t// in\n    tag_208:\n        /* \"#utility.yul\":5302:5421   */\n    tag_207:\n        /* \"#utility.yul\":5460:5461   */\n      0x00\n        /* \"#utility.yul\":5485:5538   */\n      tag_209\n        /* \"#utility.yul\":5530:5537   */\n      dup5\n        /* \"#utility.yul\":5521:5527   */\n      dup3\n        /* \"#utility.yul\":5510:5519   */\n      dup6\n        /* \"#utility.yul\":5506:5528   */\n      add\n        /* \"#utility.yul\":5485:5538   */\n      tag_126\n      jump\t// in\n    tag_209:\n        /* \"#utility.yul\":5475:5538   */\n      swap2\n      pop\n        /* \"#utility.yul\":5431:5548   */\n      pop\n        /* \"#utility.yul\":5226:5555   */\n      swap3\n      swap2\n      pop\n      pop\n      jump\t// out\n        /* \"#utility.yul\":5561:5741   */\n    tag_135:\n        /* \"#utility.yul\":5609:5686   */\n      0x4e487b7100000000000000000000000000000000000000000000000000000000\n        /* \"#utility.yul\":5606:5607   */\n      0x00\n        /* \"#utility.yul\":5599:5687   */\n      mstore\n        /* \"#utility.yul\":5706:5710   */\n      0x22\n        /* \"#utility.yul\":5703:5704   */\n      0x04\n        /* \"#utility.yul\":5696:5711   */\n      mstore\n        /* \"#utility.yul\":5730:5734   */\n      0x24\n        /* \"#utility.yul\":5727:5728   */\n      0x00\n        /* \"#utility.yul\":5720:5735   */\n      revert\n        /* \"#utility.yul\":5747:6067   */\n    tag_55:\n        /* \"#utility.yul\":5791:5797   */\n      0x00\n        /* \"#utility.yul\":5828:5829   */\n      0x02\n        /* \"#utility.yul\":5822:5826   */\n      dup3\n        /* \"#utility.yul\":5818:5830   */\n      div\n        /* \"#utility.yul\":5808:5830   */\n      swap1\n      pop\n        /* \"#utility.yul\":5875:5876   */\n      0x01\n        /* \"#utility.yul\":5869:5873   */\n      dup3\n        /* \"#utility.yul\":5865:5877   */\n      and\n        /* \"#utility.yul\":5896:5914   */\n      dup1\n        /* \"#utility.yul\":5886:5967   */\n      tag_212\n      jumpi\n        /* \"#utility.yul\":5952:5956   */\n      0x7f\n        /* \"#utility.yul\":5944:5950   */\n      dup3\n        /* \"#utility.yul\":5940:5957   */\n      and\n        /* \"#utility.yul\":5930:5957   */\n      swap2\n      pop\n        /* \"#utility.yul\":5886:5967   */\n    tag_212:\n        /* \"#utility.yul\":6014:6016   */\n      0x20\n        /* \"#utility.yul\":6006:6012   */\n      dup3\n        /* \"#utility.yul\":6003:6017   */\n      lt\n        /* \"#utility.yul\":5983:6001   */\n      dup2\n        /* \"#utility.yul\":5980:6018   */\n      sub\n        /* \"#utility.yul\":5977:6061   */\n      tag_213\n      jumpi\n        /* \"#utility.yul\":6033:6051   */\n      tag_214\n      tag_135\n      jump\t// in\n    tag_214:\n        /* \"#utility.yul\":5977:6061   */\n    tag_213:\n        /* \"#utility.yul\":5798:6067   */\n      pop\n        /* \"#utility.yul\":5747:6067   */\n      swap2\n      swap1\n      pop\n      jump\t// out\n        /* \"#utility.yul\":6073:6296   */\n    tag_136:\n        /* \"#utility.yul\":6213:6247   */\n      0x45524332303a20617070726f766520666f726d20746865207a65726f20616464\n        /* \"#utility.yul\":6209:6210   */\n      0x00\n        /* \"#utility.yul\":6201:6207   */\n      dup3\n        /* \"#utility.yul\":6197:6211   */\n      add\n        /* \"#utility.yul\":6190:6248   */\n      mstore\n        /* \"#utility.yul\":6282:6288   */\n      0x7265737300000000000000000000000000000000000000000000000000000000\n        /* \"#utility.yul\":6277:6279   */\n      0x20\n        /* \"#utility.yul\":6269:6275   */\n      dup3\n        /* \"#utility.yul\":6265:6280   */\n      add\n        /* \"#utility.yul\":6258:6289   */\n      mstore\n        /* \"#utility.yul\":6073:6296   */\n      pop\n      jump\t// out\n        /* \"#utility.yul\":6302:6668   */\n    tag_137:\n        /* \"#utility.yul\":6444:6447   */\n      0x00\n        /* \"#utility.yul\":6465:6532   */\n      tag_217\n        /* \"#utility.yul\":6529:6531   */\n      0x24\n        /* \"#utility.yul\":6524:6527   */\n      dup4\n        /* \"#utility.yul\":6465:6532   */\n      tag_116\n      jump\t// in\n    tag_217:\n        /* \"#utility.yul\":6458:6532   */\n      swap2\n      pop\n        /* \"#utility.yul\":6541:6634   */\n      tag_218\n        /* \"#utility.yul\":6630:6633   */\n      dup3\n        /* \"#utility.yul\":6541:6634   */\n      tag_136\n      jump\t// in\n    tag_218:\n        /* \"#utility.yul\":6659:6661   */\n      0x40\n        /* \"#utility.yul\":6654:6657   */\n      dup3\n        /* \"#utility.yul\":6650:6662   */\n      add\n        /* \"#utility.yul\":6643:6662   */\n      swap1\n      pop\n        /* \"#utility.yul\":6302:6668   */\n      swap2\n      swap1\n      pop\n      jump\t// out\n        /* \"#utility.yul\":6674:7093   */\n    tag_88:\n        /* \"#utility.yul\":6840:6844   */\n      0x00\n        /* \"#utility.yul\":6878:6880   */\n      0x20\n        /* \"#utility.yul\":6867:6876   */\n      dup3\n        /* \"#utility.yul\":6863:6881   */\n      add\n        /* \"#utility.yul\":6855:6881   */\n      swap1\n      pop\n        /* \"#utility.yul\":6927:6936   */\n      dup2\n        /* \"#utility.yul\":6921:6925   */\n      dup2\n        /* \"#utility.yul\":6917:6937   */\n      sub\n        /* \"#utility.yul\":6913:6914   */\n      0x00\n        /* \"#utility.yul\":6902:6911   */\n      dup4\n        /* \"#utility.yul\":6898:6915   */\n      add\n        /* \"#utility.yul\":6891:6938   */\n      mstore\n        /* \"#utility.yul\":6955:7086   */\n      tag_220\n        /* \"#utility.yul\":7081:7085   */\n      dup2\n        /* \"#utility.yul\":6955:7086   */\n      tag_137\n      jump\t// in\n    tag_220:\n        /* \"#utility.yul\":6947:7086   */\n      swap1\n      pop\n        /* \"#utility.yul\":6674:7093   */\n      swap2\n      swap1\n      pop\n      jump\t// out\n        /* \"#utility.yul\":7099:7322   */\n    tag_138:\n        /* \"#utility.yul\":7239:7273   */\n      0x45524332303a207370656e64657220666f726d20746865207a65726f20616464\n        /* \"#utility.yul\":7235:7236   */\n      0x00\n        /* \"#utility.yul\":7227:7233   */\n      dup3\n        /* \"#utility.yul\":7223:7237   */\n      add\n        /* \"#utility.yul\":7216:7274   */\n      mstore\n        /* \"#utility.yul\":7308:7314   */\n      0x7265737300000000000000000000000000000000000000000000000000000000\n        /* \"#utility.yul\":7303:7305   */\n      0x20\n        /* \"#utility.yul\":7295:7301   */\n      dup3\n        /* \"#utility.yul\":7291:7306   */\n      add\n        /* \"#utility.yul\":7284:7315   */\n      mstore\n        /* \"#utility.yul\":7099:7322   */\n      pop\n      jump\t// out\n        /* \"#utility.yul\":7328:7694   */\n    tag_139:\n        /* \"#utility.yul\":7470:7473   */\n      0x00\n        /* \"#utility.yul\":7491:7558   */\n      tag_223\n        /* \"#utility.yul\":7555:7557   */\n      0x24\n        /* \"#utility.yul\":7550:7553   */\n      dup4\n        /* \"#utility.yul\":7491:7558   */\n      tag_116\n      jump\t// in\n    tag_223:\n        /* \"#utility.yul\":7484:7558   */\n      swap2\n      pop\n        /* \"#utility.yul\":7567:7660   */\n      tag_224\n        /* \"#utility.yul\":7656:7659   */\n      dup3\n        /* \"#utility.yul\":7567:7660   */\n      tag_138\n      jump\t// in\n    tag_224:\n        /* \"#utility.yul\":7685:7687   */\n      0x40\n        /* \"#utility.yul\":7680:7683   */\n      dup3\n        /* \"#utility.yul\":7676:7688   */\n      add\n        /* \"#utility.yul\":7669:7688   */\n      swap1\n      pop\n        /* \"#utility.yul\":7328:7694   */\n      swap2\n      swap1\n      pop\n      jump\t// out\n        /* \"#utility.yul\":7700:8119   */\n    tag_91:\n        /* \"#utility.yul\":7866:7870   */\n      0x00\n        /* \"#utility.yul\":7904:7906   */\n      0x20\n        /* \"#utility.yul\":7893:7902   */\n      dup3\n        /* \"#utility.yul\":7889:7907   */\n      add\n        /* \"#utility.yul\":7881:7907   */\n      swap1\n      pop\n        /* \"#utility.yul\":7953:7962   */\n      dup2\n        /* \"#utility.yul\":7947:7951   */\n      dup2\n        /* \"#utility.yul\":7943:7963   */\n      sub\n        /* \"#utility.yul\":7939:7940   */\n      0x00\n        /* \"#utility.yul\":7928:7937   */\n      dup4\n        /* \"#utility.yul\":7924:7941   */\n      add\n        /* \"#utility.yul\":7917:7964   */\n      mstore\n        /* \"#utility.yul\":7981:8112   */\n      tag_226\n        /* \"#utility.yul\":8107:8111   */\n      dup2\n        /* \"#utility.yul\":7981:8112   */\n      tag_139\n      jump\t// in\n    tag_226:\n        /* \"#utility.yul\":7973:8112   */\n      swap1\n      pop\n        /* \"#utility.yul\":7700:8119   */\n      swap2\n      swap1\n      pop\n      jump\t// out\n        /* \"#utility.yul\":8125:8350   */\n    tag_140:\n        /* \"#utility.yul\":8265:8299   */\n      0x45524332303a207472616e7366657220616d6f756e7420657863656564732062\n        /* \"#utility.yul\":8261:8262   */\n      0x00\n        /* \"#utility.yul\":8253:8259   */\n      dup3\n        /* \"#utility.yul\":8249:8263   */\n      add\n        /* \"#utility.yul\":8242:8300   */\n      mstore\n        /* \"#utility.yul\":8334:8342   */\n      0x616c616e63650000000000000000000000000000000000000000000000000000\n        /* \"#utility.yul\":8329:8331   */\n      0x20\n        /* \"#utility.yul\":8321:8327   */\n      dup3\n        /* \"#utility.yul\":8317:8332   */\n      add\n        /* \"#utility.yul\":8310:8343   */\n      mstore\n        /* \"#utility.yul\":8125:8350   */\n      pop\n      jump\t// out\n        /* \"#utility.yul\":8356:8722   */\n    tag_141:\n        /* \"#utility.yul\":8498:8501   */\n      0x00\n        /* \"#utility.yul\":8519:8586   */\n      tag_229\n        /* \"#utility.yul\":8583:8585   */\n      0x26\n        /* \"#utility.yul\":8578:8581   */\n      dup4\n        /* \"#utility.yul\":8519:8586   */\n      tag_116\n      jump\t// in\n    tag_229:\n        /* \"#utility.yul\":8512:8586   */\n      swap2\n      pop\n        /* \"#utility.yul\":8595:8688   */\n      tag_230\n        /* \"#utility.yul\":8684:8687   */\n      dup3\n        /* \"#utility.yul\":8595:8688   */\n      tag_140\n      jump\t// in\n    tag_230:\n        /* \"#utility.yul\":8713:8715   */\n      0x40\n        /* \"#utility.yul\":8708:8711   */\n      dup3\n        /* \"#utility.yul\":8704:8716   */\n      add\n        /* \"#utility.yul\":8697:8716   */\n      swap1\n      pop\n        /* \"#utility.yul\":8356:8722   */\n      swap2\n      swap1\n      pop\n      jump\t// out\n        /* \"#utility.yul\":8728:9147   */\n    tag_98:\n        /* \"#utility.yul\":8894:8898   */\n      0x00\n        /* \"#utility.yul\":8932:8934   */\n      0x20\n        /* \"#utility.yul\":8921:8930   */\n      dup3\n        /* \"#utility.yul\":8917:8935   */\n      add\n        /* \"#utility.yul\":8909:8935   */\n      swap1\n      pop\n        /* \"#utility.yul\":8981:8990   */\n      dup2\n        /* \"#utility.yul\":8975:8979   */\n      dup2\n        /* \"#utility.yul\":8971:8991   */\n      sub\n        /* \"#utility.yul\":8967:8968   */\n      0x00\n        /* \"#utility.yul\":8956:8965   */\n      dup4\n        /* \"#utility.yul\":8952:8969   */\n      add\n        /* \"#utility.yul\":8945:8992   */\n      mstore\n        /* \"#utility.yul\":9009:9140   */\n      tag_232\n        /* \"#utility.yul\":9135:9139   */\n      dup2\n        /* \"#utility.yul\":9009:9140   */\n      tag_141\n      jump\t// in\n    tag_232:\n        /* \"#utility.yul\":9001:9140   */\n      swap1\n      pop\n        /* \"#utility.yul\":8728:9147   */\n      swap2\n      swap1\n      pop\n      jump\t// out\n        /* \"#utility.yul\":9153:9333   */\n    tag_142:\n        /* \"#utility.yul\":9201:9278   */\n      0x4e487b7100000000000000000000000000000000000000000000000000000000\n        /* \"#utility.yul\":9198:9199   */\n      0x00\n        /* \"#utility.yul\":9191:9279   */\n      mstore\n        /* \"#utility.yul\":9298:9302   */\n      0x11\n        /* \"#utility.yul\":9295:9296   */\n      0x04\n        /* \"#utility.yul\":9288:9303   */\n      mstore\n        /* \"#utility.yul\":9322:9326   */\n      0x24\n        /* \"#utility.yul\":9319:9320   */\n      0x00\n        /* \"#utility.yul\":9312:9327   */\n      revert\n        /* \"#utility.yul\":9339:9533   */\n    tag_101:\n        /* \"#utility.yul\":9379:9383   */\n      0x00\n        /* \"#utility.yul\":9399:9419   */\n      tag_235\n        /* \"#utility.yul\":9417:9418   */\n      dup3\n        /* \"#utility.yul\":9399:9419   */\n      tag_127\n      jump\t// in\n    tag_235:\n        /* \"#utility.yul\":9394:9419   */\n      swap2\n      pop\n        /* \"#utility.yul\":9433:9453   */\n      tag_236\n        /* \"#utility.yul\":9451:9452   */\n      dup4\n        /* \"#utility.yul\":9433:9453   */\n      tag_127\n      jump\t// in\n    tag_236:\n        /* \"#utility.yul\":9428:9453   */\n      swap3\n      pop\n        /* \"#utility.yul\":9477:9478   */\n      dup3\n        /* \"#utility.yul\":9474:9475   */\n      dup3\n        /* \"#utility.yul\":9470:9479   */\n      sub\n        /* \"#utility.yul\":9462:9479   */\n      swap1\n      pop\n        /* \"#utility.yul\":9501:9502   */\n      dup2\n        /* \"#utility.yul\":9495:9499   */\n      dup2\n        /* \"#utility.yul\":9492:9503   */\n      gt\n        /* \"#utility.yul\":9489:9526   */\n      iszero\n      tag_237\n      jumpi\n        /* \"#utility.yul\":9506:9524   */\n      tag_238\n      tag_142\n      jump\t// in\n    tag_238:\n        /* \"#utility.yul\":9489:9526   */\n    tag_237:\n        /* \"#utility.yul\":9339:9533   */\n      swap3\n      swap2\n      pop\n      pop\n      jump\t// out\n        /* \"#utility.yul\":9539:9763   */\n    tag_143:\n        /* \"#utility.yul\":9679:9713   */\n      0x45524332303a207472616e736665722066726f6d20746865207a65726f206164\n        /* \"#utility.yul\":9675:9676   */\n      0x00\n        /* \"#utility.yul\":9667:9673   */\n      dup3\n        /* \"#utility.yul\":9663:9677   */\n      add\n        /* \"#utility.yul\":9656:9714   */\n      mstore\n        /* \"#utility.yul\":9748:9755   */\n      0x6472657373000000000000000000000000000000000000000000000000000000\n        /* \"#utility.yul\":9743:9745   */\n      0x20\n        /* \"#utility.yul\":9735:9741   */\n      dup3\n        /* \"#utility.yul\":9731:9746   */\n      add\n        /* \"#utility.yul\":9724:9756   */\n      mstore\n        /* \"#utility.yul\":9539:9763   */\n      pop\n      jump\t// out\n        /* \"#utility.yul\":9769:10135   */\n    tag_144:\n        /* \"#utility.yul\":9911:9914   */\n      0x00\n        /* \"#utility.yul\":9932:9999   */\n      tag_241\n        /* \"#utility.yul\":9996:9998   */\n      0x25\n        /* \"#utility.yul\":9991:9994   */\n      dup4\n        /* \"#utility.yul\":9932:9999   */\n      tag_116\n      jump\t// in\n    tag_241:\n        /* \"#utility.yul\":9925:9999   */\n      swap2\n      pop\n        /* \"#utility.yul\":10008:10101   */\n      tag_242\n        /* \"#utility.yul\":10097:10100   */\n      dup3\n        /* \"#utility.yul\":10008:10101   */\n      tag_143\n      jump\t// in\n    tag_242:\n        /* \"#utility.yul\":10126:10128   */\n      0x40\n        /* \"#utility.yul\":10121:10124   */\n      dup3\n        /* \"#utility.yul\":10117:10129   */\n      add\n        /* \"#utility.yul\":10110:10129   */\n      swap1\n      pop\n        /* \"#utility.yul\":9769:10135   */\n      swap2\n      swap1\n      pop\n      jump\t// out\n        /* \"#utility.yul\":10141:10560   */\n    tag_105:\n        /* \"#utility.yul\":10307:10311   */\n      0x00\n        /* \"#utility.yul\":10345:10347   */\n      0x20\n        /* \"#utility.yul\":10334:10343   */\n      dup3\n        /* \"#utility.yul\":10330:10348   */\n      add\n        /* \"#utility.yul\":10322:10348   */\n      swap1\n      pop\n        /* \"#utility.yul\":10394:10403   */\n      dup2\n        /* \"#utility.yul\":10388:10392   */\n      dup2\n        /* \"#utility.yul\":10384:10404   */\n      sub\n        /* \"#utility.yul\":10380:10381   */\n      0x00\n        /* \"#utility.yul\":10369:10378   */\n      dup4\n        /* \"#utility.yul\":10365:10382   */\n      add\n        /* \"#utility.yul\":10358:10405   */\n      mstore\n        /* \"#utility.yul\":10422:10553   */\n      tag_244\n        /* \"#utility.yul\":10548:10552   */\n      dup2\n        /* \"#utility.yul\":10422:10553   */\n      tag_144\n      jump\t// in\n    tag_244:\n        /* \"#utility.yul\":10414:10553   */\n      swap1\n      pop\n        /* \"#utility.yul\":10141:10560   */\n      swap2\n      swap1\n      pop\n      jump\t// out\n        /* \"#utility.yul\":10566:10788   */\n    tag_145:\n        /* \"#utility.yul\":10706:10740   */\n      0x45524332303a207472616e7366657220746f20746865207a65726f2061646472\n        /* \"#utility.yul\":10702:10703   */\n      0x00\n        /* \"#utility.yul\":10694:10700   */\n      dup3\n        /* \"#utility.yul\":10690:10704   */\n      add\n        /* \"#utility.yul\":10683:10741   */\n      mstore\n        /* \"#utility.yul\":10775:10780   */\n      0x6573730000000000000000000000000000000000000000000000000000000000\n        /* \"#utility.yul\":10770:10772   */\n      0x20\n        /* \"#utility.yul\":10762:10768   */\n      dup3\n        /* \"#utility.yul\":10758:10773   */\n      add\n        /* \"#utility.yul\":10751:10781   */\n      mstore\n        /* \"#utility.yul\":10566:10788   */\n      pop\n      jump\t// out\n        /* \"#utility.yul\":10794:11160   */\n    tag_146:\n        /* \"#utility.yul\":10936:10939   */\n      0x00\n        /* \"#utility.yul\":10957:11024   */\n      tag_247\n        /* \"#utility.yul\":11021:11023   */\n      0x23\n        /* \"#utility.yul\":11016:11019   */\n      dup4\n        /* \"#utility.yul\":10957:11024   */\n      tag_116\n      jump\t// in\n    tag_247:\n        /* \"#utility.yul\":10950:11024   */\n      swap2\n      pop\n        /* \"#utility.yul\":11033:11126   */\n      tag_248\n        /* \"#utility.yul\":11122:11125   */\n      dup3\n        /* \"#utility.yul\":11033:11126   */\n      tag_145\n      jump\t// in\n    tag_248:\n        /* \"#utility.yul\":11151:11153   */\n      0x40\n        /* \"#utility.yul\":11146:11149   */\n      dup3\n        /* \"#utility.yul\":11142:11154   */\n      add\n        /* \"#utility.yul\":11135:11154   */\n      swap1\n      pop\n        /* \"#utility.yul\":10794:11160   */\n      swap2\n      swap1\n      pop\n      jump\t// out\n        /* \"#utility.yul\":11166:11585   */\n    tag_108:\n        /* \"#utility.yul\":11332:11336   */\n      0x00\n        /* \"#utility.yul\":11370:11372   */\n      0x20\n        /* \"#utility.yul\":11359:11368   */\n      dup3\n        /* \"#utility.yul\":11355:11373   */\n      add\n        /* \"#utility.yul\":11347:11373   */\n      swap1\n      pop\n        /* \"#utility.yul\":11419:11428   */\n      dup2\n        /* \"#utility.yul\":11413:11417   */\n      dup2\n        /* \"#utility.yul\":11409:11429   */\n      sub\n        /* \"#utility.yul\":11405:11406   */\n      0x00\n        /* \"#utility.yul\":11394:11403   */\n      dup4\n        /* \"#utility.yul\":11390:11407   */\n      add\n        /* \"#utility.yul\":11383:11430   */\n      mstore\n        /* \"#utility.yul\":11447:11578   */\n      tag_250\n        /* \"#utility.yul\":11573:11577   */\n      dup2\n        /* \"#utility.yul\":11447:11578   */\n      tag_146\n      jump\t// in\n    tag_250:\n        /* \"#utility.yul\":11439:11578   */\n      swap1\n      pop\n        /* \"#utility.yul\":11166:11585   */\n      swap2\n      swap1\n      pop\n      jump\t// out\n        /* \"#utility.yul\":11591:11782   */\n    tag_113:\n        /* \"#utility.yul\":11631:11634   */\n      0x00\n        /* \"#utility.yul\":11650:11670   */\n      tag_252\n        /* \"#utility.yul\":11668:11669   */\n      dup3\n        /* \"#utility.yul\":11650:11670   */\n      tag_127\n      jump\t// in\n    tag_252:\n        /* \"#utility.yul\":11645:11670   */\n      swap2\n      pop\n        /* \"#utility.yul\":11684:11704   */\n      tag_253\n        /* \"#utility.yul\":11702:11703   */\n      dup4\n        /* \"#utility.yul\":11684:11704   */\n      tag_127\n      jump\t// in\n    tag_253:\n        /* \"#utility.yul\":11679:11704   */\n      swap3\n      pop\n        /* \"#utility.yul\":11727:11728   */\n      dup3\n        /* \"#utility.yul\":11724:11725   */\n      dup3\n        /* \"#utility.yul\":11720:11729   */\n      add\n        /* \"#utility.yul\":11713:11729   */\n      swap1\n      pop\n        /* \"#utility.yul\":11748:11751   */\n      dup1\n        /* \"#utility.yul\":11745:11746   */\n      dup3\n        /* \"#utility.yul\":11742:11752   */\n      gt\n        /* \"#utility.yul\":11739:11775   */\n      iszero\n      tag_254\n      jumpi\n        /* \"#utility.yul\":11755:11773   */\n      tag_255\n      tag_142\n      jump\t// in\n    tag_255:\n        /* \"#utility.yul\":11739:11775   */\n    tag_254:\n        /* \"#utility.yul\":11591:11782   */\n      swap3\n      swap2\n      pop\n      pop\n      jump\t// out\n\n    auxdata: 0xa264697066735822122012d17cdb6a7d3ce7da48fee12cc210b4095444a8ce5c1e91f12f81b4bc83442864736f6c634300081a0033\n}\n",
				"bytecode": {
					"linkReferences": {},
					"object": "608060405234801561000f575f80fd5b50604051611863380380611863833981810160405281019061003191906102a0565b6040518060400160405280600881526020017f756e6976657273650000000000000000000000000000000000000000000000008152505f908161007491906104fc565b506040518060400160405280600481526020017f554e495600000000000000000000000000000000000000000000000000000000815250600190816100b991906104fc565b50601260025f6101000a81548160ff021916908360ff16021790555061011a6100e661012060201b60201c565b60025f9054906101000a900460ff1660ff16600a6101049190610727565b8361010f9190610771565b61012760201b60201c565b50610885565b5f33905090565b5f73ffffffffffffffffffffffffffffffffffffffff168273ffffffffffffffffffffffffffffffffffffffff1603610195576040517f08c379a000000000000000000000000000000000000000000000000000000000815260040161018c9061080c565b60405180910390fd5b8060035f8282546101a6919061082a565b925050819055508060045f8473ffffffffffffffffffffffffffffffffffffffff1673ffffffffffffffffffffffffffffffffffffffff1681526020019081526020015f205f8282546101f9919061082a565b925050819055508173ffffffffffffffffffffffffffffffffffffffff165f73ffffffffffffffffffffffffffffffffffffffff167fddf252ad1be2c89b69c2b068fc378daa952ba7f163c4a11628f55a4df523b3ef8360405161025d919061086c565b60405180910390a35050565b5f80fd5b5f819050919050565b61027f8161026d565b8114610289575f80fd5b50565b5f8151905061029a81610276565b92915050565b5f602082840312156102b5576102b4610269565b5b5f6102c28482850161028c565b91505092915050565b5f81519050919050565b7f4e487b71000000000000000000000000000000000000000000000000000000005f52604160045260245ffd5b7f4e487b71000000000000000000000000000000000000000000000000000000005f52602260045260245ffd5b5f600282049050600182168061034657607f821691505b60208210810361035957610358610302565b5b50919050565b5f819050815f5260205f209050919050565b5f6020601f8301049050919050565b5f82821b905092915050565b5f600883026103bb7fffffffffffffffffffffffffffffffffffffffffffffffffffffffffffffffff82610380565b6103c58683610380565b95508019841693508086168417925050509392505050565b5f819050919050565b5f6104006103fb6103f68461026d565b6103dd565b61026d565b9050919050565b5f819050919050565b610419836103e6565b61042d61042582610407565b84845461038c565b825550505050565b5f90565b610441610435565b61044c818484610410565b505050565b5b8181101561046f576104645f82610439565b600181019050610452565b5050565b601f8211156104b4576104858161035f565b61048e84610371565b8101602085101561049d578190505b6104b16104a985610371565b830182610451565b50505b505050565b5f82821c905092915050565b5f6104d45f19846008026104b9565b1980831691505092915050565b5f6104ec83836104c5565b9150826002028217905092915050565b610505826102cb565b67ffffffffffffffff81111561051e5761051d6102d5565b5b610528825461032f565b610533828285610473565b5f60209050601f831160018114610564575f8415610552578287015190505b61055c85826104e1565b8655506105c3565b601f1984166105728661035f565b5f5b8281101561059957848901518255600182019150602085019450602081019050610574565b868310156105b657848901516105b2601f8916826104c5565b8355505b6001600288020188555050505b505050505050565b7f4e487b71000000000000000000000000000000000000000000000000000000005f52601160045260245ffd5b5f8160011c9050919050565b5f808291508390505b600185111561064d57808604811115610629576106286105cb565b5b60018516156106385780820291505b8081029050610646856105f8565b945061060d565b94509492505050565b5f826106655760019050610720565b81610672575f9050610720565b81600181146106885760028114610692576106c1565b6001915050610720565b60ff8411156106a4576106a36105cb565b5b8360020a9150848211156106bb576106ba6105cb565b5b50610720565b5060208310610133831016604e8410600b84101617156106f65782820a9050838111156106f1576106f06105cb565b5b610720565b6107038484846001610604565b9250905081840481111561071a576107196105cb565b5b81810290505b9392505050565b5f6107318261026d565b915061073c8361026d565b92506107697fffffffffffffffffffffffffffffffffffffffffffffffffffffffffffffffff8484610656565b905092915050565b5f61077b8261026d565b91506107868361026d565b92508282026107948161026d565b915082820484148315176107ab576107aa6105cb565b5b5092915050565b5f82825260208201905092915050565b7f45524332303a206d696e7420746f20746865207a65726f2061646472657373005f82015250565b5f6107f6601f836107b2565b9150610801826107c2565b602082019050919050565b5f6020820190508181035f830152610823816107ea565b9050919050565b5f6108348261026d565b915061083f8361026d565b9250828201905080821115610857576108566105cb565b5b92915050565b6108668161026d565b82525050565b5f60208201905061087f5f83018461085d565b92915050565b610fd1806108925f395ff3fe608060405234801561000f575f80fd5b5060043610610091575f3560e01c806323b872dd1161006457806323b872dd14610131578063313ce5671461016157806370a082311461017f57806395d89b41146101af578063a9059cbb146101cd57610091565b806306fdde0314610095578063095ea7b3146100b357806318160ddd146100e35780631a46ec8214610101575b5f80fd5b61009d6101fd565b6040516100aa91906109ae565b60405180910390f35b6100cd60048036038101906100c89190610a5f565b61028c565b6040516100da9190610ab7565b60405180910390f35b6100eb6102ae565b6040516100f89190610adf565b60405180910390f35b61011b60048036038101906101169190610af8565b6102b7565b6040516101289190610adf565b60405180910390f35b61014b60048036038101906101469190610b36565b610339565b6040516101589190610ab7565b60405180910390f35b610169610367565b6040516101769190610ba1565b60405180910390f35b61019960048036038101906101949190610bba565b61037c565b6040516101a69190610adf565b60405180910390f35b6101b76103c2565b6040516101c491906109ae565b60405180910390f35b6101e760048036038101906101e29190610a5f565b610452565b6040516101f49190610ab7565b60405180910390f35b60605f805461020b90610c12565b80601f016020809104026020016040519081016040528092919081815260200182805461023790610c12565b80156102825780601f1061025957610100808354040283529160200191610282565b820191905f5260205f20905b81548152906001019060200180831161026557829003601f168201915b5050505050905090565b5f80610296610474565b90506102a381858561047b565b600191505092915050565b5f600354905090565b5f60055f8473ffffffffffffffffffffffffffffffffffffffff1673ffffffffffffffffffffffffffffffffffffffff1681526020019081526020015f205f8373ffffffffffffffffffffffffffffffffffffffff1673ffffffffffffffffffffffffffffffffffffffff1681526020019081526020015f2054905092915050565b5f80610343610474565b905061035085828561063e565b61035b8585856106d2565b60019150509392505050565b5f60025f9054906101000a900460ff16905090565b5f60045f8373ffffffffffffffffffffffffffffffffffffffff1673ffffffffffffffffffffffffffffffffffffffff1681526020019081526020015f20549050919050565b6060600180546103d190610c12565b80601f01602080910402602001604051908101604052809291908181526020018280546103fd90610c12565b80156104485780601f1061041f57610100808354040283529160200191610448565b820191905f5260205f20905b81548152906001019060200180831161042b57829003601f168201915b5050505050905090565b5f8061045c610474565b90506104698185856106d2565b600191505092915050565b5f33905090565b5f73ffffffffffffffffffffffffffffffffffffffff168373ffffffffffffffffffffffffffffffffffffffff16036104e9576040517f08c379a00000000000000000000000000000000000000000000000000000000081526004016104e090610cb2565b60405180910390fd5b5f73ffffffffffffffffffffffffffffffffffffffff168273ffffffffffffffffffffffffffffffffffffffff1603610557576040517f08c379a000000000000000000000000000000000000000000000000000000000815260040161054e90610d40565b60405180910390fd5b8060055f8573ffffffffffffffffffffffffffffffffffffffff1673ffffffffffffffffffffffffffffffffffffffff1681526020019081526020015f205f8473ffffffffffffffffffffffffffffffffffffffff1673ffffffffffffffffffffffffffffffffffffffff1681526020019081526020015f20819055508173ffffffffffffffffffffffffffffffffffffffff168373ffffffffffffffffffffffffffffffffffffffff167f8c5be1e5ebec7d5bd14f71427d1e84f3dd0314c0f7b2291e5b200ac8c7c3b925836040516106319190610adf565b60405180910390a3505050565b5f61064984846102b7565b90507fffffffffffffffffffffffffffffffffffffffffffffffffffffffffffffffff81116106cc57818110156106b5576040517f08c379a00000000000000000000000000000000000000000000000000000000081526004016106ac90610dce565b60405180910390fd5b6106cb848484846106c69190610e19565b61047b565b5b50505050565b5f73ffffffffffffffffffffffffffffffffffffffff168373ffffffffffffffffffffffffffffffffffffffff1603610740576040517f08c379a000000000000000000000000000000000000000000000000000000000815260040161073790610ebc565b60405180910390fd5b5f73ffffffffffffffffffffffffffffffffffffffff168273ffffffffffffffffffffffffffffffffffffffff16036107ae576040517f08c379a00000000000000000000000000000000000000000000000000000000081526004016107a590610f4a565b60405180910390fd5b8060045f8573ffffffffffffffffffffffffffffffffffffffff1673ffffffffffffffffffffffffffffffffffffffff1681526020019081526020015f2054101561082e576040517f08c379a000000000000000000000000000000000000000000000000000000000815260040161082590610dce565b60405180910390fd5b8060045f8573ffffffffffffffffffffffffffffffffffffffff1673ffffffffffffffffffffffffffffffffffffffff1681526020019081526020015f205f82825461087a9190610e19565b925050819055508060045f8473ffffffffffffffffffffffffffffffffffffffff1673ffffffffffffffffffffffffffffffffffffffff1681526020019081526020015f205f8282546108cd9190610f68565b925050819055508173ffffffffffffffffffffffffffffffffffffffff168373ffffffffffffffffffffffffffffffffffffffff167fddf252ad1be2c89b69c2b068fc378daa952ba7f163c4a11628f55a4df523b3ef836040516109319190610adf565b60405180910390a3505050565b5f81519050919050565b5f82825260208201905092915050565b8281835e5f83830152505050565b5f601f19601f8301169050919050565b5f6109808261093e565b61098a8185610948565b935061099a818560208601610958565b6109a381610966565b840191505092915050565b5f6020820190508181035f8301526109c68184610976565b905092915050565b5f80fd5b5f73ffffffffffffffffffffffffffffffffffffffff82169050919050565b5f6109fb826109d2565b9050919050565b610a0b816109f1565b8114610a15575f80fd5b50565b5f81359050610a2681610a02565b92915050565b5f819050919050565b610a3e81610a2c565b8114610a48575f80fd5b50565b5f81359050610a5981610a35565b92915050565b5f8060408385031215610a7557610a746109ce565b5b5f610a8285828601610a18565b9250506020610a9385828601610a4b565b9150509250929050565b5f8115159050919050565b610ab181610a9d565b82525050565b5f602082019050610aca5f830184610aa8565b92915050565b610ad981610a2c565b82525050565b5f602082019050610af25f830184610ad0565b92915050565b5f8060408385031215610b0e57610b0d6109ce565b5b5f610b1b85828601610a18565b9250506020610b2c85828601610a18565b9150509250929050565b5f805f60608486031215610b4d57610b4c6109ce565b5b5f610b5a86828701610a18565b9350506020610b6b86828701610a18565b9250506040610b7c86828701610a4b565b9150509250925092565b5f60ff82169050919050565b610b9b81610b86565b82525050565b5f602082019050610bb45f830184610b92565b92915050565b5f60208284031215610bcf57610bce6109ce565b5b5f610bdc84828501610a18565b91505092915050565b7f4e487b71000000000000000000000000000000000000000000000000000000005f52602260045260245ffd5b5f6002820490506001821680610c2957607f821691505b602082108103610c3c57610c3b610be5565b5b50919050565b7f45524332303a20617070726f766520666f726d20746865207a65726f206164645f8201527f7265737300000000000000000000000000000000000000000000000000000000602082015250565b5f610c9c602483610948565b9150610ca782610c42565b604082019050919050565b5f6020820190508181035f830152610cc981610c90565b9050919050565b7f45524332303a207370656e64657220666f726d20746865207a65726f206164645f8201527f7265737300000000000000000000000000000000000000000000000000000000602082015250565b5f610d2a602483610948565b9150610d3582610cd0565b604082019050919050565b5f6020820190508181035f830152610d5781610d1e565b9050919050565b7f45524332303a207472616e7366657220616d6f756e74206578636565647320625f8201527f616c616e63650000000000000000000000000000000000000000000000000000602082015250565b5f610db8602683610948565b9150610dc382610d5e565b604082019050919050565b5f6020820190508181035f830152610de581610dac565b9050919050565b7f4e487b71000000000000000000000000000000000000000000000000000000005f52601160045260245ffd5b5f610e2382610a2c565b9150610e2e83610a2c565b9250828203905081811115610e4657610e45610dec565b5b92915050565b7f45524332303a207472616e736665722066726f6d20746865207a65726f2061645f8201527f6472657373000000000000000000000000000000000000000000000000000000602082015250565b5f610ea6602583610948565b9150610eb182610e4c565b604082019050919050565b5f6020820190508181035f830152610ed381610e9a565b9050919050565b7f45524332303a207472616e7366657220746f20746865207a65726f20616464725f8201527f6573730000000000000000000000000000000000000000000000000000000000602082015250565b5f610f34602383610948565b9150610f3f82610eda565b604082019050919050565b5f6020820190508181035f830152610f6181610f28565b9050919050565b5f610f7282610a2c565b9150610f7d83610a2c565b9250828201905080821115610f9557610f94610dec565b5b9291505056fea264697066735822122012d17cdb6a7d3ce7da48fee12cc210b4095444a8ce5c1e91f12f81b4bc83442864736f6c634300081a0033",
					"opcodes": "PUSH1 0x80 PUSH1 0x40 MSTORE CALLVALUE DUP1 ISZERO PUSH2 0xF JUMPI PUSH0 DUP1 REVERT JUMPDEST POP PUSH1 0x40 MLOAD PUSH2 0x1863 CODESIZE SUB DUP1 PUSH2 0x1863 DUP4 CODECOPY DUP2 DUP2 ADD PUSH1 0x40 MSTORE DUP2 ADD SWAP1 PUSH2 0x31 SWAP2 SWAP1 PUSH2 0x2A0 JUMP JUMPDEST PUSH1 0x40 MLOAD DUP1 PUSH1 0x40 ADD PUSH1 0x40 MSTORE DUP1 PUSH1 0x8 DUP2 MSTORE PUSH1 0x20 ADD PUSH32 0x756E697665727365000000000000000000000000000000000000000000000000 DUP2 MSTORE POP PUSH0 SWAP1 DUP2 PUSH2 0x74 SWAP2 SWAP1 PUSH2 0x4FC JUMP JUMPDEST POP PUSH1 0x40 MLOAD DUP1 PUSH1 0x40 ADD PUSH1 0x40 MSTORE DUP1 PUSH1 0x4 DUP2 MSTORE PUSH1 0x20 ADD PUSH32 0x554E495600000000000000000000000000000000000000000000000000000000 DUP2 MSTORE POP PUSH1 0x1 SWAP1 DUP2 PUSH2 0xB9 SWAP2 SWAP1 PUSH2 0x4FC JUMP JUMPDEST POP PUSH1 0x12 PUSH1 0x2 PUSH0 PUSH2 0x100 EXP DUP2 SLOAD DUP2 PUSH1 0xFF MUL NOT AND SWAP1 DUP4 PUSH1 0xFF AND MUL OR SWAP1 SSTORE POP PUSH2 0x11A PUSH2 0xE6 PUSH2 0x120 PUSH1 0x20 SHL PUSH1 0x20 SHR JUMP JUMPDEST PUSH1 0x2 PUSH0 SWAP1 SLOAD SWAP1 PUSH2 0x100 EXP SWAP1 DIV PUSH1 0xFF AND PUSH1 0xFF AND PUSH1 0xA PUSH2 0x104 SWAP2 SWAP1 PUSH2 0x727 JUMP JUMPDEST DUP4 PUSH2 0x10F SWAP2 SWAP1 PUSH2 0x771 JUMP JUMPDEST PUSH2 0x127 PUSH1 0x20 SHL PUSH1 0x20 SHR JUMP JUMPDEST POP PUSH2 0x885 JUMP JUMPDEST PUSH0 CALLER SWAP1 POP SWAP1 JUMP JUMPDEST PUSH0 PUSH20 0xFFFFFFFFFFFFFFFFFFFFFFFFFFFFFFFFFFFFFFFF AND DUP3 PUSH20 0xFFFFFFFFFFFFFFFFFFFFFFFFFFFFFFFFFFFFFFFF AND SUB PUSH2 0x195 JUMPI PUSH1 0x40 MLOAD PUSH32 0x8C379A000000000000000000000000000000000000000000000000000000000 DUP2 MSTORE PUSH1 0x4 ADD PUSH2 0x18C SWAP1 PUSH2 0x80C JUMP JUMPDEST PUSH1 0x40 MLOAD DUP1 SWAP2 SUB SWAP1 REVERT JUMPDEST DUP1 PUSH1 0x3 PUSH0 DUP3 DUP3 SLOAD PUSH2 0x1A6 SWAP2 SWAP1 PUSH2 0x82A JUMP JUMPDEST SWAP3 POP POP DUP2 SWAP1 SSTORE POP DUP1 PUSH1 0x4 PUSH0 DUP5 PUSH20 0xFFFFFFFFFFFFFFFFFFFFFFFFFFFFFFFFFFFFFFFF AND PUSH20 0xFFFFFFFFFFFFFFFFFFFFFFFFFFFFFFFFFFFFFFFF AND DUP2 MSTORE PUSH1 0x20 ADD SWAP1 DUP2 MSTORE PUSH1 0x20 ADD PUSH0 KECCAK256 PUSH0 DUP3 DUP3 SLOAD PUSH2 0x1F9 SWAP2 SWAP1 PUSH2 0x82A JUMP JUMPDEST SWAP3 POP POP DUP2 SWAP1 SSTORE POP DUP2 PUSH20 0xFFFFFFFFFFFFFFFFFFFFFFFFFFFFFFFFFFFFFFFF AND PUSH0 PUSH20 0xFFFFFFFFFFFFFFFFFFFFFFFFFFFFFFFFFFFFFFFF AND PUSH32 0xDDF252AD1BE2C89B69C2B068FC378DAA952BA7F163C4A11628F55A4DF523B3EF DUP4 PUSH1 0x40 MLOAD PUSH2 0x25D SWAP2 SWAP1 PUSH2 0x86C JUMP JUMPDEST PUSH1 0x40 MLOAD DUP1 SWAP2 SUB SWAP1 LOG3 POP POP JUMP JUMPDEST PUSH0 DUP1 REVERT JUMPDEST PUSH0 DUP2 SWAP1 POP SWAP2 SWAP1 POP JUMP JUMPDEST PUSH2 0x27F DUP2 PUSH2 0x26D JUMP JUMPDEST DUP2 EQ PUSH2 0x289 JUMPI PUSH0 DUP1 REVERT JUMPDEST POP JUMP JUMPDEST PUSH0 DUP2 MLOAD SWAP1 POP PUSH2 0x29A DUP2 PUSH2 0x276 JUMP JUMPDEST SWAP3 SWAP2 POP POP JUMP JUMPDEST PUSH0 PUSH1 0x20 DUP3 DUP5 SUB SLT ISZERO PUSH2 0x2B5 JUMPI PUSH2 0x2B4 PUSH2 0x269 JUMP JUMPDEST JUMPDEST PUSH0 PUSH2 0x2C2 DUP5 DUP3 DUP6 ADD PUSH2 0x28C JUMP JUMPDEST SWAP2 POP POP SWAP3 SWAP2 POP POP JUMP JUMPDEST PUSH0 DUP2 MLOAD SWAP1 POP SWAP2 SWAP1 POP JUMP JUMPDEST PUSH32 0x4E487B7100000000000000000000000000000000000000000000000000000000 PUSH0 MSTORE PUSH1 0x41 PUSH1 0x4 MSTORE PUSH1 0x24 PUSH0 REVERT JUMPDEST PUSH32 0x4E487B7100000000000000000000000000000000000000000000000000000000 PUSH0 MSTORE PUSH1 0x22 PUSH1 0x4 MSTORE PUSH1 0x24 PUSH0 REVERT JUMPDEST PUSH0 PUSH1 0x2 DUP3 DIV SWAP1 POP PUSH1 0x1 DUP3 AND DUP1 PUSH2 0x346 JUMPI PUSH1 0x7F DUP3 AND SWAP2 POP JUMPDEST PUSH1 0x20 DUP3 LT DUP2 SUB PUSH2 0x359 JUMPI PUSH2 0x358 PUSH2 0x302 JUMP JUMPDEST JUMPDEST POP SWAP2 SWAP1 POP JUMP JUMPDEST PUSH0 DUP2 SWAP1 POP DUP2 PUSH0 MSTORE PUSH1 0x20 PUSH0 KECCAK256 SWAP1 POP SWAP2 SWAP1 POP JUMP JUMPDEST PUSH0 PUSH1 0x20 PUSH1 0x1F DUP4 ADD DIV SWAP1 POP SWAP2 SWAP1 POP JUMP JUMPDEST PUSH0 DUP3 DUP3 SHL SWAP1 POP SWAP3 SWAP2 POP POP JUMP JUMPDEST PUSH0 PUSH1 0x8 DUP4 MUL PUSH2 0x3BB PUSH32 0xFFFFFFFFFFFFFFFFFFFFFFFFFFFFFFFFFFFFFFFFFFFFFFFFFFFFFFFFFFFFFFFF DUP3 PUSH2 0x380 JUMP JUMPDEST PUSH2 0x3C5 DUP7 DUP4 PUSH2 0x380 JUMP JUMPDEST SWAP6 POP DUP1 NOT DUP5 AND SWAP4 POP DUP1 DUP7 AND DUP5 OR SWAP3 POP POP POP SWAP4 SWAP3 POP POP POP JUMP JUMPDEST PUSH0 DUP2 SWAP1 POP SWAP2 SWAP1 POP JUMP JUMPDEST PUSH0 PUSH2 0x400 PUSH2 0x3FB PUSH2 0x3F6 DUP5 PUSH2 0x26D JUMP JUMPDEST PUSH2 0x3DD JUMP JUMPDEST PUSH2 0x26D JUMP JUMPDEST SWAP1 POP SWAP2 SWAP1 POP JUMP JUMPDEST PUSH0 DUP2 SWAP1 POP SWAP2 SWAP1 POP JUMP JUMPDEST PUSH2 0x419 DUP4 PUSH2 0x3E6 JUMP JUMPDEST PUSH2 0x42D PUSH2 0x425 DUP3 PUSH2 0x407 JUMP JUMPDEST DUP5 DUP5 SLOAD PUSH2 0x38C JUMP JUMPDEST DUP3 SSTORE POP POP POP POP JUMP JUMPDEST PUSH0 SWAP1 JUMP JUMPDEST PUSH2 0x441 PUSH2 0x435 JUMP JUMPDEST PUSH2 0x44C DUP2 DUP5 DUP5 PUSH2 0x410 JUMP JUMPDEST POP POP POP JUMP JUMPDEST JUMPDEST DUP2 DUP2 LT ISZERO PUSH2 0x46F JUMPI PUSH2 0x464 PUSH0 DUP3 PUSH2 0x439 JUMP JUMPDEST PUSH1 0x1 DUP2 ADD SWAP1 POP PUSH2 0x452 JUMP JUMPDEST POP POP JUMP JUMPDEST PUSH1 0x1F DUP3 GT ISZERO PUSH2 0x4B4 JUMPI PUSH2 0x485 DUP2 PUSH2 0x35F JUMP JUMPDEST PUSH2 0x48E DUP5 PUSH2 0x371 JUMP JUMPDEST DUP2 ADD PUSH1 0x20 DUP6 LT ISZERO PUSH2 0x49D JUMPI DUP2 SWAP1 POP JUMPDEST PUSH2 0x4B1 PUSH2 0x4A9 DUP6 PUSH2 0x371 JUMP JUMPDEST DUP4 ADD DUP3 PUSH2 0x451 JUMP JUMPDEST POP POP JUMPDEST POP POP POP JUMP JUMPDEST PUSH0 DUP3 DUP3 SHR SWAP1 POP SWAP3 SWAP2 POP POP JUMP JUMPDEST PUSH0 PUSH2 0x4D4 PUSH0 NOT DUP5 PUSH1 0x8 MUL PUSH2 0x4B9 JUMP JUMPDEST NOT DUP1 DUP4 AND SWAP2 POP POP SWAP3 SWAP2 POP POP JUMP JUMPDEST PUSH0 PUSH2 0x4EC DUP4 DUP4 PUSH2 0x4C5 JUMP JUMPDEST SWAP2 POP DUP3 PUSH1 0x2 MUL DUP3 OR SWAP1 POP SWAP3 SWAP2 POP POP JUMP JUMPDEST PUSH2 0x505 DUP3 PUSH2 0x2CB JUMP JUMPDEST PUSH8 0xFFFFFFFFFFFFFFFF DUP2 GT ISZERO PUSH2 0x51E JUMPI PUSH2 0x51D PUSH2 0x2D5 JUMP JUMPDEST JUMPDEST PUSH2 0x528 DUP3 SLOAD PUSH2 0x32F JUMP JUMPDEST PUSH2 0x533 DUP3 DUP3 DUP6 PUSH2 0x473 JUMP JUMPDEST PUSH0 PUSH1 0x20 SWAP1 POP PUSH1 0x1F DUP4 GT PUSH1 0x1 DUP2 EQ PUSH2 0x564 JUMPI PUSH0 DUP5 ISZERO PUSH2 0x552 JUMPI DUP3 DUP8 ADD MLOAD SWAP1 POP JUMPDEST PUSH2 0x55C DUP6 DUP3 PUSH2 0x4E1 JUMP JUMPDEST DUP7 SSTORE POP PUSH2 0x5C3 JUMP JUMPDEST PUSH1 0x1F NOT DUP5 AND PUSH2 0x572 DUP7 PUSH2 0x35F JUMP JUMPDEST PUSH0 JUMPDEST DUP3 DUP2 LT ISZERO PUSH2 0x599 JUMPI DUP5 DUP10 ADD MLOAD DUP3 SSTORE PUSH1 0x1 DUP3 ADD SWAP2 POP PUSH1 0x20 DUP6 ADD SWAP5 POP PUSH1 0x20 DUP2 ADD SWAP1 POP PUSH2 0x574 JUMP JUMPDEST DUP7 DUP4 LT ISZERO PUSH2 0x5B6 JUMPI DUP5 DUP10 ADD MLOAD PUSH2 0x5B2 PUSH1 0x1F DUP10 AND DUP3 PUSH2 0x4C5 JUMP JUMPDEST DUP4 SSTORE POP JUMPDEST PUSH1 0x1 PUSH1 0x2 DUP9 MUL ADD DUP9 SSTORE POP POP POP JUMPDEST POP POP POP POP POP POP JUMP JUMPDEST PUSH32 0x4E487B7100000000000000000000000000000000000000000000000000000000 PUSH0 MSTORE PUSH1 0x11 PUSH1 0x4 MSTORE PUSH1 0x24 PUSH0 REVERT JUMPDEST PUSH0 DUP2 PUSH1 0x1 SHR SWAP1 POP SWAP2 SWAP1 POP JUMP JUMPDEST PUSH0 DUP1 DUP3 SWAP2 POP DUP4 SWAP1 POP JUMPDEST PUSH1 0x1 DUP6 GT ISZERO PUSH2 0x64D JUMPI DUP1 DUP7 DIV DUP2 GT ISZERO PUSH2 0x629 JUMPI PUSH2 0x628 PUSH2 0x5CB JUMP JUMPDEST JUMPDEST PUSH1 0x1 DUP6 AND ISZERO PUSH2 0x638 JUMPI DUP1 DUP3 MUL SWAP2 POP JUMPDEST DUP1 DUP2 MUL SWAP1 POP PUSH2 0x646 DUP6 PUSH2 0x5F8 JUMP JUMPDEST SWAP5 POP PUSH2 0x60D JUMP JUMPDEST SWAP5 POP SWAP5 SWAP3 POP POP POP JUMP JUMPDEST PUSH0 DUP3 PUSH2 0x665 JUMPI PUSH1 0x1 SWAP1 POP PUSH2 0x720 JUMP JUMPDEST DUP2 PUSH2 0x672 JUMPI PUSH0 SWAP1 POP PUSH2 0x720 JUMP JUMPDEST DUP2 PUSH1 0x1 DUP2 EQ PUSH2 0x688 JUMPI PUSH1 0x2 DUP2 EQ PUSH2 0x692 JUMPI PUSH2 0x6C1 JUMP JUMPDEST PUSH1 0x1 SWAP2 POP POP PUSH2 0x720 JUMP JUMPDEST PUSH1 0xFF DUP5 GT ISZERO PUSH2 0x6A4 JUMPI PUSH2 0x6A3 PUSH2 0x5CB JUMP JUMPDEST JUMPDEST DUP4 PUSH1 0x2 EXP SWAP2 POP DUP5 DUP3 GT ISZERO PUSH2 0x6BB JUMPI PUSH2 0x6BA PUSH2 0x5CB JUMP JUMPDEST JUMPDEST POP PUSH2 0x720 JUMP JUMPDEST POP PUSH1 0x20 DUP4 LT PUSH2 0x133 DUP4 LT AND PUSH1 0x4E DUP5 LT PUSH1 0xB DUP5 LT AND OR ISZERO PUSH2 0x6F6 JUMPI DUP3 DUP3 EXP SWAP1 POP DUP4 DUP2 GT ISZERO PUSH2 0x6F1 JUMPI PUSH2 0x6F0 PUSH2 0x5CB JUMP JUMPDEST JUMPDEST PUSH2 0x720 JUMP JUMPDEST PUSH2 0x703 DUP5 DUP5 DUP5 PUSH1 0x1 PUSH2 0x604 JUMP JUMPDEST SWAP3 POP SWAP1 POP DUP2 DUP5 DIV DUP2 GT ISZERO PUSH2 0x71A JUMPI PUSH2 0x719 PUSH2 0x5CB JUMP JUMPDEST JUMPDEST DUP2 DUP2 MUL SWAP1 POP JUMPDEST SWAP4 SWAP3 POP POP POP JUMP JUMPDEST PUSH0 PUSH2 0x731 DUP3 PUSH2 0x26D JUMP JUMPDEST SWAP2 POP PUSH2 0x73C DUP4 PUSH2 0x26D JUMP JUMPDEST SWAP3 POP PUSH2 0x769 PUSH32 0xFFFFFFFFFFFFFFFFFFFFFFFFFFFFFFFFFFFFFFFFFFFFFFFFFFFFFFFFFFFFFFFF DUP5 DUP5 PUSH2 0x656 JUMP JUMPDEST SWAP1 POP SWAP3 SWAP2 POP POP JUMP JUMPDEST PUSH0 PUSH2 0x77B DUP3 PUSH2 0x26D JUMP JUMPDEST SWAP2 POP PUSH2 0x786 DUP4 PUSH2 0x26D JUMP JUMPDEST SWAP3 POP DUP3 DUP3 MUL PUSH2 0x794 DUP2 PUSH2 0x26D JUMP JUMPDEST SWAP2 POP DUP3 DUP3 DIV DUP5 EQ DUP4 ISZERO OR PUSH2 0x7AB JUMPI PUSH2 0x7AA PUSH2 0x5CB JUMP JUMPDEST JUMPDEST POP SWAP3 SWAP2 POP POP JUMP JUMPDEST PUSH0 DUP3 DUP3 MSTORE PUSH1 0x20 DUP3 ADD SWAP1 POP SWAP3 SWAP2 POP POP JUMP JUMPDEST PUSH32 0x45524332303A206D696E7420746F20746865207A65726F206164647265737300 PUSH0 DUP3 ADD MSTORE POP JUMP JUMPDEST PUSH0 PUSH2 0x7F6 PUSH1 0x1F DUP4 PUSH2 0x7B2 JUMP JUMPDEST SWAP2 POP PUSH2 0x801 DUP3 PUSH2 0x7C2 JUMP JUMPDEST PUSH1 0x20 DUP3 ADD SWAP1 POP SWAP2 SWAP1 POP JUMP JUMPDEST PUSH0 PUSH1 0x20 DUP3 ADD SWAP1 POP DUP2 DUP2 SUB PUSH0 DUP4 ADD MSTORE PUSH2 0x823 DUP2 PUSH2 0x7EA JUMP JUMPDEST SWAP1 POP SWAP2 SWAP1 POP JUMP JUMPDEST PUSH0 PUSH2 0x834 DUP3 PUSH2 0x26D JUMP JUMPDEST SWAP2 POP PUSH2 0x83F DUP4 PUSH2 0x26D JUMP JUMPDEST SWAP3 POP DUP3 DUP3 ADD SWAP1 POP DUP1 DUP3 GT ISZERO PUSH2 0x857 JUMPI PUSH2 0x856 PUSH2 0x5CB JUMP JUMPDEST JUMPDEST SWAP3 SWAP2 POP POP JUMP JUMPDEST PUSH2 0x866 DUP2 PUSH2 0x26D JUMP JUMPDEST DUP3 MSTORE POP POP JUMP JUMPDEST PUSH0 PUSH1 0x20 DUP3 ADD SWAP1 POP PUSH2 0x87F PUSH0 DUP4 ADD DUP5 PUSH2 0x85D JUMP JUMPDEST SWAP3 SWAP2 POP POP JUMP JUMPDEST PUSH2 0xFD1 DUP1 PUSH2 0x892 PUSH0 CODECOPY PUSH0 RETURN INVALID PUSH1 0x80 PUSH1 0x40 MSTORE CALLVALUE DUP1 ISZERO PUSH2 0xF JUMPI PUSH0 DUP1 REVERT JUMPDEST POP PUSH1 0x4 CALLDATASIZE LT PUSH2 0x91 JUMPI PUSH0 CALLDATALOAD PUSH1 0xE0 SHR DUP1 PUSH4 0x23B872DD GT PUSH2 0x64 JUMPI DUP1 PUSH4 0x23B872DD EQ PUSH2 0x131 JUMPI DUP1 PUSH4 0x313CE567 EQ PUSH2 0x161 JUMPI DUP1 PUSH4 0x70A08231 EQ PUSH2 0x17F JUMPI DUP1 PUSH4 0x95D89B41 EQ PUSH2 0x1AF JUMPI DUP1 PUSH4 0xA9059CBB EQ PUSH2 0x1CD JUMPI PUSH2 0x91 JUMP JUMPDEST DUP1 PUSH4 0x6FDDE03 EQ PUSH2 0x95 JUMPI DUP1 PUSH4 0x95EA7B3 EQ PUSH2 0xB3 JUMPI DUP1 PUSH4 0x18160DDD EQ PUSH2 0xE3 JUMPI DUP1 PUSH4 0x1A46EC82 EQ PUSH2 0x101 JUMPI JUMPDEST PUSH0 DUP1 REVERT JUMPDEST PUSH2 0x9D PUSH2 0x1FD JUMP JUMPDEST PUSH1 0x40 MLOAD PUSH2 0xAA SWAP2 SWAP1 PUSH2 0x9AE JUMP JUMPDEST PUSH1 0x40 MLOAD DUP1 SWAP2 SUB SWAP1 RETURN JUMPDEST PUSH2 0xCD PUSH1 0x4 DUP1 CALLDATASIZE SUB DUP2 ADD SWAP1 PUSH2 0xC8 SWAP2 SWAP1 PUSH2 0xA5F JUMP JUMPDEST PUSH2 0x28C JUMP JUMPDEST PUSH1 0x40 MLOAD PUSH2 0xDA SWAP2 SWAP1 PUSH2 0xAB7 JUMP JUMPDEST PUSH1 0x40 MLOAD DUP1 SWAP2 SUB SWAP1 RETURN JUMPDEST PUSH2 0xEB PUSH2 0x2AE JUMP JUMPDEST PUSH1 0x40 MLOAD PUSH2 0xF8 SWAP2 SWAP1 PUSH2 0xADF JUMP JUMPDEST PUSH1 0x40 MLOAD DUP1 SWAP2 SUB SWAP1 RETURN JUMPDEST PUSH2 0x11B PUSH1 0x4 DUP1 CALLDATASIZE SUB DUP2 ADD SWAP1 PUSH2 0x116 SWAP2 SWAP1 PUSH2 0xAF8 JUMP JUMPDEST PUSH2 0x2B7 JUMP JUMPDEST PUSH1 0x40 MLOAD PUSH2 0x128 SWAP2 SWAP1 PUSH2 0xADF JUMP JUMPDEST PUSH1 0x40 MLOAD DUP1 SWAP2 SUB SWAP1 RETURN JUMPDEST PUSH2 0x14B PUSH1 0x4 DUP1 CALLDATASIZE SUB DUP2 ADD SWAP1 PUSH2 0x146 SWAP2 SWAP1 PUSH2 0xB36 JUMP JUMPDEST PUSH2 0x339 JUMP JUMPDEST PUSH1 0x40 MLOAD PUSH2 0x158 SWAP2 SWAP1 PUSH2 0xAB7 JUMP JUMPDEST PUSH1 0x40 MLOAD DUP1 SWAP2 SUB SWAP1 RETURN JUMPDEST PUSH2 0x169 PUSH2 0x367 JUMP JUMPDEST PUSH1 0x40 MLOAD PUSH2 0x176 SWAP2 SWAP1 PUSH2 0xBA1 JUMP JUMPDEST PUSH1 0x40 MLOAD DUP1 SWAP2 SUB SWAP1 RETURN JUMPDEST PUSH2 0x199 PUSH1 0x4 DUP1 CALLDATASIZE SUB DUP2 ADD SWAP1 PUSH2 0x194 SWAP2 SWAP1 PUSH2 0xBBA JUMP JUMPDEST PUSH2 0x37C JUMP JUMPDEST PUSH1 0x40 MLOAD PUSH2 0x1A6 SWAP2 SWAP1 PUSH2 0xADF JUMP JUMPDEST PUSH1 0x40 MLOAD DUP1 SWAP2 SUB SWAP1 RETURN JUMPDEST PUSH2 0x1B7 PUSH2 0x3C2 JUMP JUMPDEST PUSH1 0x40 MLOAD PUSH2 0x1C4 SWAP2 SWAP1 PUSH2 0x9AE JUMP JUMPDEST PUSH1 0x40 MLOAD DUP1 SWAP2 SUB SWAP1 RETURN JUMPDEST PUSH2 0x1E7 PUSH1 0x4 DUP1 CALLDATASIZE SUB DUP2 ADD SWAP1 PUSH2 0x1E2 SWAP2 SWAP1 PUSH2 0xA5F JUMP JUMPDEST PUSH2 0x452 JUMP JUMPDEST PUSH1 0x40 MLOAD PUSH2 0x1F4 SWAP2 SWAP1 PUSH2 0xAB7 JUMP JUMPDEST PUSH1 0x40 MLOAD DUP1 SWAP2 SUB SWAP1 RETURN JUMPDEST PUSH1 0x60 PUSH0 DUP1 SLOAD PUSH2 0x20B SWAP1 PUSH2 0xC12 JUMP JUMPDEST DUP1 PUSH1 0x1F ADD PUSH1 0x20 DUP1 SWAP2 DIV MUL PUSH1 0x20 ADD PUSH1 0x40 MLOAD SWAP1 DUP2 ADD PUSH1 0x40 MSTORE DUP1 SWAP3 SWAP2 SWAP1 DUP2 DUP2 MSTORE PUSH1 0x20 ADD DUP3 DUP1 SLOAD PUSH2 0x237 SWAP1 PUSH2 0xC12 JUMP JUMPDEST DUP1 ISZERO PUSH2 0x282 JUMPI DUP1 PUSH1 0x1F LT PUSH2 0x259 JUMPI PUSH2 0x100 DUP1 DUP4 SLOAD DIV MUL DUP4 MSTORE SWAP2 PUSH1 0x20 ADD SWAP2 PUSH2 0x282 JUMP JUMPDEST DUP3 ADD SWAP2 SWAP1 PUSH0 MSTORE PUSH1 0x20 PUSH0 KECCAK256 SWAP1 JUMPDEST DUP2 SLOAD DUP2 MSTORE SWAP1 PUSH1 0x1 ADD SWAP1 PUSH1 0x20 ADD DUP1 DUP4 GT PUSH2 0x265 JUMPI DUP3 SWAP1 SUB PUSH1 0x1F AND DUP3 ADD SWAP2 JUMPDEST POP POP POP POP POP SWAP1 POP SWAP1 JUMP JUMPDEST PUSH0 DUP1 PUSH2 0x296 PUSH2 0x474 JUMP JUMPDEST SWAP1 POP PUSH2 0x2A3 DUP2 DUP6 DUP6 PUSH2 0x47B JUMP JUMPDEST PUSH1 0x1 SWAP2 POP POP SWAP3 SWAP2 POP POP JUMP JUMPDEST PUSH0 PUSH1 0x3 SLOAD SWAP1 POP SWAP1 JUMP JUMPDEST PUSH0 PUSH1 0x5 PUSH0 DUP5 PUSH20 0xFFFFFFFFFFFFFFFFFFFFFFFFFFFFFFFFFFFFFFFF AND PUSH20 0xFFFFFFFFFFFFFFFFFFFFFFFFFFFFFFFFFFFFFFFF AND DUP2 MSTORE PUSH1 0x20 ADD SWAP1 DUP2 MSTORE PUSH1 0x20 ADD PUSH0 KECCAK256 PUSH0 DUP4 PUSH20 0xFFFFFFFFFFFFFFFFFFFFFFFFFFFFFFFFFFFFFFFF AND PUSH20 0xFFFFFFFFFFFFFFFFFFFFFFFFFFFFFFFFFFFFFFFF AND DUP2 MSTORE PUSH1 0x20 ADD SWAP1 DUP2 MSTORE PUSH1 0x20 ADD PUSH0 KECCAK256 SLOAD SWAP1 POP SWAP3 SWAP2 POP POP JUMP JUMPDEST PUSH0 DUP1 PUSH2 0x343 PUSH2 0x474 JUMP JUMPDEST SWAP1 POP PUSH2 0x350 DUP6 DUP3 DUP6 PUSH2 0x63E JUMP JUMPDEST PUSH2 0x35B DUP6 DUP6 DUP6 PUSH2 0x6D2 JUMP JUMPDEST PUSH1 0x1 SWAP2 POP POP SWAP4 SWAP3 POP POP POP JUMP JUMPDEST PUSH0 PUSH1 0x2 PUSH0 SWAP1 SLOAD SWAP1 PUSH2 0x100 EXP SWAP1 DIV PUSH1 0xFF AND SWAP1 POP SWAP1 JUMP JUMPDEST PUSH0 PUSH1 0x4 PUSH0 DUP4 PUSH20 0xFFFFFFFFFFFFFFFFFFFFFFFFFFFFFFFFFFFFFFFF AND PUSH20 0xFFFFFFFFFFFFFFFFFFFFFFFFFFFFFFFFFFFFFFFF AND DUP2 MSTORE PUSH1 0x20 ADD SWAP1 DUP2 MSTORE PUSH1 0x20 ADD PUSH0 KECCAK256 SLOAD SWAP1 POP SWAP2 SWAP1 POP JUMP JUMPDEST PUSH1 0x60 PUSH1 0x1 DUP1 SLOAD PUSH2 0x3D1 SWAP1 PUSH2 0xC12 JUMP JUMPDEST DUP1 PUSH1 0x1F ADD PUSH1 0x20 DUP1 SWAP2 DIV MUL PUSH1 0x20 ADD PUSH1 0x40 MLOAD SWAP1 DUP2 ADD PUSH1 0x40 MSTORE DUP1 SWAP3 SWAP2 SWAP1 DUP2 DUP2 MSTORE PUSH1 0x20 ADD DUP3 DUP1 SLOAD PUSH2 0x3FD SWAP1 PUSH2 0xC12 JUMP JUMPDEST DUP1 ISZERO PUSH2 0x448 JUMPI DUP1 PUSH1 0x1F LT PUSH2 0x41F JUMPI PUSH2 0x100 DUP1 DUP4 SLOAD DIV MUL DUP4 MSTORE SWAP2 PUSH1 0x20 ADD SWAP2 PUSH2 0x448 JUMP JUMPDEST DUP3 ADD SWAP2 SWAP1 PUSH0 MSTORE PUSH1 0x20 PUSH0 KECCAK256 SWAP1 JUMPDEST DUP2 SLOAD DUP2 MSTORE SWAP1 PUSH1 0x1 ADD SWAP1 PUSH1 0x20 ADD DUP1 DUP4 GT PUSH2 0x42B JUMPI DUP3 SWAP1 SUB PUSH1 0x1F AND DUP3 ADD SWAP2 JUMPDEST POP POP POP POP POP SWAP1 POP SWAP1 JUMP JUMPDEST PUSH0 DUP1 PUSH2 0x45C PUSH2 0x474 JUMP JUMPDEST SWAP1 POP PUSH2 0x469 DUP2 DUP6 DUP6 PUSH2 0x6D2 JUMP JUMPDEST PUSH1 0x1 SWAP2 POP POP SWAP3 SWAP2 POP POP JUMP JUMPDEST PUSH0 CALLER SWAP1 POP SWAP1 JUMP JUMPDEST PUSH0 PUSH20 0xFFFFFFFFFFFFFFFFFFFFFFFFFFFFFFFFFFFFFFFF AND DUP4 PUSH20 0xFFFFFFFFFFFFFFFFFFFFFFFFFFFFFFFFFFFFFFFF AND SUB PUSH2 0x4E9 JUMPI PUSH1 0x40 MLOAD PUSH32 0x8C379A000000000000000000000000000000000000000000000000000000000 DUP2 MSTORE PUSH1 0x4 ADD PUSH2 0x4E0 SWAP1 PUSH2 0xCB2 JUMP JUMPDEST PUSH1 0x40 MLOAD DUP1 SWAP2 SUB SWAP1 REVERT JUMPDEST PUSH0 PUSH20 0xFFFFFFFFFFFFFFFFFFFFFFFFFFFFFFFFFFFFFFFF AND DUP3 PUSH20 0xFFFFFFFFFFFFFFFFFFFFFFFFFFFFFFFFFFFFFFFF AND SUB PUSH2 0x557 JUMPI PUSH1 0x40 MLOAD PUSH32 0x8C379A000000000000000000000000000000000000000000000000000000000 DUP2 MSTORE PUSH1 0x4 ADD PUSH2 0x54E SWAP1 PUSH2 0xD40 JUMP JUMPDEST PUSH1 0x40 MLOAD DUP1 SWAP2 SUB SWAP1 REVERT JUMPDEST DUP1 PUSH1 0x5 PUSH0 DUP6 PUSH20 0xFFFFFFFFFFFFFFFFFFFFFFFFFFFFFFFFFFFFFFFF AND PUSH20 0xFFFFFFFFFFFFFFFFFFFFFFFFFFFFFFFFFFFFFFFF AND DUP2 MSTORE PUSH1 0x20 ADD SWAP1 DUP2 MSTORE PUSH1 0x20 ADD PUSH0 KECCAK256 PUSH0 DUP5 PUSH20 0xFFFFFFFFFFFFFFFFFFFFFFFFFFFFFFFFFFFFFFFF AND PUSH20 0xFFFFFFFFFFFFFFFFFFFFFFFFFFFFFFFFFFFFFFFF AND DUP2 MSTORE PUSH1 0x20 ADD SWAP1 DUP2 MSTORE PUSH1 0x20 ADD PUSH0 KECCAK256 DUP2 SWAP1 SSTORE POP DUP2 PUSH20 0xFFFFFFFFFFFFFFFFFFFFFFFFFFFFFFFFFFFFFFFF AND DUP4 PUSH20 0xFFFFFFFFFFFFFFFFFFFFFFFFFFFFFFFFFFFFFFFF AND PUSH32 0x8C5BE1E5EBEC7D5BD14F71427D1E84F3DD0314C0F7B2291E5B200AC8C7C3B925 DUP4 PUSH1 0x40 MLOAD PUSH2 0x631 SWAP2 SWAP1 PUSH2 0xADF JUMP JUMPDEST PUSH1 0x40 MLOAD DUP1 SWAP2 SUB SWAP1 LOG3 POP POP POP JUMP JUMPDEST PUSH0 PUSH2 0x649 DUP5 DUP5 PUSH2 0x2B7 JUMP JUMPDEST SWAP1 POP PUSH32 0xFFFFFFFFFFFFFFFFFFFFFFFFFFFFFFFFFFFFFFFFFFFFFFFFFFFFFFFFFFFFFFFF DUP2 GT PUSH2 0x6CC JUMPI DUP2 DUP2 LT ISZERO PUSH2 0x6B5 JUMPI PUSH1 0x40 MLOAD PUSH32 0x8C379A000000000000000000000000000000000000000000000000000000000 DUP2 MSTORE PUSH1 0x4 ADD PUSH2 0x6AC SWAP1 PUSH2 0xDCE JUMP JUMPDEST PUSH1 0x40 MLOAD DUP1 SWAP2 SUB SWAP1 REVERT JUMPDEST PUSH2 0x6CB DUP5 DUP5 DUP5 DUP5 PUSH2 0x6C6 SWAP2 SWAP1 PUSH2 0xE19 JUMP JUMPDEST PUSH2 0x47B JUMP JUMPDEST JUMPDEST POP POP POP POP JUMP JUMPDEST PUSH0 PUSH20 0xFFFFFFFFFFFFFFFFFFFFFFFFFFFFFFFFFFFFFFFF AND DUP4 PUSH20 0xFFFFFFFFFFFFFFFFFFFFFFFFFFFFFFFFFFFFFFFF AND SUB PUSH2 0x740 JUMPI PUSH1 0x40 MLOAD PUSH32 0x8C379A000000000000000000000000000000000000000000000000000000000 DUP2 MSTORE PUSH1 0x4 ADD PUSH2 0x737 SWAP1 PUSH2 0xEBC JUMP JUMPDEST PUSH1 0x40 MLOAD DUP1 SWAP2 SUB SWAP1 REVERT JUMPDEST PUSH0 PUSH20 0xFFFFFFFFFFFFFFFFFFFFFFFFFFFFFFFFFFFFFFFF AND DUP3 PUSH20 0xFFFFFFFFFFFFFFFFFFFFFFFFFFFFFFFFFFFFFFFF AND SUB PUSH2 0x7AE JUMPI PUSH1 0x40 MLOAD PUSH32 0x8C379A000000000000000000000000000000000000000000000000000000000 DUP2 MSTORE PUSH1 0x4 ADD PUSH2 0x7A5 SWAP1 PUSH2 0xF4A JUMP JUMPDEST PUSH1 0x40 MLOAD DUP1 SWAP2 SUB SWAP1 REVERT JUMPDEST DUP1 PUSH1 0x4 PUSH0 DUP6 PUSH20 0xFFFFFFFFFFFFFFFFFFFFFFFFFFFFFFFFFFFFFFFF AND PUSH20 0xFFFFFFFFFFFFFFFFFFFFFFFFFFFFFFFFFFFFFFFF AND DUP2 MSTORE PUSH1 0x20 ADD SWAP1 DUP2 MSTORE PUSH1 0x20 ADD PUSH0 KECCAK256 SLOAD LT ISZERO PUSH2 0x82E JUMPI PUSH1 0x40 MLOAD PUSH32 0x8C379A000000000000000000000000000000000000000000000000000000000 DUP2 MSTORE PUSH1 0x4 ADD PUSH2 0x825 SWAP1 PUSH2 0xDCE JUMP JUMPDEST PUSH1 0x40 MLOAD DUP1 SWAP2 SUB SWAP1 REVERT JUMPDEST DUP1 PUSH1 0x4 PUSH0 DUP6 PUSH20 0xFFFFFFFFFFFFFFFFFFFFFFFFFFFFFFFFFFFFFFFF AND PUSH20 0xFFFFFFFFFFFFFFFFFFFFFFFFFFFFFFFFFFFFFFFF AND DUP2 MSTORE PUSH1 0x20 ADD SWAP1 DUP2 MSTORE PUSH1 0x20 ADD PUSH0 KECCAK256 PUSH0 DUP3 DUP3 SLOAD PUSH2 0x87A SWAP2 SWAP1 PUSH2 0xE19 JUMP JUMPDEST SWAP3 POP POP DUP2 SWAP1 SSTORE POP DUP1 PUSH1 0x4 PUSH0 DUP5 PUSH20 0xFFFFFFFFFFFFFFFFFFFFFFFFFFFFFFFFFFFFFFFF AND PUSH20 0xFFFFFFFFFFFFFFFFFFFFFFFFFFFFFFFFFFFFFFFF AND DUP2 MSTORE PUSH1 0x20 ADD SWAP1 DUP2 MSTORE PUSH1 0x20 ADD PUSH0 KECCAK256 PUSH0 DUP3 DUP3 SLOAD PUSH2 0x8CD SWAP2 SWAP1 PUSH2 0xF68 JUMP JUMPDEST SWAP3 POP POP DUP2 SWAP1 SSTORE POP DUP2 PUSH20 0xFFFFFFFFFFFFFFFFFFFFFFFFFFFFFFFFFFFFFFFF AND DUP4 PUSH20 0xFFFFFFFFFFFFFFFFFFFFFFFFFFFFFFFFFFFFFFFF AND PUSH32 0xDDF252AD1BE2C89B69C2B068FC378DAA952BA7F163C4A11628F55A4DF523B3EF DUP4 PUSH1 0x40 MLOAD PUSH2 0x931 SWAP2 SWAP1 PUSH2 0xADF JUMP JUMPDEST PUSH1 0x40 MLOAD DUP1 SWAP2 SUB SWAP1 LOG3 POP POP POP JUMP JUMPDEST PUSH0 DUP2 MLOAD SWAP1 POP SWAP2 SWAP1 POP JUMP JUMPDEST PUSH0 DUP3 DUP3 MSTORE PUSH1 0x20 DUP3 ADD SWAP1 POP SWAP3 SWAP2 POP POP JUMP JUMPDEST DUP3 DUP2 DUP4 MCOPY PUSH0 DUP4 DUP4 ADD MSTORE POP POP POP JUMP JUMPDEST PUSH0 PUSH1 0x1F NOT PUSH1 0x1F DUP4 ADD AND SWAP1 POP SWAP2 SWAP1 POP JUMP JUMPDEST PUSH0 PUSH2 0x980 DUP3 PUSH2 0x93E JUMP JUMPDEST PUSH2 0x98A DUP2 DUP6 PUSH2 0x948 JUMP JUMPDEST SWAP4 POP PUSH2 0x99A DUP2 DUP6 PUSH1 0x20 DUP7 ADD PUSH2 0x958 JUMP JUMPDEST PUSH2 0x9A3 DUP2 PUSH2 0x966 JUMP JUMPDEST DUP5 ADD SWAP2 POP POP SWAP3 SWAP2 POP POP JUMP JUMPDEST PUSH0 PUSH1 0x20 DUP3 ADD SWAP1 POP DUP2 DUP2 SUB PUSH0 DUP4 ADD MSTORE PUSH2 0x9C6 DUP2 DUP5 PUSH2 0x976 JUMP JUMPDEST SWAP1 POP SWAP3 SWAP2 POP POP JUMP JUMPDEST PUSH0 DUP1 REVERT JUMPDEST PUSH0 PUSH20 0xFFFFFFFFFFFFFFFFFFFFFFFFFFFFFFFFFFFFFFFF DUP3 AND SWAP1 POP SWAP2 SWAP1 POP JUMP JUMPDEST PUSH0 PUSH2 0x9FB DUP3 PUSH2 0x9D2 JUMP JUMPDEST SWAP1 POP SWAP2 SWAP1 POP JUMP JUMPDEST PUSH2 0xA0B DUP2 PUSH2 0x9F1 JUMP JUMPDEST DUP2 EQ PUSH2 0xA15 JUMPI PUSH0 DUP1 REVERT JUMPDEST POP JUMP JUMPDEST PUSH0 DUP2 CALLDATALOAD SWAP1 POP PUSH2 0xA26 DUP2 PUSH2 0xA02 JUMP JUMPDEST SWAP3 SWAP2 POP POP JUMP JUMPDEST PUSH0 DUP2 SWAP1 POP SWAP2 SWAP1 POP JUMP JUMPDEST PUSH2 0xA3E DUP2 PUSH2 0xA2C JUMP JUMPDEST DUP2 EQ PUSH2 0xA48 JUMPI PUSH0 DUP1 REVERT JUMPDEST POP JUMP JUMPDEST PUSH0 DUP2 CALLDATALOAD SWAP1 POP PUSH2 0xA59 DUP2 PUSH2 0xA35 JUMP JUMPDEST SWAP3 SWAP2 POP POP JUMP JUMPDEST PUSH0 DUP1 PUSH1 0x40 DUP4 DUP6 SUB SLT ISZERO PUSH2 0xA75 JUMPI PUSH2 0xA74 PUSH2 0x9CE JUMP JUMPDEST JUMPDEST PUSH0 PUSH2 0xA82 DUP6 DUP3 DUP7 ADD PUSH2 0xA18 JUMP JUMPDEST SWAP3 POP POP PUSH1 0x20 PUSH2 0xA93 DUP6 DUP3 DUP7 ADD PUSH2 0xA4B JUMP JUMPDEST SWAP2 POP POP SWAP3 POP SWAP3 SWAP1 POP JUMP JUMPDEST PUSH0 DUP2 ISZERO ISZERO SWAP1 POP SWAP2 SWAP1 POP JUMP JUMPDEST PUSH2 0xAB1 DUP2 PUSH2 0xA9D JUMP JUMPDEST DUP3 MSTORE POP POP JUMP JUMPDEST PUSH0 PUSH1 0x20 DUP3 ADD SWAP1 POP PUSH2 0xACA PUSH0 DUP4 ADD DUP5 PUSH2 0xAA8 JUMP JUMPDEST SWAP3 SWAP2 POP POP JUMP JUMPDEST PUSH2 0xAD9 DUP2 PUSH2 0xA2C JUMP JUMPDEST DUP3 MSTORE POP POP JUMP JUMPDEST PUSH0 PUSH1 0x20 DUP3 ADD SWAP1 POP PUSH2 0xAF2 PUSH0 DUP4 ADD DUP5 PUSH2 0xAD0 JUMP JUMPDEST SWAP3 SWAP2 POP POP JUMP JUMPDEST PUSH0 DUP1 PUSH1 0x40 DUP4 DUP6 SUB SLT ISZERO PUSH2 0xB0E JUMPI PUSH2 0xB0D PUSH2 0x9CE JUMP JUMPDEST JUMPDEST PUSH0 PUSH2 0xB1B DUP6 DUP3 DUP7 ADD PUSH2 0xA18 JUMP JUMPDEST SWAP3 POP POP PUSH1 0x20 PUSH2 0xB2C DUP6 DUP3 DUP7 ADD PUSH2 0xA18 JUMP JUMPDEST SWAP2 POP POP SWAP3 POP SWAP3 SWAP1 POP JUMP JUMPDEST PUSH0 DUP1 PUSH0 PUSH1 0x60 DUP5 DUP7 SUB SLT ISZERO PUSH2 0xB4D JUMPI PUSH2 0xB4C PUSH2 0x9CE JUMP JUMPDEST JUMPDEST PUSH0 PUSH2 0xB5A DUP7 DUP3 DUP8 ADD PUSH2 0xA18 JUMP JUMPDEST SWAP4 POP POP PUSH1 0x20 PUSH2 0xB6B DUP7 DUP3 DUP8 ADD PUSH2 0xA18 JUMP JUMPDEST SWAP3 POP POP PUSH1 0x40 PUSH2 0xB7C DUP7 DUP3 DUP8 ADD PUSH2 0xA4B JUMP JUMPDEST SWAP2 POP POP SWAP3 POP SWAP3 POP SWAP3 JUMP JUMPDEST PUSH0 PUSH1 0xFF DUP3 AND SWAP1 POP SWAP2 SWAP1 POP JUMP JUMPDEST PUSH2 0xB9B DUP2 PUSH2 0xB86 JUMP JUMPDEST DUP3 MSTORE POP POP JUMP JUMPDEST PUSH0 PUSH1 0x20 DUP3 ADD SWAP1 POP PUSH2 0xBB4 PUSH0 DUP4 ADD DUP5 PUSH2 0xB92 JUMP JUMPDEST SWAP3 SWAP2 POP POP JUMP JUMPDEST PUSH0 PUSH1 0x20 DUP3 DUP5 SUB SLT ISZERO PUSH2 0xBCF JUMPI PUSH2 0xBCE PUSH2 0x9CE JUMP JUMPDEST JUMPDEST PUSH0 PUSH2 0xBDC DUP5 DUP3 DUP6 ADD PUSH2 0xA18 JUMP JUMPDEST SWAP2 POP POP SWAP3 SWAP2 POP POP JUMP JUMPDEST PUSH32 0x4E487B7100000000000000000000000000000000000000000000000000000000 PUSH0 MSTORE PUSH1 0x22 PUSH1 0x4 MSTORE PUSH1 0x24 PUSH0 REVERT JUMPDEST PUSH0 PUSH1 0x2 DUP3 DIV SWAP1 POP PUSH1 0x1 DUP3 AND DUP1 PUSH2 0xC29 JUMPI PUSH1 0x7F DUP3 AND SWAP2 POP JUMPDEST PUSH1 0x20 DUP3 LT DUP2 SUB PUSH2 0xC3C JUMPI PUSH2 0xC3B PUSH2 0xBE5 JUMP JUMPDEST JUMPDEST POP SWAP2 SWAP1 POP JUMP JUMPDEST PUSH32 0x45524332303A20617070726F766520666F726D20746865207A65726F20616464 PUSH0 DUP3 ADD MSTORE PUSH32 0x7265737300000000000000000000000000000000000000000000000000000000 PUSH1 0x20 DUP3 ADD MSTORE POP JUMP JUMPDEST PUSH0 PUSH2 0xC9C PUSH1 0x24 DUP4 PUSH2 0x948 JUMP JUMPDEST SWAP2 POP PUSH2 0xCA7 DUP3 PUSH2 0xC42 JUMP JUMPDEST PUSH1 0x40 DUP3 ADD SWAP1 POP SWAP2 SWAP1 POP JUMP JUMPDEST PUSH0 PUSH1 0x20 DUP3 ADD SWAP1 POP DUP2 DUP2 SUB PUSH0 DUP4 ADD MSTORE PUSH2 0xCC9 DUP2 PUSH2 0xC90 JUMP JUMPDEST SWAP1 POP SWAP2 SWAP1 POP JUMP JUMPDEST PUSH32 0x45524332303A207370656E64657220666F726D20746865207A65726F20616464 PUSH0 DUP3 ADD MSTORE PUSH32 0x7265737300000000000000000000000000000000000000000000000000000000 PUSH1 0x20 DUP3 ADD MSTORE POP JUMP JUMPDEST PUSH0 PUSH2 0xD2A PUSH1 0x24 DUP4 PUSH2 0x948 JUMP JUMPDEST SWAP2 POP PUSH2 0xD35 DUP3 PUSH2 0xCD0 JUMP JUMPDEST PUSH1 0x40 DUP3 ADD SWAP1 POP SWAP2 SWAP1 POP JUMP JUMPDEST PUSH0 PUSH1 0x20 DUP3 ADD SWAP1 POP DUP2 DUP2 SUB PUSH0 DUP4 ADD MSTORE PUSH2 0xD57 DUP2 PUSH2 0xD1E JUMP JUMPDEST SWAP1 POP SWAP2 SWAP1 POP JUMP JUMPDEST PUSH32 0x45524332303A207472616E7366657220616D6F756E7420657863656564732062 PUSH0 DUP3 ADD MSTORE PUSH32 0x616C616E63650000000000000000000000000000000000000000000000000000 PUSH1 0x20 DUP3 ADD MSTORE POP JUMP JUMPDEST PUSH0 PUSH2 0xDB8 PUSH1 0x26 DUP4 PUSH2 0x948 JUMP JUMPDEST SWAP2 POP PUSH2 0xDC3 DUP3 PUSH2 0xD5E JUMP JUMPDEST PUSH1 0x40 DUP3 ADD SWAP1 POP SWAP2 SWAP1 POP JUMP JUMPDEST PUSH0 PUSH1 0x20 DUP3 ADD SWAP1 POP DUP2 DUP2 SUB PUSH0 DUP4 ADD MSTORE PUSH2 0xDE5 DUP2 PUSH2 0xDAC JUMP JUMPDEST SWAP1 POP SWAP2 SWAP1 POP JUMP JUMPDEST PUSH32 0x4E487B7100000000000000000000000000000000000000000000000000000000 PUSH0 MSTORE PUSH1 0x11 PUSH1 0x4 MSTORE PUSH1 0x24 PUSH0 REVERT JUMPDEST PUSH0 PUSH2 0xE23 DUP3 PUSH2 0xA2C JUMP JUMPDEST SWAP2 POP PUSH2 0xE2E DUP4 PUSH2 0xA2C JUMP JUMPDEST SWAP3 POP DUP3 DUP3 SUB SWAP1 POP DUP2 DUP2 GT ISZERO PUSH2 0xE46 JUMPI PUSH2 0xE45 PUSH2 0xDEC JUMP JUMPDEST JUMPDEST SWAP3 SWAP2 POP POP JUMP JUMPDEST PUSH32 0x45524332303A207472616E736665722066726F6D20746865207A65726F206164 PUSH0 DUP3 ADD MSTORE PUSH32 0x6472657373000000000000000000000000000000000000000000000000000000 PUSH1 0x20 DUP3 ADD MSTORE POP JUMP JUMPDEST PUSH0 PUSH2 0xEA6 PUSH1 0x25 DUP4 PUSH2 0x948 JUMP JUMPDEST SWAP2 POP PUSH2 0xEB1 DUP3 PUSH2 0xE4C JUMP JUMPDEST PUSH1 0x40 DUP3 ADD SWAP1 POP SWAP2 SWAP1 POP JUMP JUMPDEST PUSH0 PUSH1 0x20 DUP3 ADD SWAP1 POP DUP2 DUP2 SUB PUSH0 DUP4 ADD MSTORE PUSH2 0xED3 DUP2 PUSH2 0xE9A JUMP JUMPDEST SWAP1 POP SWAP2 SWAP1 POP JUMP JUMPDEST PUSH32 0x45524332303A207472616E7366657220746F20746865207A65726F2061646472 PUSH0 DUP3 ADD MSTORE PUSH32 0x6573730000000000000000000000000000000000000000000000000000000000 PUSH1 0x20 DUP3 ADD MSTORE POP JUMP JUMPDEST PUSH0 PUSH2 0xF34 PUSH1 0x23 DUP4 PUSH2 0x948 JUMP JUMPDEST SWAP2 POP PUSH2 0xF3F DUP3 PUSH2 0xEDA JUMP JUMPDEST PUSH1 0x40 DUP3 ADD SWAP1 POP SWAP2 SWAP1 POP JUMP JUMPDEST PUSH0 PUSH1 0x20 DUP3 ADD SWAP1 POP DUP2 DUP2 SUB PUSH0 DUP4 ADD MSTORE PUSH2 0xF61 DUP2 PUSH2 0xF28 JUMP JUMPDEST SWAP1 POP SWAP2 SWAP1 POP JUMP JUMPDEST PUSH0 PUSH2 0xF72 DUP3 PUSH2 0xA2C JUMP JUMPDEST SWAP2 POP PUSH2 0xF7D DUP4 PUSH2 0xA2C JUMP JUMPDEST SWAP3 POP DUP3 DUP3 ADD SWAP1 POP DUP1 DUP3 GT ISZERO PUSH2 0xF95 JUMPI PUSH2 0xF94 PUSH2 0xDEC JUMP JUMPDEST JUMPDEST SWAP3 SWAP2 POP POP JUMP INVALID LOG2 PUSH5 0x6970667358 0x22 SLT KECCAK256 SLT 0xD1 PUSH29 0xDB6A7D3CE7DA48FEE12CC210B4095444A8CE5C1E91F12F81B4BC834428 PUSH5 0x736F6C6343 STOP ADDMOD BYTE STOP CALLER "
				},
				"gasEstimates": {
					"creation": {
						"codeDepositCost": "809800",
						"executionCost": "infinite",
						"totalCost": "infinite"
					},
					"external": {
						"allowanceOf(address,address)": "infinite",
						"approve(address,uint256)": "infinite",
						"balanceOf(address)": "2873",
						"decimals()": "2495",
						"name()": "infinite",
						"symbol()": "infinite",
						"totalSupply()": "2477",
						"transfer(address,uint256)": "infinite",
						"transferFrom(address,address,uint256)": "infinite"
					},
					"internal": {
						"_approve(address,address,uint256)": "infinite",
						"_mint(address,uint256)": "infinite",
						"_spendAllowance(address,address,uint256)": "infinite",
						"_transfer(address,address,uint256)": "infinite"
					}
				},
				"methodIdentifiers": {
					"allowanceOf(address,address)": "1a46ec82",
					"approve(address,uint256)": "095ea7b3",
					"balanceOf(address)": "70a08231",
					"decimals()": "313ce567",
					"name()": "06fdde03",
					"symbol()": "95d89b41",
					"totalSupply()": "18160ddd",
					"transfer(address,uint256)": "a9059cbb",
					"transferFrom(address,address,uint256)": "23b872dd"
				}
			},
			"storageLayout": {
				"storage": [
					{
						"astId": 18,
						"contract": "contract/Mytoken.sol:Mytoken2",
						"label": "_name",
						"offset": 0,
						"slot": "0",
						"type": "t_string_storage"
					},
					{
						"astId": 20,
						"contract": "contract/Mytoken.sol:Mytoken2",
						"label": "_symbol",
						"offset": 0,
						"slot": "1",
						"type": "t_string_storage"
					},
					{
						"astId": 22,
						"contract": "contract/Mytoken.sol:Mytoken2",
						"label": "_decimals",
						"offset": 0,
						"slot": "2",
						"type": "t_uint8"
					},
					{
						"astId": 24,
						"contract": "contract/Mytoken.sol:Mytoken2",
						"label": "_totalSupply",
						"offset": 0,
						"slot": "3",
						"type": "t_uint256"
					},
					{
						"astId": 28,
						"contract": "contract/Mytoken.sol:Mytoken2",
						"label": "_balance",
						"offset": 0,
						"slot": "4",
						"type": "t_mapping(t_address,t_uint256)"
					},
					{
						"astId": 34,
						"contract": "contract/Mytoken.sol:Mytoken2",
						"label": "_allowance",
						"offset": 0,
						"slot": "5",
						"type": "t_mapping(t_address,t_mapping(t_address,t_uint256))"
					}
				],
				"types": {
					"t_address": {
						"encoding": "inplace",
						"label": "address",
						"numberOfBytes": "20"
					},
					"t_mapping(t_address,t_mapping(t_address,t_uint256))": {
						"encoding": "mapping",
						"key": "t_address",
						"label": "mapping(address => mapping(address => uint256))",
						"numberOfBytes": "32",
						"value": "t_mapping(t_address,t_uint256)"
					},
					"t_mapping(t_address,t_uint256)": {
						"encoding": "mapping",
						"key": "t_address",
						"label": "mapping(address => uint256)",
						"numberOfBytes": "32",
						"value": "t_uint256"
					},
					"t_string_storage": {
						"encoding": "bytes",
						"label": "string",
						"numberOfBytes": "32"
					},
					"t_uint256": {
						"encoding": "inplace",
						"label": "uint256",
						"numberOfBytes": "32"
					},
					"t_uint8": {
						"encoding": "inplace",
						"label": "uint8",
						"numberOfBytes": "1"
					}
				}
			},
			"userdoc": {
				"kind": "user",
				"methods": {},
				"version": 1
			}
		}
	}
}